{
	"contracts/GnosisUntitled.sol": {
		"GnosisUntitled": {
			"abi": [
				{
					"inputs": [
						{
							"internalType": "address[]",
							"name": "signers",
							"type": "address[]"
						},
						{
							"internalType": "uint256",
							"name": "_quorum",
							"type": "uint256"
						}
					],
					"stateMutability": "payable",
					"type": "constructor"
				},
				{
					"anonymous": false,
					"inputs": [
						{
							"indexed": true,
							"internalType": "address",
							"name": "sender",
							"type": "address"
						},
						{
							"indexed": true,
							"internalType": "uint256",
							"name": "txIndex",
							"type": "uint256"
						}
					],
					"name": "ConfirmTransaction",
					"type": "event"
				},
				{
					"anonymous": false,
					"inputs": [
						{
							"indexed": true,
							"internalType": "address",
							"name": "sender",
							"type": "address"
						},
						{
							"indexed": false,
							"internalType": "uint256",
							"name": "amount",
							"type": "uint256"
						},
						{
							"indexed": false,
							"internalType": "uint256",
							"name": "balance",
							"type": "uint256"
						}
					],
					"name": "Deposit",
					"type": "event"
				},
				{
					"anonymous": false,
					"inputs": [
						{
							"indexed": true,
							"internalType": "address",
							"name": "sender",
							"type": "address"
						},
						{
							"indexed": true,
							"internalType": "uint256",
							"name": "txIndex",
							"type": "uint256"
						}
					],
					"name": "ExecuteTransaction",
					"type": "event"
				},
				{
					"anonymous": false,
					"inputs": [
						{
							"indexed": true,
							"internalType": "address",
							"name": "sender",
							"type": "address"
						},
						{
							"indexed": true,
							"internalType": "uint256",
							"name": "txIndex",
							"type": "uint256"
						}
					],
					"name": "RevokeConfirmation",
					"type": "event"
				},
				{
					"anonymous": false,
					"inputs": [
						{
							"indexed": true,
							"internalType": "address",
							"name": "sender",
							"type": "address"
						},
						{
							"indexed": true,
							"internalType": "uint256",
							"name": "txIndex",
							"type": "uint256"
						},
						{
							"indexed": true,
							"internalType": "address",
							"name": "to",
							"type": "address"
						},
						{
							"indexed": false,
							"internalType": "uint256",
							"name": "value",
							"type": "uint256"
						},
						{
							"indexed": false,
							"internalType": "enum GnosisUntitled.TxType",
							"name": "txType",
							"type": "uint8"
						}
					],
					"name": "SubmitTransaction",
					"type": "event"
				},
				{
					"inputs": [
						{
							"internalType": "uint256",
							"name": "_txIndex",
							"type": "uint256"
						}
					],
					"name": "confirmTransaction",
					"outputs": [],
					"stateMutability": "nonpayable",
					"type": "function"
				},
				{
					"inputs": [
						{
							"internalType": "uint256",
							"name": "_txIndex",
							"type": "uint256"
						}
					],
					"name": "executeTransaction",
					"outputs": [],
					"stateMutability": "nonpayable",
					"type": "function"
				},
				{
					"inputs": [
						{
							"internalType": "uint256",
							"name": "_txIndex",
							"type": "uint256"
						}
					],
					"name": "getTransaction",
					"outputs": [
						{
							"internalType": "address",
							"name": "to",
							"type": "address"
						},
						{
							"internalType": "uint256",
							"name": "value",
							"type": "uint256"
						},
						{
							"internalType": "bytes",
							"name": "data",
							"type": "bytes"
						},
						{
							"internalType": "bool",
							"name": "executed",
							"type": "bool"
						},
						{
							"internalType": "uint256",
							"name": "numConfirmations",
							"type": "uint256"
						}
					],
					"stateMutability": "view",
					"type": "function"
				},
				{
					"inputs": [],
					"name": "getTransactionCount",
					"outputs": [
						{
							"internalType": "uint256",
							"name": "",
							"type": "uint256"
						}
					],
					"stateMutability": "view",
					"type": "function"
				},
				{
					"inputs": [
						{
							"internalType": "uint256",
							"name": "",
							"type": "uint256"
						},
						{
							"internalType": "address",
							"name": "",
							"type": "address"
						}
					],
					"name": "isConfirmed",
					"outputs": [
						{
							"internalType": "bool",
							"name": "",
							"type": "bool"
						}
					],
					"stateMutability": "view",
					"type": "function"
				},
				{
					"inputs": [
						{
							"internalType": "address",
							"name": "",
							"type": "address"
						}
					],
					"name": "isSigner",
					"outputs": [
						{
							"internalType": "bool",
							"name": "",
							"type": "bool"
						}
					],
					"stateMutability": "view",
					"type": "function"
				},
				{
					"inputs": [],
					"name": "nonce",
					"outputs": [
						{
							"internalType": "uint256",
							"name": "",
							"type": "uint256"
						}
					],
					"stateMutability": "view",
					"type": "function"
				},
				{
					"inputs": [],
					"name": "quorum",
					"outputs": [
						{
							"internalType": "uint256",
							"name": "",
							"type": "uint256"
						}
					],
					"stateMutability": "view",
					"type": "function"
				},
				{
					"inputs": [
						{
							"internalType": "uint256",
							"name": "_txIndex",
							"type": "uint256"
						}
					],
					"name": "revokeConfirmation",
					"outputs": [],
					"stateMutability": "nonpayable",
					"type": "function"
				},
				{
					"inputs": [],
					"name": "signerCount",
					"outputs": [
						{
							"internalType": "uint256",
							"name": "",
							"type": "uint256"
						}
					],
					"stateMutability": "view",
					"type": "function"
				},
				{
					"inputs": [
						{
							"internalType": "uint256",
							"name": "_quorum",
							"type": "uint256"
						}
					],
					"name": "submitChangeQuorum",
					"outputs": [],
					"stateMutability": "nonpayable",
					"type": "function"
				},
				{
					"inputs": [
						{
							"internalType": "address",
							"name": "_newSigner",
							"type": "address"
						}
					],
					"name": "submitNewSigner",
					"outputs": [],
					"stateMutability": "nonpayable",
					"type": "function"
				},
				{
					"inputs": [
						{
							"internalType": "address",
							"name": "_newSigner",
							"type": "address"
						}
					],
					"name": "submitRemoveSigner",
					"outputs": [],
					"stateMutability": "nonpayable",
					"type": "function"
				},
				{
					"inputs": [
						{
							"internalType": "address",
							"name": "_to",
							"type": "address"
						},
						{
							"internalType": "uint256",
							"name": "_value",
							"type": "uint256"
						},
						{
							"internalType": "bytes",
							"name": "_data",
							"type": "bytes"
						}
					],
					"name": "submitSendBytecode",
					"outputs": [],
					"stateMutability": "nonpayable",
					"type": "function"
				},
				{
					"inputs": [
						{
							"internalType": "address",
							"name": "_to",
							"type": "address"
						},
						{
							"internalType": "uint256",
							"name": "_value",
							"type": "uint256"
						}
					],
					"name": "submitValueTransfer",
					"outputs": [],
					"stateMutability": "nonpayable",
					"type": "function"
				},
				{
					"stateMutability": "payable",
					"type": "receive"
				}
			],
			"devdoc": {
				"author": "Untitled_Team",
				"kind": "dev",
				"methods": {},
				"stateVariables": {
					"isSigner": {
						"details": "This automatically generates a getter for us!"
					},
					"nonce": {
						"details": "This is used to prevent signature reuseInitialized at 1 because it makes the first transaction slightly cheaper"
					}
				},
				"title": "Untitled Gnosis ",
				"version": 1
			},
			"evm": {
				"assembly": "    /* \"contracts/GnosisUntitled.sol\":116:7979  contract GnosisUntitled {... */\n  mstore(0x40, 0x80)\n    /* \"contracts/GnosisUntitled.sol\":1999:2000  1 */\n  0x01\n    /* \"contracts/GnosisUntitled.sol\":1976:2000  uint256 public nonce = 1 */\n  0x03\n  sstore\n    /* \"contracts/GnosisUntitled.sol\":2322:2929  constructor(address[] memory signers, uint256 _quorum) payable {... */\n  mload(0x40)\n  sub(codesize, bytecodeSize)\n  dup1\n  bytecodeSize\n  dup4\n  codecopy\n  dup2\n  dup2\n  add\n  0x40\n  mstore\n  dup2\n  add\n  swap1\n  tag_1\n  swap2\n  swap1\n  tag_2\n  jump\t// in\ntag_1:\n    /* \"contracts/GnosisUntitled.sol\":2414:2415  0 */\n  0x00\n    /* \"contracts/GnosisUntitled.sol\":2404:2411  _quorum */\n  dup2\n    /* \"contracts/GnosisUntitled.sol\":2404:2415  _quorum > 0 */\n  gt\n    /* \"contracts/GnosisUntitled.sol\":2396:2439  require(_quorum > 0, \"quorum must be > 0 \") */\n  tag_5\n  jumpi\n  mload(0x40)\n  0x08c379a000000000000000000000000000000000000000000000000000000000\n  dup2\n  mstore\n  0x04\n  add\n  tag_6\n  swap1\n  tag_7\n  jump\t// in\ntag_6:\n  mload(0x40)\n  dup1\n  swap2\n  sub\n  swap1\n  revert\ntag_5:\n    /* \"contracts/GnosisUntitled.sol\":2475:2476  0 */\n  0x00\n    /* \"contracts/GnosisUntitled.sol\":2458:2465  signers */\n  dup3\n    /* \"contracts/GnosisUntitled.sol\":2458:2472  signers.length */\n  mload\n    /* \"contracts/GnosisUntitled.sol\":2458:2476  signers.length > 0 */\n  gt\n    /* \"contracts/GnosisUntitled.sol\":2450:2506  require(signers.length > 0, \"must be at least 1 signer\") */\n  tag_8\n  jumpi\n  mload(0x40)\n  0x08c379a000000000000000000000000000000000000000000000000000000000\n  dup2\n  mstore\n  0x04\n  add\n  tag_9\n  swap1\n  tag_10\n  jump\t// in\ntag_9:\n  mload(0x40)\n  dup1\n  swap2\n  sub\n  swap1\n  revert\ntag_8:\n    /* \"contracts/GnosisUntitled.sol\":2517:2531  uint256 length */\n  0x00\n    /* \"contracts/GnosisUntitled.sol\":2534:2541  signers */\n  dup3\n    /* \"contracts/GnosisUntitled.sol\":2534:2548  signers.length */\n  mload\n    /* \"contracts/GnosisUntitled.sol\":2517:2548  uint256 length = signers.length */\n  swap1\n  pop\n    /* \"contracts/GnosisUntitled.sol\":2573:2579  length */\n  dup1\n    /* \"contracts/GnosisUntitled.sol\":2559:2570  signerCount */\n  0x02\n    /* \"contracts/GnosisUntitled.sol\":2559:2579  signerCount = length */\n  dup2\n  swap1\n  sstore\n  pop\n    /* \"contracts/GnosisUntitled.sol\":2622:2631  uint256 i */\n  0x00\n    /* \"contracts/GnosisUntitled.sol\":2617:2882  for (uint256 i = 0; i < length; i++) {... */\ntag_11:\n    /* \"contracts/GnosisUntitled.sol\":2641:2647  length */\n  dup2\n    /* \"contracts/GnosisUntitled.sol\":2637:2638  i */\n  dup2\n    /* \"contracts/GnosisUntitled.sol\":2637:2647  i < length */\n  lt\n    /* \"contracts/GnosisUntitled.sol\":2617:2882  for (uint256 i = 0; i < length; i++) {... */\n  iszero\n  tag_12\n  jumpi\n    /* \"contracts/GnosisUntitled.sol\":2673:2687  address signer */\n  0x00\n    /* \"contracts/GnosisUntitled.sol\":2690:2697  signers */\n  dup5\n    /* \"contracts/GnosisUntitled.sol\":2698:2699  i */\n  dup3\n    /* \"contracts/GnosisUntitled.sol\":2690:2700  signers[i] */\n  dup2\n  mload\n  dup2\n  lt\n  tag_14\n  jumpi\n  tag_15\n  tag_16\n  jump\t// in\ntag_15:\ntag_14:\n  0x20\n  mul\n  0x20\n  add\n  add\n  mload\n    /* \"contracts/GnosisUntitled.sol\":2673:2700  address signer = signers[i] */\n  swap1\n  pop\n    /* \"contracts/GnosisUntitled.sol\":2741:2742  0 */\n  0x00\n    /* \"contracts/GnosisUntitled.sol\":2723:2743  signer == address(0) */\n  0xffffffffffffffffffffffffffffffffffffffff\n  and\n    /* \"contracts/GnosisUntitled.sol\":2723:2729  signer */\n  dup2\n    /* \"contracts/GnosisUntitled.sol\":2723:2743  signer == address(0) */\n  0xffffffffffffffffffffffffffffffffffffffff\n  and\n  sub\n    /* \"contracts/GnosisUntitled.sol\":2719:2825  if (signer == address(0)) {... */\n  tag_17\n  jumpi\n    /* \"contracts/GnosisUntitled.sol\":2768:2805  revert(\"Signer cannot be address(0)\") */\n  mload(0x40)\n  0x08c379a000000000000000000000000000000000000000000000000000000000\n  dup2\n  mstore\n  0x04\n  add\n  tag_18\n  swap1\n  tag_19\n  jump\t// in\ntag_18:\n  mload(0x40)\n  dup1\n  swap2\n  sub\n  swap1\n  revert\n    /* \"contracts/GnosisUntitled.sol\":2719:2825  if (signer == address(0)) {... */\ntag_17:\n    /* \"contracts/GnosisUntitled.sol\":2862:2866  true */\n  0x01\n    /* \"contracts/GnosisUntitled.sol\":2843:2851  isSigner */\n  0x05\n    /* \"contracts/GnosisUntitled.sol\":2843:2859  isSigner[signer] */\n  0x00\n    /* \"contracts/GnosisUntitled.sol\":2852:2858  signer */\n  dup4\n    /* \"contracts/GnosisUntitled.sol\":2843:2859  isSigner[signer] */\n  0xffffffffffffffffffffffffffffffffffffffff\n  and\n  0xffffffffffffffffffffffffffffffffffffffff\n  and\n  dup2\n  mstore\n  0x20\n  add\n  swap1\n  dup2\n  mstore\n  0x20\n  add\n  0x00\n  keccak256\n  0x00\n    /* \"contracts/GnosisUntitled.sol\":2843:2866  isSigner[signer] = true */\n  0x0100\n  exp\n  dup2\n  sload\n  dup2\n  0xff\n  mul\n  not\n  and\n  swap1\n  dup4\n  iszero\n  iszero\n  mul\n  or\n  swap1\n  sstore\n  pop\n    /* \"contracts/GnosisUntitled.sol\":2654:2882  {... */\n  pop\n    /* \"contracts/GnosisUntitled.sol\":2649:2652  i++ */\n  dup1\n  dup1\n  0x01\n  add\n  swap2\n  pop\n  pop\n    /* \"contracts/GnosisUntitled.sol\":2617:2882  for (uint256 i = 0; i < length; i++) {... */\n  jump(tag_11)\ntag_12:\n  pop\n    /* \"contracts/GnosisUntitled.sol\":2914:2921  _quorum */\n  dup2\n    /* \"contracts/GnosisUntitled.sol\":2905:2911  quorum */\n  0x04\n    /* \"contracts/GnosisUntitled.sol\":2905:2921  quorum = _quorum */\n  dup2\n  swap1\n  sstore\n  pop\n    /* \"contracts/GnosisUntitled.sol\":2385:2929  {... */\n  pop\n    /* \"contracts/GnosisUntitled.sol\":2322:2929  constructor(address[] memory signers, uint256 _quorum) payable {... */\n  pop\n  pop\n    /* \"contracts/GnosisUntitled.sol\":116:7979  contract GnosisUntitled {... */\n  jump(tag_20)\n    /* \"#utility.yul\":7:82   */\ntag_21:\n    /* \"#utility.yul\":40:46   */\n  0x00\n    /* \"#utility.yul\":73:75   */\n  0x40\n    /* \"#utility.yul\":67:76   */\n  mload\n    /* \"#utility.yul\":57:76   */\n  swap1\n  pop\n    /* \"#utility.yul\":7:82   */\n  swap1\n  jump\t// out\n    /* \"#utility.yul\":88:205   */\ntag_22:\n    /* \"#utility.yul\":197:198   */\n  0x00\n    /* \"#utility.yul\":194:195   */\n  dup1\n    /* \"#utility.yul\":187:199   */\n  revert\n    /* \"#utility.yul\":211:328   */\ntag_23:\n    /* \"#utility.yul\":320:321   */\n  0x00\n    /* \"#utility.yul\":317:318   */\n  dup1\n    /* \"#utility.yul\":310:322   */\n  revert\n    /* \"#utility.yul\":334:451   */\ntag_24:\n    /* \"#utility.yul\":443:444   */\n  0x00\n    /* \"#utility.yul\":440:441   */\n  dup1\n    /* \"#utility.yul\":433:445   */\n  revert\n    /* \"#utility.yul\":457:559   */\ntag_25:\n    /* \"#utility.yul\":498:504   */\n  0x00\n    /* \"#utility.yul\":549:551   */\n  0x1f\n    /* \"#utility.yul\":545:552   */\n  not\n    /* \"#utility.yul\":540:542   */\n  0x1f\n    /* \"#utility.yul\":533:538   */\n  dup4\n    /* \"#utility.yul\":529:543   */\n  add\n    /* \"#utility.yul\":525:553   */\n  and\n    /* \"#utility.yul\":515:553   */\n  swap1\n  pop\n    /* \"#utility.yul\":457:559   */\n  swap2\n  swap1\n  pop\n  jump\t// out\n    /* \"#utility.yul\":565:745   */\ntag_26:\n    /* \"#utility.yul\":613:690   */\n  0x4e487b7100000000000000000000000000000000000000000000000000000000\n    /* \"#utility.yul\":610:611   */\n  0x00\n    /* \"#utility.yul\":603:691   */\n  mstore\n    /* \"#utility.yul\":710:714   */\n  0x41\n    /* \"#utility.yul\":707:708   */\n  0x04\n    /* \"#utility.yul\":700:715   */\n  mstore\n    /* \"#utility.yul\":734:738   */\n  0x24\n    /* \"#utility.yul\":731:732   */\n  0x00\n    /* \"#utility.yul\":724:739   */\n  revert\n    /* \"#utility.yul\":751:1032   */\ntag_27:\n    /* \"#utility.yul\":834:861   */\n  tag_55\n    /* \"#utility.yul\":856:860   */\n  dup3\n    /* \"#utility.yul\":834:861   */\n  tag_25\n  jump\t// in\ntag_55:\n    /* \"#utility.yul\":826:832   */\n  dup2\n    /* \"#utility.yul\":822:862   */\n  add\n    /* \"#utility.yul\":964:970   */\n  dup2\n    /* \"#utility.yul\":952:962   */\n  dup2\n    /* \"#utility.yul\":949:971   */\n  lt\n    /* \"#utility.yul\":928:946   */\n  0xffffffffffffffff\n    /* \"#utility.yul\":916:926   */\n  dup3\n    /* \"#utility.yul\":913:947   */\n  gt\n    /* \"#utility.yul\":910:972   */\n  or\n    /* \"#utility.yul\":907:995   */\n  iszero\n  tag_56\n  jumpi\n    /* \"#utility.yul\":975:993   */\n  tag_57\n  tag_26\n  jump\t// in\ntag_57:\n    /* \"#utility.yul\":907:995   */\ntag_56:\n    /* \"#utility.yul\":1015:1025   */\n  dup1\n    /* \"#utility.yul\":1011:1013   */\n  0x40\n    /* \"#utility.yul\":1004:1026   */\n  mstore\n    /* \"#utility.yul\":794:1032   */\n  pop\n    /* \"#utility.yul\":751:1032   */\n  pop\n  pop\n  jump\t// out\n    /* \"#utility.yul\":1038:1167   */\ntag_28:\n    /* \"#utility.yul\":1072:1078   */\n  0x00\n    /* \"#utility.yul\":1099:1119   */\n  tag_59\n  tag_21\n  jump\t// in\ntag_59:\n    /* \"#utility.yul\":1089:1119   */\n  swap1\n  pop\n    /* \"#utility.yul\":1128:1161   */\n  tag_60\n    /* \"#utility.yul\":1156:1160   */\n  dup3\n    /* \"#utility.yul\":1148:1154   */\n  dup3\n    /* \"#utility.yul\":1128:1161   */\n  tag_27\n  jump\t// in\ntag_60:\n    /* \"#utility.yul\":1038:1167   */\n  swap2\n  swap1\n  pop\n  jump\t// out\n    /* \"#utility.yul\":1173:1484   */\ntag_29:\n    /* \"#utility.yul\":1250:1254   */\n  0x00\n    /* \"#utility.yul\":1340:1358   */\n  0xffffffffffffffff\n    /* \"#utility.yul\":1332:1338   */\n  dup3\n    /* \"#utility.yul\":1329:1359   */\n  gt\n    /* \"#utility.yul\":1326:1382   */\n  iszero\n  tag_62\n  jumpi\n    /* \"#utility.yul\":1362:1380   */\n  tag_63\n  tag_26\n  jump\t// in\ntag_63:\n    /* \"#utility.yul\":1326:1382   */\ntag_62:\n    /* \"#utility.yul\":1412:1416   */\n  0x20\n    /* \"#utility.yul\":1404:1410   */\n  dup3\n    /* \"#utility.yul\":1400:1417   */\n  mul\n    /* \"#utility.yul\":1392:1417   */\n  swap1\n  pop\n    /* \"#utility.yul\":1472:1476   */\n  0x20\n    /* \"#utility.yul\":1466:1470   */\n  dup2\n    /* \"#utility.yul\":1462:1477   */\n  add\n    /* \"#utility.yul\":1454:1477   */\n  swap1\n  pop\n    /* \"#utility.yul\":1173:1484   */\n  swap2\n  swap1\n  pop\n  jump\t// out\n    /* \"#utility.yul\":1490:1607   */\ntag_30:\n    /* \"#utility.yul\":1599:1600   */\n  0x00\n    /* \"#utility.yul\":1596:1597   */\n  dup1\n    /* \"#utility.yul\":1589:1601   */\n  revert\n    /* \"#utility.yul\":1613:1739   */\ntag_31:\n    /* \"#utility.yul\":1650:1657   */\n  0x00\n    /* \"#utility.yul\":1690:1732   */\n  0xffffffffffffffffffffffffffffffffffffffff\n    /* \"#utility.yul\":1683:1688   */\n  dup3\n    /* \"#utility.yul\":1679:1733   */\n  and\n    /* \"#utility.yul\":1668:1733   */\n  swap1\n  pop\n    /* \"#utility.yul\":1613:1739   */\n  swap2\n  swap1\n  pop\n  jump\t// out\n    /* \"#utility.yul\":1745:1841   */\ntag_32:\n    /* \"#utility.yul\":1782:1789   */\n  0x00\n    /* \"#utility.yul\":1811:1835   */\n  tag_67\n    /* \"#utility.yul\":1829:1834   */\n  dup3\n    /* \"#utility.yul\":1811:1835   */\n  tag_31\n  jump\t// in\ntag_67:\n    /* \"#utility.yul\":1800:1835   */\n  swap1\n  pop\n    /* \"#utility.yul\":1745:1841   */\n  swap2\n  swap1\n  pop\n  jump\t// out\n    /* \"#utility.yul\":1847:1969   */\ntag_33:\n    /* \"#utility.yul\":1920:1944   */\n  tag_69\n    /* \"#utility.yul\":1938:1943   */\n  dup2\n    /* \"#utility.yul\":1920:1944   */\n  tag_32\n  jump\t// in\ntag_69:\n    /* \"#utility.yul\":1913:1918   */\n  dup2\n    /* \"#utility.yul\":1910:1945   */\n  eq\n    /* \"#utility.yul\":1900:1963   */\n  tag_70\n  jumpi\n    /* \"#utility.yul\":1959:1960   */\n  0x00\n    /* \"#utility.yul\":1956:1957   */\n  dup1\n    /* \"#utility.yul\":1949:1961   */\n  revert\n    /* \"#utility.yul\":1900:1963   */\ntag_70:\n    /* \"#utility.yul\":1847:1969   */\n  pop\n  jump\t// out\n    /* \"#utility.yul\":1975:2118   */\ntag_34:\n    /* \"#utility.yul\":2032:2037   */\n  0x00\n    /* \"#utility.yul\":2063:2069   */\n  dup2\n    /* \"#utility.yul\":2057:2070   */\n  mload\n    /* \"#utility.yul\":2048:2070   */\n  swap1\n  pop\n    /* \"#utility.yul\":2079:2112   */\n  tag_72\n    /* \"#utility.yul\":2106:2111   */\n  dup2\n    /* \"#utility.yul\":2079:2112   */\n  tag_33\n  jump\t// in\ntag_72:\n    /* \"#utility.yul\":1975:2118   */\n  swap3\n  swap2\n  pop\n  pop\n  jump\t// out\n    /* \"#utility.yul\":2141:2873   */\ntag_35:\n    /* \"#utility.yul\":2248:2253   */\n  0x00\n    /* \"#utility.yul\":2273:2354   */\n  tag_74\n    /* \"#utility.yul\":2289:2353   */\n  tag_75\n    /* \"#utility.yul\":2346:2352   */\n  dup5\n    /* \"#utility.yul\":2289:2353   */\n  tag_29\n  jump\t// in\ntag_75:\n    /* \"#utility.yul\":2273:2354   */\n  tag_28\n  jump\t// in\ntag_74:\n    /* \"#utility.yul\":2264:2354   */\n  swap1\n  pop\n    /* \"#utility.yul\":2374:2379   */\n  dup1\n    /* \"#utility.yul\":2403:2409   */\n  dup4\n    /* \"#utility.yul\":2396:2401   */\n  dup3\n    /* \"#utility.yul\":2389:2410   */\n  mstore\n    /* \"#utility.yul\":2437:2441   */\n  0x20\n    /* \"#utility.yul\":2430:2435   */\n  dup3\n    /* \"#utility.yul\":2426:2442   */\n  add\n    /* \"#utility.yul\":2419:2442   */\n  swap1\n  pop\n    /* \"#utility.yul\":2490:2494   */\n  0x20\n    /* \"#utility.yul\":2482:2488   */\n  dup5\n    /* \"#utility.yul\":2478:2495   */\n  mul\n    /* \"#utility.yul\":2470:2476   */\n  dup4\n    /* \"#utility.yul\":2466:2496   */\n  add\n    /* \"#utility.yul\":2519:2522   */\n  dup6\n    /* \"#utility.yul\":2511:2517   */\n  dup2\n    /* \"#utility.yul\":2508:2523   */\n  gt\n    /* \"#utility.yul\":2505:2627   */\n  iszero\n  tag_76\n  jumpi\n    /* \"#utility.yul\":2538:2617   */\n  tag_77\n  tag_30\n  jump\t// in\ntag_77:\n    /* \"#utility.yul\":2505:2627   */\ntag_76:\n    /* \"#utility.yul\":2653:2659   */\n  dup4\n    /* \"#utility.yul\":2636:2867   */\ntag_78:\n    /* \"#utility.yul\":2670:2676   */\n  dup2\n    /* \"#utility.yul\":2665:2668   */\n  dup2\n    /* \"#utility.yul\":2662:2677   */\n  lt\n    /* \"#utility.yul\":2636:2867   */\n  iszero\n  tag_80\n  jumpi\n    /* \"#utility.yul\":2745:2748   */\n  dup1\n    /* \"#utility.yul\":2774:2822   */\n  tag_81\n    /* \"#utility.yul\":2818:2821   */\n  dup9\n    /* \"#utility.yul\":2806:2816   */\n  dup3\n    /* \"#utility.yul\":2774:2822   */\n  tag_34\n  jump\t// in\ntag_81:\n    /* \"#utility.yul\":2769:2772   */\n  dup5\n    /* \"#utility.yul\":2762:2823   */\n  mstore\n    /* \"#utility.yul\":2852:2856   */\n  0x20\n    /* \"#utility.yul\":2847:2850   */\n  dup5\n    /* \"#utility.yul\":2843:2857   */\n  add\n    /* \"#utility.yul\":2836:2857   */\n  swap4\n  pop\n    /* \"#utility.yul\":2712:2867   */\n  pop\n    /* \"#utility.yul\":2696:2700   */\n  0x20\n    /* \"#utility.yul\":2691:2694   */\n  dup2\n    /* \"#utility.yul\":2687:2701   */\n  add\n    /* \"#utility.yul\":2680:2701   */\n  swap1\n  pop\n    /* \"#utility.yul\":2636:2867   */\n  jump(tag_78)\ntag_80:\n    /* \"#utility.yul\":2640:2661   */\n  pop\n    /* \"#utility.yul\":2254:2873   */\n  pop\n  pop\n    /* \"#utility.yul\":2141:2873   */\n  swap4\n  swap3\n  pop\n  pop\n  pop\n  jump\t// out\n    /* \"#utility.yul\":2896:3281   */\ntag_36:\n    /* \"#utility.yul\":2978:2983   */\n  0x00\n    /* \"#utility.yul\":3027:3030   */\n  dup3\n    /* \"#utility.yul\":3020:3024   */\n  0x1f\n    /* \"#utility.yul\":3012:3018   */\n  dup4\n    /* \"#utility.yul\":3008:3025   */\n  add\n    /* \"#utility.yul\":3004:3031   */\n  slt\n    /* \"#utility.yul\":2994:3116   */\n  tag_83\n  jumpi\n    /* \"#utility.yul\":3035:3114   */\n  tag_84\n  tag_24\n  jump\t// in\ntag_84:\n    /* \"#utility.yul\":2994:3116   */\ntag_83:\n    /* \"#utility.yul\":3145:3151   */\n  dup2\n    /* \"#utility.yul\":3139:3152   */\n  mload\n    /* \"#utility.yul\":3170:3275   */\n  tag_85\n    /* \"#utility.yul\":3271:3274   */\n  dup5\n    /* \"#utility.yul\":3263:3269   */\n  dup3\n    /* \"#utility.yul\":3256:3260   */\n  0x20\n    /* \"#utility.yul\":3248:3254   */\n  dup7\n    /* \"#utility.yul\":3244:3261   */\n  add\n    /* \"#utility.yul\":3170:3275   */\n  tag_35\n  jump\t// in\ntag_85:\n    /* \"#utility.yul\":3161:3275   */\n  swap2\n  pop\n    /* \"#utility.yul\":2984:3281   */\n  pop\n    /* \"#utility.yul\":2896:3281   */\n  swap3\n  swap2\n  pop\n  pop\n  jump\t// out\n    /* \"#utility.yul\":3287:3364   */\ntag_37:\n    /* \"#utility.yul\":3324:3331   */\n  0x00\n    /* \"#utility.yul\":3353:3358   */\n  dup2\n    /* \"#utility.yul\":3342:3358   */\n  swap1\n  pop\n    /* \"#utility.yul\":3287:3364   */\n  swap2\n  swap1\n  pop\n  jump\t// out\n    /* \"#utility.yul\":3370:3492   */\ntag_38:\n    /* \"#utility.yul\":3443:3467   */\n  tag_88\n    /* \"#utility.yul\":3461:3466   */\n  dup2\n    /* \"#utility.yul\":3443:3467   */\n  tag_37\n  jump\t// in\ntag_88:\n    /* \"#utility.yul\":3436:3441   */\n  dup2\n    /* \"#utility.yul\":3433:3468   */\n  eq\n    /* \"#utility.yul\":3423:3486   */\n  tag_89\n  jumpi\n    /* \"#utility.yul\":3482:3483   */\n  0x00\n    /* \"#utility.yul\":3479:3480   */\n  dup1\n    /* \"#utility.yul\":3472:3484   */\n  revert\n    /* \"#utility.yul\":3423:3486   */\ntag_89:\n    /* \"#utility.yul\":3370:3492   */\n  pop\n  jump\t// out\n    /* \"#utility.yul\":3498:3641   */\ntag_39:\n    /* \"#utility.yul\":3555:3560   */\n  0x00\n    /* \"#utility.yul\":3586:3592   */\n  dup2\n    /* \"#utility.yul\":3580:3593   */\n  mload\n    /* \"#utility.yul\":3571:3593   */\n  swap1\n  pop\n    /* \"#utility.yul\":3602:3635   */\n  tag_91\n    /* \"#utility.yul\":3629:3634   */\n  dup2\n    /* \"#utility.yul\":3602:3635   */\n  tag_38\n  jump\t// in\ntag_91:\n    /* \"#utility.yul\":3498:3641   */\n  swap3\n  swap2\n  pop\n  pop\n  jump\t// out\n    /* \"#utility.yul\":3647:4357   */\ntag_2:\n    /* \"#utility.yul\":3751:3757   */\n  0x00\n    /* \"#utility.yul\":3759:3765   */\n  dup1\n    /* \"#utility.yul\":3808:3810   */\n  0x40\n    /* \"#utility.yul\":3796:3805   */\n  dup4\n    /* \"#utility.yul\":3787:3794   */\n  dup6\n    /* \"#utility.yul\":3783:3806   */\n  sub\n    /* \"#utility.yul\":3779:3811   */\n  slt\n    /* \"#utility.yul\":3776:3895   */\n  iszero\n  tag_93\n  jumpi\n    /* \"#utility.yul\":3814:3893   */\n  tag_94\n  tag_22\n  jump\t// in\ntag_94:\n    /* \"#utility.yul\":3776:3895   */\ntag_93:\n    /* \"#utility.yul\":3955:3956   */\n  0x00\n    /* \"#utility.yul\":3944:3953   */\n  dup4\n    /* \"#utility.yul\":3940:3957   */\n  add\n    /* \"#utility.yul\":3934:3958   */\n  mload\n    /* \"#utility.yul\":3985:4003   */\n  0xffffffffffffffff\n    /* \"#utility.yul\":3977:3983   */\n  dup2\n    /* \"#utility.yul\":3974:4004   */\n  gt\n    /* \"#utility.yul\":3971:4088   */\n  iszero\n  tag_95\n  jumpi\n    /* \"#utility.yul\":4007:4086   */\n  tag_96\n  tag_23\n  jump\t// in\ntag_96:\n    /* \"#utility.yul\":3971:4088   */\ntag_95:\n    /* \"#utility.yul\":4112:4201   */\n  tag_97\n    /* \"#utility.yul\":4193:4200   */\n  dup6\n    /* \"#utility.yul\":4184:4190   */\n  dup3\n    /* \"#utility.yul\":4173:4182   */\n  dup7\n    /* \"#utility.yul\":4169:4191   */\n  add\n    /* \"#utility.yul\":4112:4201   */\n  tag_36\n  jump\t// in\ntag_97:\n    /* \"#utility.yul\":4102:4201   */\n  swap3\n  pop\n    /* \"#utility.yul\":3905:4211   */\n  pop\n    /* \"#utility.yul\":4250:4252   */\n  0x20\n    /* \"#utility.yul\":4276:4340   */\n  tag_98\n    /* \"#utility.yul\":4332:4339   */\n  dup6\n    /* \"#utility.yul\":4323:4329   */\n  dup3\n    /* \"#utility.yul\":4312:4321   */\n  dup7\n    /* \"#utility.yul\":4308:4330   */\n  add\n    /* \"#utility.yul\":4276:4340   */\n  tag_39\n  jump\t// in\ntag_98:\n    /* \"#utility.yul\":4266:4340   */\n  swap2\n  pop\n    /* \"#utility.yul\":4221:4350   */\n  pop\n    /* \"#utility.yul\":3647:4357   */\n  swap3\n  pop\n  swap3\n  swap1\n  pop\n  jump\t// out\n    /* \"#utility.yul\":4363:4532   */\ntag_40:\n    /* \"#utility.yul\":4447:4458   */\n  0x00\n    /* \"#utility.yul\":4481:4487   */\n  dup3\n    /* \"#utility.yul\":4476:4479   */\n  dup3\n    /* \"#utility.yul\":4469:4488   */\n  mstore\n    /* \"#utility.yul\":4521:4525   */\n  0x20\n    /* \"#utility.yul\":4516:4519   */\n  dup3\n    /* \"#utility.yul\":4512:4526   */\n  add\n    /* \"#utility.yul\":4497:4526   */\n  swap1\n  pop\n    /* \"#utility.yul\":4363:4532   */\n  swap3\n  swap2\n  pop\n  pop\n  jump\t// out\n    /* \"#utility.yul\":4538:4707   */\ntag_41:\n    /* \"#utility.yul\":4678:4699   */\n  0x71756f72756d206d757374206265203e20302000000000000000000000000000\n    /* \"#utility.yul\":4674:4675   */\n  0x00\n    /* \"#utility.yul\":4666:4672   */\n  dup3\n    /* \"#utility.yul\":4662:4676   */\n  add\n    /* \"#utility.yul\":4655:4700   */\n  mstore\n    /* \"#utility.yul\":4538:4707   */\n  pop\n  jump\t// out\n    /* \"#utility.yul\":4713:5079   */\ntag_42:\n    /* \"#utility.yul\":4855:4858   */\n  0x00\n    /* \"#utility.yul\":4876:4943   */\n  tag_102\n    /* \"#utility.yul\":4940:4942   */\n  0x13\n    /* \"#utility.yul\":4935:4938   */\n  dup4\n    /* \"#utility.yul\":4876:4943   */\n  tag_40\n  jump\t// in\ntag_102:\n    /* \"#utility.yul\":4869:4943   */\n  swap2\n  pop\n    /* \"#utility.yul\":4952:5045   */\n  tag_103\n    /* \"#utility.yul\":5041:5044   */\n  dup3\n    /* \"#utility.yul\":4952:5045   */\n  tag_41\n  jump\t// in\ntag_103:\n    /* \"#utility.yul\":5070:5072   */\n  0x20\n    /* \"#utility.yul\":5065:5068   */\n  dup3\n    /* \"#utility.yul\":5061:5073   */\n  add\n    /* \"#utility.yul\":5054:5073   */\n  swap1\n  pop\n    /* \"#utility.yul\":4713:5079   */\n  swap2\n  swap1\n  pop\n  jump\t// out\n    /* \"#utility.yul\":5085:5504   */\ntag_7:\n    /* \"#utility.yul\":5251:5255   */\n  0x00\n    /* \"#utility.yul\":5289:5291   */\n  0x20\n    /* \"#utility.yul\":5278:5287   */\n  dup3\n    /* \"#utility.yul\":5274:5292   */\n  add\n    /* \"#utility.yul\":5266:5292   */\n  swap1\n  pop\n    /* \"#utility.yul\":5338:5347   */\n  dup2\n    /* \"#utility.yul\":5332:5336   */\n  dup2\n    /* \"#utility.yul\":5328:5348   */\n  sub\n    /* \"#utility.yul\":5324:5325   */\n  0x00\n    /* \"#utility.yul\":5313:5322   */\n  dup4\n    /* \"#utility.yul\":5309:5326   */\n  add\n    /* \"#utility.yul\":5302:5349   */\n  mstore\n    /* \"#utility.yul\":5366:5497   */\n  tag_105\n    /* \"#utility.yul\":5492:5496   */\n  dup2\n    /* \"#utility.yul\":5366:5497   */\n  tag_42\n  jump\t// in\ntag_105:\n    /* \"#utility.yul\":5358:5497   */\n  swap1\n  pop\n    /* \"#utility.yul\":5085:5504   */\n  swap2\n  swap1\n  pop\n  jump\t// out\n    /* \"#utility.yul\":5510:5685   */\ntag_43:\n    /* \"#utility.yul\":5650:5677   */\n  0x6d757374206265206174206c656173742031207369676e657200000000000000\n    /* \"#utility.yul\":5646:5647   */\n  0x00\n    /* \"#utility.yul\":5638:5644   */\n  dup3\n    /* \"#utility.yul\":5634:5648   */\n  add\n    /* \"#utility.yul\":5627:5678   */\n  mstore\n    /* \"#utility.yul\":5510:5685   */\n  pop\n  jump\t// out\n    /* \"#utility.yul\":5691:6057   */\ntag_44:\n    /* \"#utility.yul\":5833:5836   */\n  0x00\n    /* \"#utility.yul\":5854:5921   */\n  tag_108\n    /* \"#utility.yul\":5918:5920   */\n  0x19\n    /* \"#utility.yul\":5913:5916   */\n  dup4\n    /* \"#utility.yul\":5854:5921   */\n  tag_40\n  jump\t// in\ntag_108:\n    /* \"#utility.yul\":5847:5921   */\n  swap2\n  pop\n    /* \"#utility.yul\":5930:6023   */\n  tag_109\n    /* \"#utility.yul\":6019:6022   */\n  dup3\n    /* \"#utility.yul\":5930:6023   */\n  tag_43\n  jump\t// in\ntag_109:\n    /* \"#utility.yul\":6048:6050   */\n  0x20\n    /* \"#utility.yul\":6043:6046   */\n  dup3\n    /* \"#utility.yul\":6039:6051   */\n  add\n    /* \"#utility.yul\":6032:6051   */\n  swap1\n  pop\n    /* \"#utility.yul\":5691:6057   */\n  swap2\n  swap1\n  pop\n  jump\t// out\n    /* \"#utility.yul\":6063:6482   */\ntag_10:\n    /* \"#utility.yul\":6229:6233   */\n  0x00\n    /* \"#utility.yul\":6267:6269   */\n  0x20\n    /* \"#utility.yul\":6256:6265   */\n  dup3\n    /* \"#utility.yul\":6252:6270   */\n  add\n    /* \"#utility.yul\":6244:6270   */\n  swap1\n  pop\n    /* \"#utility.yul\":6316:6325   */\n  dup2\n    /* \"#utility.yul\":6310:6314   */\n  dup2\n    /* \"#utility.yul\":6306:6326   */\n  sub\n    /* \"#utility.yul\":6302:6303   */\n  0x00\n    /* \"#utility.yul\":6291:6300   */\n  dup4\n    /* \"#utility.yul\":6287:6304   */\n  add\n    /* \"#utility.yul\":6280:6327   */\n  mstore\n    /* \"#utility.yul\":6344:6475   */\n  tag_111\n    /* \"#utility.yul\":6470:6474   */\n  dup2\n    /* \"#utility.yul\":6344:6475   */\n  tag_44\n  jump\t// in\ntag_111:\n    /* \"#utility.yul\":6336:6475   */\n  swap1\n  pop\n    /* \"#utility.yul\":6063:6482   */\n  swap2\n  swap1\n  pop\n  jump\t// out\n    /* \"#utility.yul\":6488:6668   */\ntag_16:\n    /* \"#utility.yul\":6536:6613   */\n  0x4e487b7100000000000000000000000000000000000000000000000000000000\n    /* \"#utility.yul\":6533:6534   */\n  0x00\n    /* \"#utility.yul\":6526:6614   */\n  mstore\n    /* \"#utility.yul\":6633:6637   */\n  0x32\n    /* \"#utility.yul\":6630:6631   */\n  0x04\n    /* \"#utility.yul\":6623:6638   */\n  mstore\n    /* \"#utility.yul\":6657:6661   */\n  0x24\n    /* \"#utility.yul\":6654:6655   */\n  0x00\n    /* \"#utility.yul\":6647:6662   */\n  revert\n    /* \"#utility.yul\":6674:6851   */\ntag_45:\n    /* \"#utility.yul\":6814:6843   */\n  0x5369676e65722063616e6e6f7420626520616464726573732830290000000000\n    /* \"#utility.yul\":6810:6811   */\n  0x00\n    /* \"#utility.yul\":6802:6808   */\n  dup3\n    /* \"#utility.yul\":6798:6812   */\n  add\n    /* \"#utility.yul\":6791:6844   */\n  mstore\n    /* \"#utility.yul\":6674:6851   */\n  pop\n  jump\t// out\n    /* \"#utility.yul\":6857:7223   */\ntag_46:\n    /* \"#utility.yul\":6999:7002   */\n  0x00\n    /* \"#utility.yul\":7020:7087   */\n  tag_115\n    /* \"#utility.yul\":7084:7086   */\n  0x1b\n    /* \"#utility.yul\":7079:7082   */\n  dup4\n    /* \"#utility.yul\":7020:7087   */\n  tag_40\n  jump\t// in\ntag_115:\n    /* \"#utility.yul\":7013:7087   */\n  swap2\n  pop\n    /* \"#utility.yul\":7096:7189   */\n  tag_116\n    /* \"#utility.yul\":7185:7188   */\n  dup3\n    /* \"#utility.yul\":7096:7189   */\n  tag_45\n  jump\t// in\ntag_116:\n    /* \"#utility.yul\":7214:7216   */\n  0x20\n    /* \"#utility.yul\":7209:7212   */\n  dup3\n    /* \"#utility.yul\":7205:7217   */\n  add\n    /* \"#utility.yul\":7198:7217   */\n  swap1\n  pop\n    /* \"#utility.yul\":6857:7223   */\n  swap2\n  swap1\n  pop\n  jump\t// out\n    /* \"#utility.yul\":7229:7648   */\ntag_19:\n    /* \"#utility.yul\":7395:7399   */\n  0x00\n    /* \"#utility.yul\":7433:7435   */\n  0x20\n    /* \"#utility.yul\":7422:7431   */\n  dup3\n    /* \"#utility.yul\":7418:7436   */\n  add\n    /* \"#utility.yul\":7410:7436   */\n  swap1\n  pop\n    /* \"#utility.yul\":7482:7491   */\n  dup2\n    /* \"#utility.yul\":7476:7480   */\n  dup2\n    /* \"#utility.yul\":7472:7492   */\n  sub\n    /* \"#utility.yul\":7468:7469   */\n  0x00\n    /* \"#utility.yul\":7457:7466   */\n  dup4\n    /* \"#utility.yul\":7453:7470   */\n  add\n    /* \"#utility.yul\":7446:7493   */\n  mstore\n    /* \"#utility.yul\":7510:7641   */\n  tag_118\n    /* \"#utility.yul\":7636:7640   */\n  dup2\n    /* \"#utility.yul\":7510:7641   */\n  tag_46\n  jump\t// in\ntag_118:\n    /* \"#utility.yul\":7502:7641   */\n  swap1\n  pop\n    /* \"#utility.yul\":7229:7648   */\n  swap2\n  swap1\n  pop\n  jump\t// out\n    /* \"contracts/GnosisUntitled.sol\":116:7979  contract GnosisUntitled {... */\ntag_20:\n  dataSize(sub_0)\n  dup1\n  dataOffset(sub_0)\n  0x00\n  codecopy\n  0x00\n  return\nstop\n\nsub_0: assembly {\n        /* \"contracts/GnosisUntitled.sol\":116:7979  contract GnosisUntitled {... */\n      mstore(0x40, 0x80)\n      jumpi(tag_1, lt(calldatasize, 0x04))\n      shr(0xe0, calldataload(0x00))\n      dup1\n      0x7ca548c6\n      gt\n      tag_18\n      jumpi\n      dup1\n      0xaffed0e0\n      gt\n      tag_19\n      jumpi\n      dup1\n      0xaffed0e0\n      eq\n      tag_14\n      jumpi\n      dup1\n      0xc01a8c84\n      eq\n      tag_15\n      jumpi\n      dup1\n      0xdb5e04d4\n      eq\n      tag_16\n      jumpi\n      dup1\n      0xee22610b\n      eq\n      tag_17\n      jumpi\n      jump(tag_2)\n    tag_19:\n      dup1\n      0x7ca548c6\n      eq\n      tag_10\n      jumpi\n      dup1\n      0x7df73e27\n      eq\n      tag_11\n      jumpi\n      dup1\n      0x80f59a65\n      eq\n      tag_12\n      jumpi\n      dup1\n      0xac36862a\n      eq\n      tag_13\n      jumpi\n      jump(tag_2)\n    tag_18:\n      dup1\n      0x2e7700f0\n      gt\n      tag_20\n      jumpi\n      dup1\n      0x2e7700f0\n      eq\n      tag_6\n      jumpi\n      dup1\n      0x33ea3dc8\n      eq\n      tag_7\n      jumpi\n      dup1\n      0x36881d91\n      eq\n      tag_8\n      jumpi\n      dup1\n      0x6f7853a5\n      eq\n      tag_9\n      jumpi\n      jump(tag_2)\n    tag_20:\n      dup1\n      0x0bb52c1d\n      eq\n      tag_3\n      jumpi\n      dup1\n      0x1703a018\n      eq\n      tag_4\n      jumpi\n      dup1\n      0x20ea8d86\n      eq\n      tag_5\n      jumpi\n      jump(tag_2)\n    tag_1:\n      jumpi(tag_2, calldatasize)\n        /* \"contracts/GnosisUntitled.sol\":7923:7933  msg.sender */\n      caller\n        /* \"contracts/GnosisUntitled.sol\":7915:7968  Deposit(msg.sender, msg.value, address(this).balance) */\n      0xffffffffffffffffffffffffffffffffffffffff\n      and\n      0x90890809c654f11d6e72a28fa60149770a0d11ec6c92319d6ceb2bb0a4ea1a15\n        /* \"contracts/GnosisUntitled.sol\":7935:7944  msg.value */\n      callvalue\n        /* \"contracts/GnosisUntitled.sol\":7946:7967  address(this).balance */\n      selfbalance\n        /* \"contracts/GnosisUntitled.sol\":7915:7968  Deposit(msg.sender, msg.value, address(this).balance) */\n      mload(0x40)\n      tag_23\n      swap3\n      swap2\n      swap1\n      tag_24\n      jump\t// in\n    tag_23:\n      mload(0x40)\n      dup1\n      swap2\n      sub\n      swap1\n      log2\n        /* \"contracts/GnosisUntitled.sol\":116:7979  contract GnosisUntitled {... */\n      stop\n    tag_2:\n      0x00\n      dup1\n      revert\n        /* \"contracts/GnosisUntitled.sol\":4387:4667  function submitChangeQuorum(uint256 _quorum) public onlySigner {... */\n    tag_3:\n      callvalue\n      dup1\n      iszero\n      tag_25\n      jumpi\n      0x00\n      dup1\n      revert\n    tag_25:\n      pop\n      tag_26\n      0x04\n      dup1\n      calldatasize\n      sub\n      dup2\n      add\n      swap1\n      tag_27\n      swap2\n      swap1\n      tag_28\n      jump\t// in\n    tag_27:\n      tag_29\n      jump\t// in\n    tag_26:\n      stop\n        /* \"contracts/GnosisUntitled.sol\":2105:2126  uint256 public quorum */\n    tag_4:\n      callvalue\n      dup1\n      iszero\n      tag_30\n      jumpi\n      0x00\n      dup1\n      revert\n    tag_30:\n      pop\n      tag_31\n      tag_32\n      jump\t// in\n    tag_31:\n      mload(0x40)\n      tag_33\n      swap2\n      swap1\n      tag_34\n      jump\t// in\n    tag_33:\n      mload(0x40)\n      dup1\n      swap2\n      sub\n      swap1\n      return\n        /* \"contracts/GnosisUntitled.sol\":6756:7208  function revokeConfirmation(uint256 _txIndex)... */\n    tag_5:\n      callvalue\n      dup1\n      iszero\n      tag_35\n      jumpi\n      0x00\n      dup1\n      revert\n    tag_35:\n      pop\n      tag_36\n      0x04\n      dup1\n      calldatasize\n      sub\n      dup2\n      add\n      swap1\n      tag_37\n      swap2\n      swap1\n      tag_28\n      jump\t// in\n    tag_37:\n      tag_38\n      jump\t// in\n    tag_36:\n      stop\n        /* \"contracts/GnosisUntitled.sol\":7216:7322  function getTransactionCount() public view returns (uint256) {... */\n    tag_6:\n      callvalue\n      dup1\n      iszero\n      tag_39\n      jumpi\n      0x00\n      dup1\n      revert\n    tag_39:\n      pop\n      tag_40\n      tag_41\n      jump\t// in\n    tag_40:\n      mload(0x40)\n      tag_42\n      swap2\n      swap1\n      tag_34\n      jump\t// in\n    tag_42:\n      mload(0x40)\n      dup1\n      swap2\n      sub\n      swap1\n      return\n        /* \"contracts/GnosisUntitled.sol\":7330:7864  function getTransaction(uint256 _txIndex)... */\n    tag_7:\n      callvalue\n      dup1\n      iszero\n      tag_43\n      jumpi\n      0x00\n      dup1\n      revert\n    tag_43:\n      pop\n      tag_44\n      0x04\n      dup1\n      calldatasize\n      sub\n      dup2\n      add\n      swap1\n      tag_45\n      swap2\n      swap1\n      tag_28\n      jump\t// in\n    tag_45:\n      tag_46\n      jump\t// in\n    tag_44:\n      mload(0x40)\n      tag_47\n      swap6\n      swap5\n      swap4\n      swap3\n      swap2\n      swap1\n      tag_48\n      jump\t// in\n    tag_47:\n      mload(0x40)\n      dup1\n      swap2\n      sub\n      swap1\n      return\n        /* \"contracts/GnosisUntitled.sol\":2937:3445  function submitValueTransfer(address _to, uint256 _value)... */\n    tag_8:\n      callvalue\n      dup1\n      iszero\n      tag_49\n      jumpi\n      0x00\n      dup1\n      revert\n    tag_49:\n      pop\n      tag_50\n      0x04\n      dup1\n      calldatasize\n      sub\n      dup2\n      add\n      swap1\n      tag_51\n      swap2\n      swap1\n      tag_52\n      jump\t// in\n    tag_51:\n      tag_53\n      jump\t// in\n    tag_50:\n      stop\n        /* \"contracts/GnosisUntitled.sol\":3781:4073  function submitNewSigner(address _newSigner) public onlySigner {... */\n    tag_9:\n      callvalue\n      dup1\n      iszero\n      tag_54\n      jumpi\n      0x00\n      dup1\n      revert\n    tag_54:\n      pop\n      tag_55\n      0x04\n      dup1\n      calldatasize\n      sub\n      dup2\n      add\n      swap1\n      tag_56\n      swap2\n      swap1\n      tag_57\n      jump\t// in\n    tag_56:\n      tag_58\n      jump\t// in\n    tag_55:\n      stop\n        /* \"contracts/GnosisUntitled.sol\":1707:1733  uint256 public signerCount */\n    tag_10:\n      callvalue\n      dup1\n      iszero\n      tag_59\n      jumpi\n      0x00\n      dup1\n      revert\n    tag_59:\n      pop\n      tag_60\n      tag_61\n      jump\t// in\n    tag_60:\n      mload(0x40)\n      tag_62\n      swap2\n      swap1\n      tag_34\n      jump\t// in\n    tag_62:\n      mload(0x40)\n      dup1\n      swap2\n      sub\n      swap1\n      return\n        /* \"contracts/GnosisUntitled.sol\":2273:2313  mapping(address => bool) public isSigner */\n    tag_11:\n      callvalue\n      dup1\n      iszero\n      tag_63\n      jumpi\n      0x00\n      dup1\n      revert\n    tag_63:\n      pop\n      tag_64\n      0x04\n      dup1\n      calldatasize\n      sub\n      dup2\n      add\n      swap1\n      tag_65\n      swap2\n      swap1\n      tag_57\n      jump\t// in\n    tag_65:\n      tag_66\n      jump\t// in\n    tag_64:\n      mload(0x40)\n      tag_67\n      swap2\n      swap1\n      tag_68\n      jump\t// in\n    tag_67:\n      mload(0x40)\n      dup1\n      swap2\n      sub\n      swap1\n      return\n        /* \"contracts/GnosisUntitled.sol\":1592:1655  mapping(uint256 => mapping(address => bool)) public isConfirmed */\n    tag_12:\n      callvalue\n      dup1\n      iszero\n      tag_69\n      jumpi\n      0x00\n      dup1\n      revert\n    tag_69:\n      pop\n      tag_70\n      0x04\n      dup1\n      calldatasize\n      sub\n      dup2\n      add\n      swap1\n      tag_71\n      swap2\n      swap1\n      tag_72\n      jump\t// in\n    tag_71:\n      tag_73\n      jump\t// in\n    tag_70:\n      mload(0x40)\n      tag_74\n      swap2\n      swap1\n      tag_68\n      jump\t// in\n    tag_74:\n      mload(0x40)\n      dup1\n      swap2\n      sub\n      swap1\n      return\n        /* \"contracts/GnosisUntitled.sol\":3453:3773  function submitSendBytecode(... */\n    tag_13:\n      callvalue\n      dup1\n      iszero\n      tag_75\n      jumpi\n      0x00\n      dup1\n      revert\n    tag_75:\n      pop\n      tag_76\n      0x04\n      dup1\n      calldatasize\n      sub\n      dup2\n      add\n      swap1\n      tag_77\n      swap2\n      swap1\n      tag_78\n      jump\t// in\n    tag_77:\n      tag_79\n      jump\t// in\n    tag_76:\n      stop\n        /* \"contracts/GnosisUntitled.sol\":1976:2000  uint256 public nonce = 1 */\n    tag_14:\n      callvalue\n      dup1\n      iszero\n      tag_80\n      jumpi\n      0x00\n      dup1\n      revert\n    tag_80:\n      pop\n      tag_81\n      tag_82\n      jump\t// in\n    tag_81:\n      mload(0x40)\n      tag_83\n      swap2\n      swap1\n      tag_34\n      jump\t// in\n    tag_83:\n      mload(0x40)\n      dup1\n      swap2\n      sub\n      swap1\n      return\n        /* \"contracts/GnosisUntitled.sol\":5311:5717  function confirmTransaction(uint256 _txIndex)... */\n    tag_15:\n      callvalue\n      dup1\n      iszero\n      tag_84\n      jumpi\n      0x00\n      dup1\n      revert\n    tag_84:\n      pop\n      tag_85\n      0x04\n      dup1\n      calldatasize\n      sub\n      dup2\n      add\n      swap1\n      tag_86\n      swap2\n      swap1\n      tag_28\n      jump\t// in\n    tag_86:\n      tag_87\n      jump\t// in\n    tag_85:\n      stop\n        /* \"contracts/GnosisUntitled.sol\":4081:4379  function submitRemoveSigner(address _newSigner) public onlySigner {... */\n    tag_16:\n      callvalue\n      dup1\n      iszero\n      tag_88\n      jumpi\n      0x00\n      dup1\n      revert\n    tag_88:\n      pop\n      tag_89\n      0x04\n      dup1\n      calldatasize\n      sub\n      dup2\n      add\n      swap1\n      tag_90\n      swap2\n      swap1\n      tag_57\n      jump\t// in\n    tag_90:\n      tag_91\n      jump\t// in\n    tag_89:\n      stop\n        /* \"contracts/GnosisUntitled.sol\":5725:6748  function executeTransaction(uint256 _txIndex)... */\n    tag_17:\n      callvalue\n      dup1\n      iszero\n      tag_92\n      jumpi\n      0x00\n      dup1\n      revert\n    tag_92:\n      pop\n      tag_93\n      0x04\n      dup1\n      calldatasize\n      sub\n      dup2\n      add\n      swap1\n      tag_94\n      swap2\n      swap1\n      tag_28\n      jump\t// in\n    tag_94:\n      tag_95\n      jump\t// in\n    tag_93:\n      stop\n        /* \"contracts/GnosisUntitled.sol\":4387:4667  function submitChangeQuorum(uint256 _quorum) public onlySigner {... */\n    tag_29:\n        /* \"contracts/GnosisUntitled.sol\":1046:1054  isSigner */\n      0x05\n        /* \"contracts/GnosisUntitled.sol\":1046:1066  isSigner[msg.sender] */\n      0x00\n        /* \"contracts/GnosisUntitled.sol\":1055:1065  msg.sender */\n      caller\n        /* \"contracts/GnosisUntitled.sol\":1046:1066  isSigner[msg.sender] */\n      0xffffffffffffffffffffffffffffffffffffffff\n      and\n      0xffffffffffffffffffffffffffffffffffffffff\n      and\n      dup2\n      mstore\n      0x20\n      add\n      swap1\n      dup2\n      mstore\n      0x20\n      add\n      0x00\n      keccak256\n      0x00\n      swap1\n      sload\n      swap1\n      0x0100\n      exp\n      swap1\n      div\n      0xff\n      and\n        /* \"contracts/GnosisUntitled.sol\":1038:1094  require(isSigner[msg.sender], \"only signer can execute\") */\n      tag_97\n      jumpi\n      mload(0x40)\n      0x08c379a000000000000000000000000000000000000000000000000000000000\n      dup2\n      mstore\n      0x04\n      add\n      tag_98\n      swap1\n      tag_99\n      jump\t// in\n    tag_98:\n      mload(0x40)\n      dup1\n      swap2\n      sub\n      swap1\n      revert\n    tag_97:\n        /* \"contracts/GnosisUntitled.sol\":4480:4481  0 */\n      0x00\n        /* \"contracts/GnosisUntitled.sol\":4469:4476  _quorum */\n      dup2\n        /* \"contracts/GnosisUntitled.sol\":4469:4481  _quorum != 0 */\n      sub\n        /* \"contracts/GnosisUntitled.sol\":4461:4504  require(_quorum != 0, \"Quorum cannot be 0\") */\n      tag_101\n      jumpi\n      mload(0x40)\n      0x08c379a000000000000000000000000000000000000000000000000000000000\n      dup2\n      mstore\n      0x04\n      add\n      tag_102\n      swap1\n      tag_103\n      jump\t// in\n    tag_102:\n      mload(0x40)\n      dup1\n      swap2\n      sub\n      swap1\n      revert\n    tag_101:\n        /* \"contracts/GnosisUntitled.sol\":4515:4659  submitTx(... */\n      tag_104\n        /* \"contracts/GnosisUntitled.sol\":4546:4547  0 */\n      0x00\n        /* \"contracts/GnosisUntitled.sol\":4563:4570  _quorum */\n      dup3\n        /* \"contracts/GnosisUntitled.sol\":4610:4611  0 */\n      0x00\n        /* \"contracts/GnosisUntitled.sol\":4585:4613  abi.encodePacked(uint256(0)) */\n      add(0x20, mload(0x40))\n      tag_105\n      swap2\n      swap1\n      tag_106\n      jump\t// in\n    tag_105:\n      mload(0x40)\n      0x20\n      dup2\n      dup4\n      sub\n      sub\n      dup2\n      mstore\n      swap1\n      0x40\n      mstore\n        /* \"contracts/GnosisUntitled.sol\":4628:4648  TxType.CHANGE_QUORUM */\n      0x04\n        /* \"contracts/GnosisUntitled.sol\":4515:4523  submitTx */\n      tag_107\n        /* \"contracts/GnosisUntitled.sol\":4515:4659  submitTx(... */\n      jump\t// in\n    tag_104:\n        /* \"contracts/GnosisUntitled.sol\":4387:4667  function submitChangeQuorum(uint256 _quorum) public onlySigner {... */\n      pop\n      jump\t// out\n        /* \"contracts/GnosisUntitled.sol\":2105:2126  uint256 public quorum */\n    tag_32:\n      sload(0x04)\n      dup2\n      jump\t// out\n        /* \"contracts/GnosisUntitled.sol\":6756:7208  function revokeConfirmation(uint256 _txIndex)... */\n    tag_38:\n        /* \"contracts/GnosisUntitled.sol\":1046:1054  isSigner */\n      0x05\n        /* \"contracts/GnosisUntitled.sol\":1046:1066  isSigner[msg.sender] */\n      0x00\n        /* \"contracts/GnosisUntitled.sol\":1055:1065  msg.sender */\n      caller\n        /* \"contracts/GnosisUntitled.sol\":1046:1066  isSigner[msg.sender] */\n      0xffffffffffffffffffffffffffffffffffffffff\n      and\n      0xffffffffffffffffffffffffffffffffffffffff\n      and\n      dup2\n      mstore\n      0x20\n      add\n      swap1\n      dup2\n      mstore\n      0x20\n      add\n      0x00\n      keccak256\n      0x00\n      swap1\n      sload\n      swap1\n      0x0100\n      exp\n      swap1\n      div\n      0xff\n      and\n        /* \"contracts/GnosisUntitled.sol\":1038:1094  require(isSigner[msg.sender], \"only signer can execute\") */\n      tag_109\n      jumpi\n      mload(0x40)\n      0x08c379a000000000000000000000000000000000000000000000000000000000\n      dup2\n      mstore\n      0x04\n      add\n      tag_110\n      swap1\n      tag_99\n      jump\t// in\n    tag_110:\n      mload(0x40)\n      dup1\n      swap2\n      sub\n      swap1\n      revert\n    tag_109:\n        /* \"contracts/GnosisUntitled.sol\":6856:6864  _txIndex */\n      dup1\n        /* \"contracts/GnosisUntitled.sol\":1188:1200  transactions */\n      0x01\n        /* \"contracts/GnosisUntitled.sol\":1188:1207  transactions.length */\n      dup1\n      sload\n      swap1\n      pop\n        /* \"contracts/GnosisUntitled.sol\":1177:1185  _txIndex */\n      dup2\n        /* \"contracts/GnosisUntitled.sol\":1177:1207  _txIndex < transactions.length */\n      lt\n        /* \"contracts/GnosisUntitled.sol\":1169:1229  require(_txIndex < transactions.length, \"tx does not exist\") */\n      tag_112\n      jumpi\n      mload(0x40)\n      0x08c379a000000000000000000000000000000000000000000000000000000000\n      dup2\n      mstore\n      0x04\n      add\n      tag_113\n      swap1\n      tag_114\n      jump\t// in\n    tag_113:\n      mload(0x40)\n      dup1\n      swap2\n      sub\n      swap1\n      revert\n    tag_112:\n        /* \"contracts/GnosisUntitled.sol\":6887:6895  _txIndex */\n      dup2\n        /* \"contracts/GnosisUntitled.sol\":1316:1328  transactions */\n      0x01\n        /* \"contracts/GnosisUntitled.sol\":1329:1337  _txIndex */\n      dup2\n        /* \"contracts/GnosisUntitled.sol\":1316:1338  transactions[_txIndex] */\n      dup2\n      sload\n      dup2\n      lt\n      tag_116\n      jumpi\n      tag_117\n      tag_118\n      jump\t// in\n    tag_117:\n    tag_116:\n      swap1\n      0x00\n      mstore\n      keccak256(0x00, 0x20)\n      swap1\n      0x07\n      mul\n      add\n        /* \"contracts/GnosisUntitled.sol\":1316:1347  transactions[_txIndex].executed */\n      0x04\n      add\n      0x00\n      swap1\n      sload\n      swap1\n      0x0100\n      exp\n      swap1\n      div\n      0xff\n      and\n        /* \"contracts/GnosisUntitled.sol\":1315:1347  !transactions[_txIndex].executed */\n      iszero\n        /* \"contracts/GnosisUntitled.sol\":1307:1371  require(!transactions[_txIndex].executed, \"tx already executed\") */\n      tag_120\n      jumpi\n      mload(0x40)\n      0x08c379a000000000000000000000000000000000000000000000000000000000\n      dup2\n      mstore\n      0x04\n      add\n      tag_121\n      swap1\n      tag_122\n      jump\t// in\n    tag_121:\n      mload(0x40)\n      dup1\n      swap2\n      sub\n      swap1\n      revert\n    tag_120:\n        /* \"contracts/GnosisUntitled.sol\":6913:6944  Transaction storage transaction */\n      0x00\n        /* \"contracts/GnosisUntitled.sol\":6947:6959  transactions */\n      0x01\n        /* \"contracts/GnosisUntitled.sol\":6960:6968  _txIndex */\n      dup5\n        /* \"contracts/GnosisUntitled.sol\":6947:6969  transactions[_txIndex] */\n      dup2\n      sload\n      dup2\n      lt\n      tag_124\n      jumpi\n      tag_125\n      tag_118\n      jump\t// in\n    tag_125:\n    tag_124:\n      swap1\n      0x00\n      mstore\n      keccak256(0x00, 0x20)\n      swap1\n      0x07\n      mul\n      add\n        /* \"contracts/GnosisUntitled.sol\":6913:6969  Transaction storage transaction = transactions[_txIndex] */\n      swap1\n      pop\n        /* \"contracts/GnosisUntitled.sol\":6990:7001  isConfirmed */\n      0x00\n        /* \"contracts/GnosisUntitled.sol\":6990:7011  isConfirmed[_txIndex] */\n      dup1\n        /* \"contracts/GnosisUntitled.sol\":7002:7010  _txIndex */\n      dup6\n        /* \"contracts/GnosisUntitled.sol\":6990:7011  isConfirmed[_txIndex] */\n      dup2\n      mstore\n      0x20\n      add\n      swap1\n      dup2\n      mstore\n      0x20\n      add\n      0x00\n      keccak256\n        /* \"contracts/GnosisUntitled.sol\":6990:7023  isConfirmed[_txIndex][msg.sender] */\n      0x00\n        /* \"contracts/GnosisUntitled.sol\":7012:7022  msg.sender */\n      caller\n        /* \"contracts/GnosisUntitled.sol\":6990:7023  isConfirmed[_txIndex][msg.sender] */\n      0xffffffffffffffffffffffffffffffffffffffff\n      and\n      0xffffffffffffffffffffffffffffffffffffffff\n      and\n      dup2\n      mstore\n      0x20\n      add\n      swap1\n      dup2\n      mstore\n      0x20\n      add\n      0x00\n      keccak256\n      0x00\n      swap1\n      sload\n      swap1\n      0x0100\n      exp\n      swap1\n      div\n      0xff\n      and\n        /* \"contracts/GnosisUntitled.sol\":6982:7044  require(isConfirmed[_txIndex][msg.sender], \"tx not confirmed\") */\n      tag_127\n      jumpi\n      mload(0x40)\n      0x08c379a000000000000000000000000000000000000000000000000000000000\n      dup2\n      mstore\n      0x04\n      add\n      tag_128\n      swap1\n      tag_129\n      jump\t// in\n    tag_128:\n      mload(0x40)\n      dup1\n      swap2\n      sub\n      swap1\n      revert\n    tag_127:\n        /* \"contracts/GnosisUntitled.sol\":7089:7090  1 */\n      0x01\n        /* \"contracts/GnosisUntitled.sol\":7057:7068  transaction */\n      dup2\n        /* \"contracts/GnosisUntitled.sol\":7057:7085  transaction.numConfirmations */\n      0x05\n      add\n      0x00\n        /* \"contracts/GnosisUntitled.sol\":7057:7090  transaction.numConfirmations -= 1 */\n      dup3\n      dup3\n      sload\n      tag_130\n      swap2\n      swap1\n      tag_131\n      jump\t// in\n    tag_130:\n      swap3\n      pop\n      pop\n      dup2\n      swap1\n      sstore\n      pop\n        /* \"contracts/GnosisUntitled.sol\":7137:7142  false */\n      0x00\n        /* \"contracts/GnosisUntitled.sol\":7101:7112  isConfirmed */\n      dup1\n        /* \"contracts/GnosisUntitled.sol\":7101:7122  isConfirmed[_txIndex] */\n      0x00\n        /* \"contracts/GnosisUntitled.sol\":7113:7121  _txIndex */\n      dup7\n        /* \"contracts/GnosisUntitled.sol\":7101:7122  isConfirmed[_txIndex] */\n      dup2\n      mstore\n      0x20\n      add\n      swap1\n      dup2\n      mstore\n      0x20\n      add\n      0x00\n      keccak256\n        /* \"contracts/GnosisUntitled.sol\":7101:7134  isConfirmed[_txIndex][msg.sender] */\n      0x00\n        /* \"contracts/GnosisUntitled.sol\":7123:7133  msg.sender */\n      caller\n        /* \"contracts/GnosisUntitled.sol\":7101:7134  isConfirmed[_txIndex][msg.sender] */\n      0xffffffffffffffffffffffffffffffffffffffff\n      and\n      0xffffffffffffffffffffffffffffffffffffffff\n      and\n      dup2\n      mstore\n      0x20\n      add\n      swap1\n      dup2\n      mstore\n      0x20\n      add\n      0x00\n      keccak256\n      0x00\n        /* \"contracts/GnosisUntitled.sol\":7101:7142  isConfirmed[_txIndex][msg.sender] = false */\n      0x0100\n      exp\n      dup2\n      sload\n      dup2\n      0xff\n      mul\n      not\n      and\n      swap1\n      dup4\n      iszero\n      iszero\n      mul\n      or\n      swap1\n      sstore\n      pop\n        /* \"contracts/GnosisUntitled.sol\":7191:7199  _txIndex */\n      dup4\n        /* \"contracts/GnosisUntitled.sol\":7179:7189  msg.sender */\n      caller\n        /* \"contracts/GnosisUntitled.sol\":7160:7200  RevokeConfirmation(msg.sender, _txIndex) */\n      0xffffffffffffffffffffffffffffffffffffffff\n      and\n      0xf0dca620e2e81f7841d07bcc105e1704fb01475b278a9d4c236e1c62945edd55\n      mload(0x40)\n      mload(0x40)\n      dup1\n      swap2\n      sub\n      swap1\n      log3\n        /* \"contracts/GnosisUntitled.sol\":6902:7208  {... */\n      pop\n        /* \"contracts/GnosisUntitled.sol\":1240:1241  _ */\n      pop\n        /* \"contracts/GnosisUntitled.sol\":1105:1106  _ */\n      pop\n        /* \"contracts/GnosisUntitled.sol\":6756:7208  function revokeConfirmation(uint256 _txIndex)... */\n      pop\n      jump\t// out\n        /* \"contracts/GnosisUntitled.sol\":7216:7322  function getTransactionCount() public view returns (uint256) {... */\n    tag_41:\n        /* \"contracts/GnosisUntitled.sol\":7268:7275  uint256 */\n      0x00\n        /* \"contracts/GnosisUntitled.sol\":7295:7307  transactions */\n      0x01\n        /* \"contracts/GnosisUntitled.sol\":7295:7314  transactions.length */\n      dup1\n      sload\n      swap1\n      pop\n        /* \"contracts/GnosisUntitled.sol\":7288:7314  return transactions.length */\n      swap1\n      pop\n        /* \"contracts/GnosisUntitled.sol\":7216:7322  function getTransactionCount() public view returns (uint256) {... */\n      swap1\n      jump\t// out\n        /* \"contracts/GnosisUntitled.sol\":7330:7864  function getTransaction(uint256 _txIndex)... */\n    tag_46:\n        /* \"contracts/GnosisUntitled.sol\":7434:7444  address to */\n      0x00\n        /* \"contracts/GnosisUntitled.sol\":7459:7472  uint256 value */\n      dup1\n        /* \"contracts/GnosisUntitled.sol\":7487:7504  bytes memory data */\n      0x60\n        /* \"contracts/GnosisUntitled.sol\":7519:7532  bool executed */\n      0x00\n        /* \"contracts/GnosisUntitled.sol\":7547:7571  uint256 numConfirmations */\n      dup1\n        /* \"contracts/GnosisUntitled.sol\":7599:7630  Transaction storage transaction */\n      0x00\n        /* \"contracts/GnosisUntitled.sol\":7633:7645  transactions */\n      0x01\n        /* \"contracts/GnosisUntitled.sol\":7646:7654  _txIndex */\n      dup8\n        /* \"contracts/GnosisUntitled.sol\":7633:7655  transactions[_txIndex] */\n      dup2\n      sload\n      dup2\n      lt\n      tag_134\n      jumpi\n      tag_135\n      tag_118\n      jump\t// in\n    tag_135:\n    tag_134:\n      swap1\n      0x00\n      mstore\n      keccak256(0x00, 0x20)\n      swap1\n      0x07\n      mul\n      add\n        /* \"contracts/GnosisUntitled.sol\":7599:7655  Transaction storage transaction = transactions[_txIndex] */\n      swap1\n      pop\n        /* \"contracts/GnosisUntitled.sol\":7690:7701  transaction */\n      dup1\n        /* \"contracts/GnosisUntitled.sol\":7690:7704  transaction.to */\n      0x01\n      add\n      0x00\n      swap1\n      sload\n      swap1\n      0x0100\n      exp\n      swap1\n      div\n      0xffffffffffffffffffffffffffffffffffffffff\n      and\n        /* \"contracts/GnosisUntitled.sol\":7719:7730  transaction */\n      dup2\n        /* \"contracts/GnosisUntitled.sol\":7719:7736  transaction.value */\n      0x02\n      add\n      sload\n        /* \"contracts/GnosisUntitled.sol\":7751:7762  transaction */\n      dup3\n        /* \"contracts/GnosisUntitled.sol\":7751:7767  transaction.data */\n      0x03\n      add\n        /* \"contracts/GnosisUntitled.sol\":7782:7793  transaction */\n      dup4\n        /* \"contracts/GnosisUntitled.sol\":7782:7802  transaction.executed */\n      0x04\n      add\n      0x00\n      swap1\n      sload\n      swap1\n      0x0100\n      exp\n      swap1\n      div\n      0xff\n      and\n        /* \"contracts/GnosisUntitled.sol\":7817:7828  transaction */\n      dup5\n        /* \"contracts/GnosisUntitled.sol\":7817:7845  transaction.numConfirmations */\n      0x05\n      add\n      sload\n        /* \"contracts/GnosisUntitled.sol\":7668:7856  return (... */\n      dup3\n      dup1\n      sload\n      tag_137\n      swap1\n      tag_138\n      jump\t// in\n    tag_137:\n      dup1\n      0x1f\n      add\n      0x20\n      dup1\n      swap2\n      div\n      mul\n      0x20\n      add\n      mload(0x40)\n      swap1\n      dup2\n      add\n      0x40\n      mstore\n      dup1\n      swap3\n      swap2\n      swap1\n      dup2\n      dup2\n      mstore\n      0x20\n      add\n      dup3\n      dup1\n      sload\n      tag_139\n      swap1\n      tag_138\n      jump\t// in\n    tag_139:\n      dup1\n      iszero\n      tag_140\n      jumpi\n      dup1\n      0x1f\n      lt\n      tag_141\n      jumpi\n      0x0100\n      dup1\n      dup4\n      sload\n      div\n      mul\n      dup4\n      mstore\n      swap2\n      0x20\n      add\n      swap2\n      jump(tag_140)\n    tag_141:\n      dup3\n      add\n      swap2\n      swap1\n      0x00\n      mstore\n      keccak256(0x00, 0x20)\n      swap1\n    tag_142:\n      dup2\n      sload\n      dup2\n      mstore\n      swap1\n      0x01\n      add\n      swap1\n      0x20\n      add\n      dup1\n      dup4\n      gt\n      tag_142\n      jumpi\n      dup3\n      swap1\n      sub\n      0x1f\n      and\n      dup3\n      add\n      swap2\n    tag_140:\n      pop\n      pop\n      pop\n      pop\n      pop\n      swap3\n      pop\n      swap6\n      pop\n      swap6\n      pop\n      swap6\n      pop\n      swap6\n      pop\n      swap6\n      pop\n      pop\n        /* \"contracts/GnosisUntitled.sol\":7330:7864  function getTransaction(uint256 _txIndex)... */\n      swap2\n      swap4\n      swap6\n      swap1\n      swap3\n      swap5\n      pop\n      jump\t// out\n        /* \"contracts/GnosisUntitled.sol\":2937:3445  function submitValueTransfer(address _to, uint256 _value)... */\n    tag_53:\n        /* \"contracts/GnosisUntitled.sol\":1046:1054  isSigner */\n      0x05\n        /* \"contracts/GnosisUntitled.sol\":1046:1066  isSigner[msg.sender] */\n      0x00\n        /* \"contracts/GnosisUntitled.sol\":1055:1065  msg.sender */\n      caller\n        /* \"contracts/GnosisUntitled.sol\":1046:1066  isSigner[msg.sender] */\n      0xffffffffffffffffffffffffffffffffffffffff\n      and\n      0xffffffffffffffffffffffffffffffffffffffff\n      and\n      dup2\n      mstore\n      0x20\n      add\n      swap1\n      dup2\n      mstore\n      0x20\n      add\n      0x00\n      keccak256\n      0x00\n      swap1\n      sload\n      swap1\n      0x0100\n      exp\n      swap1\n      div\n      0xff\n      and\n        /* \"contracts/GnosisUntitled.sol\":1038:1094  require(isSigner[msg.sender], \"only signer can execute\") */\n      tag_144\n      jumpi\n      mload(0x40)\n      0x08c379a000000000000000000000000000000000000000000000000000000000\n      dup2\n      mstore\n      0x04\n      add\n      tag_145\n      swap1\n      tag_99\n      jump\t// in\n    tag_145:\n      mload(0x40)\n      dup1\n      swap2\n      sub\n      swap1\n      revert\n    tag_144:\n        /* \"contracts/GnosisUntitled.sol\":3072:3073  0 */\n      0x00\n        /* \"contracts/GnosisUntitled.sol\":3057:3074  _to != address(0) */\n      0xffffffffffffffffffffffffffffffffffffffff\n      and\n        /* \"contracts/GnosisUntitled.sol\":3057:3060  _to */\n      dup3\n        /* \"contracts/GnosisUntitled.sol\":3057:3074  _to != address(0) */\n      0xffffffffffffffffffffffffffffffffffffffff\n      and\n      sub\n        /* \"contracts/GnosisUntitled.sol\":3049:3101  require(_to != address(0), \"cannot send to nowhere\") */\n      tag_147\n      jumpi\n      mload(0x40)\n      0x08c379a000000000000000000000000000000000000000000000000000000000\n      dup2\n      mstore\n      0x04\n      add\n      tag_148\n      swap1\n      tag_149\n      jump\t// in\n    tag_148:\n      mload(0x40)\n      dup1\n      swap2\n      sub\n      swap1\n      revert\n    tag_147:\n        /* \"contracts/GnosisUntitled.sol\":3130:3131  0 */\n      0x00\n        /* \"contracts/GnosisUntitled.sol\":3120:3126  _value */\n      dup2\n        /* \"contracts/GnosisUntitled.sol\":3120:3131  _value != 0 */\n      sub\n        /* \"contracts/GnosisUntitled.sol\":3112:3156  require(_value != 0, \"cannot send empty tx\") */\n      tag_150\n      jumpi\n      mload(0x40)\n      0x08c379a000000000000000000000000000000000000000000000000000000000\n      dup2\n      mstore\n      0x04\n      add\n      tag_151\n      swap1\n      tag_152\n      jump\t// in\n    tag_151:\n      mload(0x40)\n      dup1\n      swap2\n      sub\n      swap1\n      revert\n    tag_150:\n        /* \"contracts/GnosisUntitled.sol\":3214:3220  _value */\n      dup1\n        /* \"contracts/GnosisUntitled.sol\":3189:3210  address(this).balance */\n      selfbalance\n        /* \"contracts/GnosisUntitled.sol\":3189:3220  address(this).balance >= _value */\n      lt\n      iszero\n        /* \"contracts/GnosisUntitled.sol\":3167:3289  require(... */\n      tag_153\n      jumpi\n      mload(0x40)\n      0x08c379a000000000000000000000000000000000000000000000000000000000\n      dup2\n      mstore\n      0x04\n      add\n      tag_154\n      swap1\n      tag_155\n      jump\t// in\n    tag_154:\n      mload(0x40)\n      dup1\n      swap2\n      sub\n      swap1\n      revert\n    tag_153:\n        /* \"contracts/GnosisUntitled.sol\":3300:3437  submitTx(... */\n      tag_156\n        /* \"contracts/GnosisUntitled.sol\":3323:3326  _to */\n      dup3\n        /* \"contracts/GnosisUntitled.sol\":3341:3347  _value */\n      dup3\n        /* \"contracts/GnosisUntitled.sol\":3387:3388  0 */\n      0x00\n        /* \"contracts/GnosisUntitled.sol\":3362:3390  abi.encodePacked(uint256(0)) */\n      add(0x20, mload(0x40))\n      tag_157\n      swap2\n      swap1\n      tag_106\n      jump\t// in\n    tag_157:\n      mload(0x40)\n      0x20\n      dup2\n      dup4\n      sub\n      sub\n      dup2\n      mstore\n      swap1\n      0x40\n      mstore\n        /* \"contracts/GnosisUntitled.sol\":3405:3426  TxType.VALUE_TRANSFER */\n      0x00\n        /* \"contracts/GnosisUntitled.sol\":3300:3308  submitTx */\n      tag_107\n        /* \"contracts/GnosisUntitled.sol\":3300:3437  submitTx(... */\n      jump\t// in\n    tag_156:\n        /* \"contracts/GnosisUntitled.sol\":2937:3445  function submitValueTransfer(address _to, uint256 _value)... */\n      pop\n      pop\n      jump\t// out\n        /* \"contracts/GnosisUntitled.sol\":3781:4073  function submitNewSigner(address _newSigner) public onlySigner {... */\n    tag_58:\n        /* \"contracts/GnosisUntitled.sol\":1046:1054  isSigner */\n      0x05\n        /* \"contracts/GnosisUntitled.sol\":1046:1066  isSigner[msg.sender] */\n      0x00\n        /* \"contracts/GnosisUntitled.sol\":1055:1065  msg.sender */\n      caller\n        /* \"contracts/GnosisUntitled.sol\":1046:1066  isSigner[msg.sender] */\n      0xffffffffffffffffffffffffffffffffffffffff\n      and\n      0xffffffffffffffffffffffffffffffffffffffff\n      and\n      dup2\n      mstore\n      0x20\n      add\n      swap1\n      dup2\n      mstore\n      0x20\n      add\n      0x00\n      keccak256\n      0x00\n      swap1\n      sload\n      swap1\n      0x0100\n      exp\n      swap1\n      div\n      0xff\n      and\n        /* \"contracts/GnosisUntitled.sol\":1038:1094  require(isSigner[msg.sender], \"only signer can execute\") */\n      tag_159\n      jumpi\n      mload(0x40)\n      0x08c379a000000000000000000000000000000000000000000000000000000000\n      dup2\n      mstore\n      0x04\n      add\n      tag_160\n      swap1\n      tag_99\n      jump\t// in\n    tag_160:\n      mload(0x40)\n      dup1\n      swap2\n      sub\n      swap1\n      revert\n    tag_159:\n        /* \"contracts/GnosisUntitled.sol\":3885:3886  0 */\n      0x00\n        /* \"contracts/GnosisUntitled.sol\":3863:3887  _newSigner != address(0) */\n      0xffffffffffffffffffffffffffffffffffffffff\n      and\n        /* \"contracts/GnosisUntitled.sol\":3863:3873  _newSigner */\n      dup2\n        /* \"contracts/GnosisUntitled.sol\":3863:3887  _newSigner != address(0) */\n      0xffffffffffffffffffffffffffffffffffffffff\n      and\n      sub\n        /* \"contracts/GnosisUntitled.sol\":3855:3919  require(_newSigner != address(0), \"Signer cannot be address(0)\") */\n      tag_162\n      jumpi\n      mload(0x40)\n      0x08c379a000000000000000000000000000000000000000000000000000000000\n      dup2\n      mstore\n      0x04\n      add\n      tag_163\n      swap1\n      tag_164\n      jump\t// in\n    tag_163:\n      mload(0x40)\n      dup1\n      swap2\n      sub\n      swap1\n      revert\n    tag_162:\n        /* \"contracts/GnosisUntitled.sol\":3930:4065  submitTx(... */\n      tag_165\n        /* \"contracts/GnosisUntitled.sol\":3953:3963  _newSigner */\n      dup2\n        /* \"contracts/GnosisUntitled.sol\":3978:3979  0 */\n      0x00\n        /* \"contracts/GnosisUntitled.sol\":4019:4020  0 */\n      dup1\n        /* \"contracts/GnosisUntitled.sol\":3994:4022  abi.encodePacked(uint256(0)) */\n      add(0x20, mload(0x40))\n      tag_166\n      swap2\n      swap1\n      tag_106\n      jump\t// in\n    tag_166:\n      mload(0x40)\n      0x20\n      dup2\n      dup4\n      sub\n      sub\n      dup2\n      mstore\n      swap1\n      0x40\n      mstore\n        /* \"contracts/GnosisUntitled.sol\":4037:4054  TxType.ADD_SIGNER */\n      0x02\n        /* \"contracts/GnosisUntitled.sol\":3930:3938  submitTx */\n      tag_107\n        /* \"contracts/GnosisUntitled.sol\":3930:4065  submitTx(... */\n      jump\t// in\n    tag_165:\n        /* \"contracts/GnosisUntitled.sol\":3781:4073  function submitNewSigner(address _newSigner) public onlySigner {... */\n      pop\n      jump\t// out\n        /* \"contracts/GnosisUntitled.sol\":1707:1733  uint256 public signerCount */\n    tag_61:\n      sload(0x02)\n      dup2\n      jump\t// out\n        /* \"contracts/GnosisUntitled.sol\":2273:2313  mapping(address => bool) public isSigner */\n    tag_66:\n      mstore(0x20, 0x05)\n      dup1\n      0x00\n      mstore\n      keccak256(0x00, 0x40)\n      0x00\n      swap2\n      pop\n      sload\n      swap1\n      0x0100\n      exp\n      swap1\n      div\n      0xff\n      and\n      dup2\n      jump\t// out\n        /* \"contracts/GnosisUntitled.sol\":1592:1655  mapping(uint256 => mapping(address => bool)) public isConfirmed */\n    tag_73:\n      mstore(0x20, 0x00)\n      dup2\n      0x00\n      mstore\n      mstore(0x20, keccak256(0x00, 0x40))\n      dup1\n      0x00\n      mstore\n      keccak256(0x00, 0x40)\n      0x00\n      swap2\n      pop\n      swap2\n      pop\n      swap1\n      sload\n      swap1\n      0x0100\n      exp\n      swap1\n      div\n      0xff\n      and\n      dup2\n      jump\t// out\n        /* \"contracts/GnosisUntitled.sol\":3453:3773  function submitSendBytecode(... */\n    tag_79:\n        /* \"contracts/GnosisUntitled.sol\":1046:1054  isSigner */\n      0x05\n        /* \"contracts/GnosisUntitled.sol\":1046:1066  isSigner[msg.sender] */\n      0x00\n        /* \"contracts/GnosisUntitled.sol\":1055:1065  msg.sender */\n      caller\n        /* \"contracts/GnosisUntitled.sol\":1046:1066  isSigner[msg.sender] */\n      0xffffffffffffffffffffffffffffffffffffffff\n      and\n      0xffffffffffffffffffffffffffffffffffffffff\n      and\n      dup2\n      mstore\n      0x20\n      add\n      swap1\n      dup2\n      mstore\n      0x20\n      add\n      0x00\n      keccak256\n      0x00\n      swap1\n      sload\n      swap1\n      0x0100\n      exp\n      swap1\n      div\n      0xff\n      and\n        /* \"contracts/GnosisUntitled.sol\":1038:1094  require(isSigner[msg.sender], \"only signer can execute\") */\n      tag_168\n      jumpi\n      mload(0x40)\n      0x08c379a000000000000000000000000000000000000000000000000000000000\n      dup2\n      mstore\n      0x04\n      add\n      tag_169\n      swap1\n      tag_99\n      jump\t// in\n    tag_169:\n      mload(0x40)\n      dup1\n      swap2\n      sub\n      swap1\n      revert\n    tag_168:\n        /* \"contracts/GnosisUntitled.sol\":3616:3617  0 */\n      0x00\n        /* \"contracts/GnosisUntitled.sol\":3601:3618  _to != address(0) */\n      0xffffffffffffffffffffffffffffffffffffffff\n      and\n        /* \"contracts/GnosisUntitled.sol\":3601:3604  _to */\n      dup4\n        /* \"contracts/GnosisUntitled.sol\":3601:3618  _to != address(0) */\n      0xffffffffffffffffffffffffffffffffffffffff\n      and\n      sub\n        /* \"contracts/GnosisUntitled.sol\":3593:3645  require(_to != address(0), \"cannot send to nowhere\") */\n      tag_171\n      jumpi\n      mload(0x40)\n      0x08c379a000000000000000000000000000000000000000000000000000000000\n      dup2\n      mstore\n      0x04\n      add\n      tag_172\n      swap1\n      tag_149\n      jump\t// in\n    tag_172:\n      mload(0x40)\n      dup1\n      swap2\n      sub\n      swap1\n      revert\n    tag_171:\n        /* \"contracts/GnosisUntitled.sol\":3679:3680  0 */\n      0x00\n        /* \"contracts/GnosisUntitled.sol\":3664:3669  _data */\n      dup2\n        /* \"contracts/GnosisUntitled.sol\":3664:3676  _data.length */\n      mload\n        /* \"contracts/GnosisUntitled.sol\":3664:3680  _data.length > 0 */\n      gt\n        /* \"contracts/GnosisUntitled.sol\":3656:3704  require(_data.length > 0, \"cannot send null tx\") */\n      tag_173\n      jumpi\n      mload(0x40)\n      0x08c379a000000000000000000000000000000000000000000000000000000000\n      dup2\n      mstore\n      0x04\n      add\n      tag_174\n      swap1\n      tag_175\n      jump\t// in\n    tag_174:\n      mload(0x40)\n      dup1\n      swap2\n      sub\n      swap1\n      revert\n    tag_173:\n        /* \"contracts/GnosisUntitled.sol\":3715:3765  submitTx(_to, _value, _data, TxType.SEND_BYTECODE) */\n      tag_176\n        /* \"contracts/GnosisUntitled.sol\":3724:3727  _to */\n      dup4\n        /* \"contracts/GnosisUntitled.sol\":3729:3735  _value */\n      dup4\n        /* \"contracts/GnosisUntitled.sol\":3737:3742  _data */\n      dup4\n        /* \"contracts/GnosisUntitled.sol\":3744:3764  TxType.SEND_BYTECODE */\n      0x01\n        /* \"contracts/GnosisUntitled.sol\":3715:3723  submitTx */\n      tag_107\n        /* \"contracts/GnosisUntitled.sol\":3715:3765  submitTx(_to, _value, _data, TxType.SEND_BYTECODE) */\n      jump\t// in\n    tag_176:\n        /* \"contracts/GnosisUntitled.sol\":3453:3773  function submitSendBytecode(... */\n      pop\n      pop\n      pop\n      jump\t// out\n        /* \"contracts/GnosisUntitled.sol\":1976:2000  uint256 public nonce = 1 */\n    tag_82:\n      sload(0x03)\n      dup2\n      jump\t// out\n        /* \"contracts/GnosisUntitled.sol\":5311:5717  function confirmTransaction(uint256 _txIndex)... */\n    tag_87:\n        /* \"contracts/GnosisUntitled.sol\":1046:1054  isSigner */\n      0x05\n        /* \"contracts/GnosisUntitled.sol\":1046:1066  isSigner[msg.sender] */\n      0x00\n        /* \"contracts/GnosisUntitled.sol\":1055:1065  msg.sender */\n      caller\n        /* \"contracts/GnosisUntitled.sol\":1046:1066  isSigner[msg.sender] */\n      0xffffffffffffffffffffffffffffffffffffffff\n      and\n      0xffffffffffffffffffffffffffffffffffffffff\n      and\n      dup2\n      mstore\n      0x20\n      add\n      swap1\n      dup2\n      mstore\n      0x20\n      add\n      0x00\n      keccak256\n      0x00\n      swap1\n      sload\n      swap1\n      0x0100\n      exp\n      swap1\n      div\n      0xff\n      and\n        /* \"contracts/GnosisUntitled.sol\":1038:1094  require(isSigner[msg.sender], \"only signer can execute\") */\n      tag_178\n      jumpi\n      mload(0x40)\n      0x08c379a000000000000000000000000000000000000000000000000000000000\n      dup2\n      mstore\n      0x04\n      add\n      tag_179\n      swap1\n      tag_99\n      jump\t// in\n    tag_179:\n      mload(0x40)\n      dup1\n      swap2\n      sub\n      swap1\n      revert\n    tag_178:\n        /* \"contracts/GnosisUntitled.sol\":5411:5419  _txIndex */\n      dup1\n        /* \"contracts/GnosisUntitled.sol\":1188:1200  transactions */\n      0x01\n        /* \"contracts/GnosisUntitled.sol\":1188:1207  transactions.length */\n      dup1\n      sload\n      swap1\n      pop\n        /* \"contracts/GnosisUntitled.sol\":1177:1185  _txIndex */\n      dup2\n        /* \"contracts/GnosisUntitled.sol\":1177:1207  _txIndex < transactions.length */\n      lt\n        /* \"contracts/GnosisUntitled.sol\":1169:1229  require(_txIndex < transactions.length, \"tx does not exist\") */\n      tag_181\n      jumpi\n      mload(0x40)\n      0x08c379a000000000000000000000000000000000000000000000000000000000\n      dup2\n      mstore\n      0x04\n      add\n      tag_182\n      swap1\n      tag_114\n      jump\t// in\n    tag_182:\n      mload(0x40)\n      dup1\n      swap2\n      sub\n      swap1\n      revert\n    tag_181:\n        /* \"contracts/GnosisUntitled.sol\":5442:5450  _txIndex */\n      dup2\n        /* \"contracts/GnosisUntitled.sol\":1316:1328  transactions */\n      0x01\n        /* \"contracts/GnosisUntitled.sol\":1329:1337  _txIndex */\n      dup2\n        /* \"contracts/GnosisUntitled.sol\":1316:1338  transactions[_txIndex] */\n      dup2\n      sload\n      dup2\n      lt\n      tag_184\n      jumpi\n      tag_185\n      tag_118\n      jump\t// in\n    tag_185:\n    tag_184:\n      swap1\n      0x00\n      mstore\n      keccak256(0x00, 0x20)\n      swap1\n      0x07\n      mul\n      add\n        /* \"contracts/GnosisUntitled.sol\":1316:1347  transactions[_txIndex].executed */\n      0x04\n      add\n      0x00\n      swap1\n      sload\n      swap1\n      0x0100\n      exp\n      swap1\n      div\n      0xff\n      and\n        /* \"contracts/GnosisUntitled.sol\":1315:1347  !transactions[_txIndex].executed */\n      iszero\n        /* \"contracts/GnosisUntitled.sol\":1307:1371  require(!transactions[_txIndex].executed, \"tx already executed\") */\n      tag_187\n      jumpi\n      mload(0x40)\n      0x08c379a000000000000000000000000000000000000000000000000000000000\n      dup2\n      mstore\n      0x04\n      add\n      tag_188\n      swap1\n      tag_122\n      jump\t// in\n    tag_188:\n      mload(0x40)\n      dup1\n      swap2\n      sub\n      swap1\n      revert\n    tag_187:\n        /* \"contracts/GnosisUntitled.sol\":5474:5482  _txIndex */\n      dup3\n        /* \"contracts/GnosisUntitled.sol\":1459:1470  isConfirmed */\n      0x00\n        /* \"contracts/GnosisUntitled.sol\":1459:1480  isConfirmed[_txIndex] */\n      dup1\n        /* \"contracts/GnosisUntitled.sol\":1471:1479  _txIndex */\n      dup3\n        /* \"contracts/GnosisUntitled.sol\":1459:1480  isConfirmed[_txIndex] */\n      dup2\n      mstore\n      0x20\n      add\n      swap1\n      dup2\n      mstore\n      0x20\n      add\n      0x00\n      keccak256\n        /* \"contracts/GnosisUntitled.sol\":1459:1492  isConfirmed[_txIndex][msg.sender] */\n      0x00\n        /* \"contracts/GnosisUntitled.sol\":1481:1491  msg.sender */\n      caller\n        /* \"contracts/GnosisUntitled.sol\":1459:1492  isConfirmed[_txIndex][msg.sender] */\n      0xffffffffffffffffffffffffffffffffffffffff\n      and\n      0xffffffffffffffffffffffffffffffffffffffff\n      and\n      dup2\n      mstore\n      0x20\n      add\n      swap1\n      dup2\n      mstore\n      0x20\n      add\n      0x00\n      keccak256\n      0x00\n      swap1\n      sload\n      swap1\n      0x0100\n      exp\n      swap1\n      div\n      0xff\n      and\n        /* \"contracts/GnosisUntitled.sol\":1458:1492  !isConfirmed[_txIndex][msg.sender] */\n      iszero\n        /* \"contracts/GnosisUntitled.sol\":1450:1517  require(!isConfirmed[_txIndex][msg.sender], \"tx already confirmed\") */\n      tag_190\n      jumpi\n      mload(0x40)\n      0x08c379a000000000000000000000000000000000000000000000000000000000\n      dup2\n      mstore\n      0x04\n      add\n      tag_191\n      swap1\n      tag_192\n      jump\t// in\n    tag_191:\n      mload(0x40)\n      dup1\n      swap2\n      sub\n      swap1\n      revert\n    tag_190:\n        /* \"contracts/GnosisUntitled.sol\":5500:5531  Transaction storage transaction */\n      0x00\n        /* \"contracts/GnosisUntitled.sol\":5534:5546  transactions */\n      0x01\n        /* \"contracts/GnosisUntitled.sol\":5547:5555  _txIndex */\n      dup6\n        /* \"contracts/GnosisUntitled.sol\":5534:5556  transactions[_txIndex] */\n      dup2\n      sload\n      dup2\n      lt\n      tag_194\n      jumpi\n      tag_195\n      tag_118\n      jump\t// in\n    tag_195:\n    tag_194:\n      swap1\n      0x00\n      mstore\n      keccak256(0x00, 0x20)\n      swap1\n      0x07\n      mul\n      add\n        /* \"contracts/GnosisUntitled.sol\":5500:5556  Transaction storage transaction = transactions[_txIndex] */\n      swap1\n      pop\n        /* \"contracts/GnosisUntitled.sol\":5599:5600  1 */\n      0x01\n        /* \"contracts/GnosisUntitled.sol\":5567:5578  transaction */\n      dup2\n        /* \"contracts/GnosisUntitled.sol\":5567:5595  transaction.numConfirmations */\n      0x05\n      add\n      0x00\n        /* \"contracts/GnosisUntitled.sol\":5567:5600  transaction.numConfirmations += 1 */\n      dup3\n      dup3\n      sload\n      tag_197\n      swap2\n      swap1\n      tag_198\n      jump\t// in\n    tag_197:\n      swap3\n      pop\n      pop\n      dup2\n      swap1\n      sstore\n      pop\n        /* \"contracts/GnosisUntitled.sol\":5647:5651  true */\n      0x01\n        /* \"contracts/GnosisUntitled.sol\":5611:5622  isConfirmed */\n      0x00\n        /* \"contracts/GnosisUntitled.sol\":5611:5632  isConfirmed[_txIndex] */\n      dup1\n        /* \"contracts/GnosisUntitled.sol\":5623:5631  _txIndex */\n      dup8\n        /* \"contracts/GnosisUntitled.sol\":5611:5632  isConfirmed[_txIndex] */\n      dup2\n      mstore\n      0x20\n      add\n      swap1\n      dup2\n      mstore\n      0x20\n      add\n      0x00\n      keccak256\n        /* \"contracts/GnosisUntitled.sol\":5611:5644  isConfirmed[_txIndex][msg.sender] */\n      0x00\n        /* \"contracts/GnosisUntitled.sol\":5633:5643  msg.sender */\n      caller\n        /* \"contracts/GnosisUntitled.sol\":5611:5644  isConfirmed[_txIndex][msg.sender] */\n      0xffffffffffffffffffffffffffffffffffffffff\n      and\n      0xffffffffffffffffffffffffffffffffffffffff\n      and\n      dup2\n      mstore\n      0x20\n      add\n      swap1\n      dup2\n      mstore\n      0x20\n      add\n      0x00\n      keccak256\n      0x00\n        /* \"contracts/GnosisUntitled.sol\":5611:5651  isConfirmed[_txIndex][msg.sender] = true */\n      0x0100\n      exp\n      dup2\n      sload\n      dup2\n      0xff\n      mul\n      not\n      and\n      swap1\n      dup4\n      iszero\n      iszero\n      mul\n      or\n      swap1\n      sstore\n      pop\n        /* \"contracts/GnosisUntitled.sol\":5700:5708  _txIndex */\n      dup5\n        /* \"contracts/GnosisUntitled.sol\":5688:5698  msg.sender */\n      caller\n        /* \"contracts/GnosisUntitled.sol\":5669:5709  ConfirmTransaction(msg.sender, _txIndex) */\n      0xffffffffffffffffffffffffffffffffffffffff\n      and\n      0x5cbe105e36805f7820e291f799d5794ff948af2a5f664e580382defb63390041\n      mload(0x40)\n      mload(0x40)\n      dup1\n      swap2\n      sub\n      swap1\n      log3\n        /* \"contracts/GnosisUntitled.sol\":5489:5717  {... */\n      pop\n        /* \"contracts/GnosisUntitled.sol\":1382:1383  _ */\n      pop\n        /* \"contracts/GnosisUntitled.sol\":1240:1241  _ */\n      pop\n        /* \"contracts/GnosisUntitled.sol\":1105:1106  _ */\n      pop\n        /* \"contracts/GnosisUntitled.sol\":5311:5717  function confirmTransaction(uint256 _txIndex)... */\n      pop\n      jump\t// out\n        /* \"contracts/GnosisUntitled.sol\":4081:4379  function submitRemoveSigner(address _newSigner) public onlySigner {... */\n    tag_91:\n        /* \"contracts/GnosisUntitled.sol\":1046:1054  isSigner */\n      0x05\n        /* \"contracts/GnosisUntitled.sol\":1046:1066  isSigner[msg.sender] */\n      0x00\n        /* \"contracts/GnosisUntitled.sol\":1055:1065  msg.sender */\n      caller\n        /* \"contracts/GnosisUntitled.sol\":1046:1066  isSigner[msg.sender] */\n      0xffffffffffffffffffffffffffffffffffffffff\n      and\n      0xffffffffffffffffffffffffffffffffffffffff\n      and\n      dup2\n      mstore\n      0x20\n      add\n      swap1\n      dup2\n      mstore\n      0x20\n      add\n      0x00\n      keccak256\n      0x00\n      swap1\n      sload\n      swap1\n      0x0100\n      exp\n      swap1\n      div\n      0xff\n      and\n        /* \"contracts/GnosisUntitled.sol\":1038:1094  require(isSigner[msg.sender], \"only signer can execute\") */\n      tag_200\n      jumpi\n      mload(0x40)\n      0x08c379a000000000000000000000000000000000000000000000000000000000\n      dup2\n      mstore\n      0x04\n      add\n      tag_201\n      swap1\n      tag_99\n      jump\t// in\n    tag_201:\n      mload(0x40)\n      dup1\n      swap2\n      sub\n      swap1\n      revert\n    tag_200:\n        /* \"contracts/GnosisUntitled.sol\":4188:4189  0 */\n      0x00\n        /* \"contracts/GnosisUntitled.sol\":4166:4190  _newSigner != address(0) */\n      0xffffffffffffffffffffffffffffffffffffffff\n      and\n        /* \"contracts/GnosisUntitled.sol\":4166:4176  _newSigner */\n      dup2\n        /* \"contracts/GnosisUntitled.sol\":4166:4190  _newSigner != address(0) */\n      0xffffffffffffffffffffffffffffffffffffffff\n      and\n      sub\n        /* \"contracts/GnosisUntitled.sol\":4158:4222  require(_newSigner != address(0), \"Signer cannot be address(0)\") */\n      tag_203\n      jumpi\n      mload(0x40)\n      0x08c379a000000000000000000000000000000000000000000000000000000000\n      dup2\n      mstore\n      0x04\n      add\n      tag_204\n      swap1\n      tag_164\n      jump\t// in\n    tag_204:\n      mload(0x40)\n      dup1\n      swap2\n      sub\n      swap1\n      revert\n    tag_203:\n        /* \"contracts/GnosisUntitled.sol\":4233:4371  submitTx(... */\n      tag_205\n        /* \"contracts/GnosisUntitled.sol\":4256:4266  _newSigner */\n      dup2\n        /* \"contracts/GnosisUntitled.sol\":4281:4282  0 */\n      0x00\n        /* \"contracts/GnosisUntitled.sol\":4322:4323  0 */\n      dup1\n        /* \"contracts/GnosisUntitled.sol\":4297:4325  abi.encodePacked(uint256(0)) */\n      add(0x20, mload(0x40))\n      tag_206\n      swap2\n      swap1\n      tag_106\n      jump\t// in\n    tag_206:\n      mload(0x40)\n      0x20\n      dup2\n      dup4\n      sub\n      sub\n      dup2\n      mstore\n      swap1\n      0x40\n      mstore\n        /* \"contracts/GnosisUntitled.sol\":4340:4360  TxType.REMOVE_SIGNER */\n      0x03\n        /* \"contracts/GnosisUntitled.sol\":4233:4241  submitTx */\n      tag_107\n        /* \"contracts/GnosisUntitled.sol\":4233:4371  submitTx(... */\n      jump\t// in\n    tag_205:\n        /* \"contracts/GnosisUntitled.sol\":4081:4379  function submitRemoveSigner(address _newSigner) public onlySigner {... */\n      pop\n      jump\t// out\n        /* \"contracts/GnosisUntitled.sol\":5725:6748  function executeTransaction(uint256 _txIndex)... */\n    tag_95:\n        /* \"contracts/GnosisUntitled.sol\":1046:1054  isSigner */\n      0x05\n        /* \"contracts/GnosisUntitled.sol\":1046:1066  isSigner[msg.sender] */\n      0x00\n        /* \"contracts/GnosisUntitled.sol\":1055:1065  msg.sender */\n      caller\n        /* \"contracts/GnosisUntitled.sol\":1046:1066  isSigner[msg.sender] */\n      0xffffffffffffffffffffffffffffffffffffffff\n      and\n      0xffffffffffffffffffffffffffffffffffffffff\n      and\n      dup2\n      mstore\n      0x20\n      add\n      swap1\n      dup2\n      mstore\n      0x20\n      add\n      0x00\n      keccak256\n      0x00\n      swap1\n      sload\n      swap1\n      0x0100\n      exp\n      swap1\n      div\n      0xff\n      and\n        /* \"contracts/GnosisUntitled.sol\":1038:1094  require(isSigner[msg.sender], \"only signer can execute\") */\n      tag_208\n      jumpi\n      mload(0x40)\n      0x08c379a000000000000000000000000000000000000000000000000000000000\n      dup2\n      mstore\n      0x04\n      add\n      tag_209\n      swap1\n      tag_99\n      jump\t// in\n    tag_209:\n      mload(0x40)\n      dup1\n      swap2\n      sub\n      swap1\n      revert\n    tag_208:\n        /* \"contracts/GnosisUntitled.sol\":5825:5833  _txIndex */\n      dup1\n        /* \"contracts/GnosisUntitled.sol\":1188:1200  transactions */\n      0x01\n        /* \"contracts/GnosisUntitled.sol\":1188:1207  transactions.length */\n      dup1\n      sload\n      swap1\n      pop\n        /* \"contracts/GnosisUntitled.sol\":1177:1185  _txIndex */\n      dup2\n        /* \"contracts/GnosisUntitled.sol\":1177:1207  _txIndex < transactions.length */\n      lt\n        /* \"contracts/GnosisUntitled.sol\":1169:1229  require(_txIndex < transactions.length, \"tx does not exist\") */\n      tag_211\n      jumpi\n      mload(0x40)\n      0x08c379a000000000000000000000000000000000000000000000000000000000\n      dup2\n      mstore\n      0x04\n      add\n      tag_212\n      swap1\n      tag_114\n      jump\t// in\n    tag_212:\n      mload(0x40)\n      dup1\n      swap2\n      sub\n      swap1\n      revert\n    tag_211:\n        /* \"contracts/GnosisUntitled.sol\":5856:5864  _txIndex */\n      dup2\n        /* \"contracts/GnosisUntitled.sol\":1316:1328  transactions */\n      0x01\n        /* \"contracts/GnosisUntitled.sol\":1329:1337  _txIndex */\n      dup2\n        /* \"contracts/GnosisUntitled.sol\":1316:1338  transactions[_txIndex] */\n      dup2\n      sload\n      dup2\n      lt\n      tag_214\n      jumpi\n      tag_215\n      tag_118\n      jump\t// in\n    tag_215:\n    tag_214:\n      swap1\n      0x00\n      mstore\n      keccak256(0x00, 0x20)\n      swap1\n      0x07\n      mul\n      add\n        /* \"contracts/GnosisUntitled.sol\":1316:1347  transactions[_txIndex].executed */\n      0x04\n      add\n      0x00\n      swap1\n      sload\n      swap1\n      0x0100\n      exp\n      swap1\n      div\n      0xff\n      and\n        /* \"contracts/GnosisUntitled.sol\":1315:1347  !transactions[_txIndex].executed */\n      iszero\n        /* \"contracts/GnosisUntitled.sol\":1307:1371  require(!transactions[_txIndex].executed, \"tx already executed\") */\n      tag_217\n      jumpi\n      mload(0x40)\n      0x08c379a000000000000000000000000000000000000000000000000000000000\n      dup2\n      mstore\n      0x04\n      add\n      tag_218\n      swap1\n      tag_122\n      jump\t// in\n    tag_218:\n      mload(0x40)\n      dup1\n      swap2\n      sub\n      swap1\n      revert\n    tag_217:\n        /* \"contracts/GnosisUntitled.sol\":5882:5913  Transaction storage transaction */\n      0x00\n        /* \"contracts/GnosisUntitled.sol\":5916:5928  transactions */\n      0x01\n        /* \"contracts/GnosisUntitled.sol\":5929:5937  _txIndex */\n      dup5\n        /* \"contracts/GnosisUntitled.sol\":5916:5938  transactions[_txIndex] */\n      dup2\n      sload\n      dup2\n      lt\n      tag_220\n      jumpi\n      tag_221\n      tag_118\n      jump\t// in\n    tag_221:\n    tag_220:\n      swap1\n      0x00\n      mstore\n      keccak256(0x00, 0x20)\n      swap1\n      0x07\n      mul\n      add\n        /* \"contracts/GnosisUntitled.sol\":5882:5938  Transaction storage transaction = transactions[_txIndex] */\n      swap1\n      pop\n        /* \"contracts/GnosisUntitled.sol\":5991:5997  quorum */\n      sload(0x04)\n        /* \"contracts/GnosisUntitled.sol\":5959:5970  transaction */\n      dup2\n        /* \"contracts/GnosisUntitled.sol\":5959:5987  transaction.numConfirmations */\n      0x05\n      add\n      sload\n        /* \"contracts/GnosisUntitled.sol\":5959:5997  transaction.numConfirmations >= quorum */\n      lt\n      iszero\n        /* \"contracts/GnosisUntitled.sol\":5951:6019  require(transaction.numConfirmations >= quorum, \"cannot execute tx\") */\n      tag_223\n      jumpi\n      mload(0x40)\n      0x08c379a000000000000000000000000000000000000000000000000000000000\n      dup2\n      mstore\n      0x04\n      add\n      tag_224\n      swap1\n      tag_225\n      jump\t// in\n    tag_224:\n      mload(0x40)\n      dup1\n      swap2\n      sub\n      swap1\n      revert\n    tag_223:\n        /* \"contracts/GnosisUntitled.sol\":6055:6059  true */\n      0x01\n        /* \"contracts/GnosisUntitled.sol\":6032:6043  transaction */\n      dup2\n        /* \"contracts/GnosisUntitled.sol\":6032:6052  transaction.executed */\n      0x04\n      add\n      0x00\n        /* \"contracts/GnosisUntitled.sol\":6032:6059  transaction.executed = true */\n      0x0100\n      exp\n      dup2\n      sload\n      dup2\n      0xff\n      mul\n      not\n      and\n      swap1\n      dup4\n      iszero\n      iszero\n      mul\n      or\n      swap1\n      sstore\n      pop\n        /* \"contracts/GnosisUntitled.sol\":6106:6114  _txIndex */\n      dup4\n        /* \"contracts/GnosisUntitled.sol\":6094:6104  msg.sender */\n      caller\n        /* \"contracts/GnosisUntitled.sol\":6075:6115  ExecuteTransaction(msg.sender, _txIndex) */\n      0xffffffffffffffffffffffffffffffffffffffff\n      and\n      0x5445f318f4f5fcfb66592e68e0cc5822aa15664039bd5f0ffde24c5a8142b1ac\n      mload(0x40)\n      mload(0x40)\n      dup1\n      swap2\n      sub\n      swap1\n      log3\n        /* \"contracts/GnosisUntitled.sol\":6154:6171  TxType.ADD_SIGNER */\n      0x02\n        /* \"contracts/GnosisUntitled.sol\":6132:6171  transaction.txType == TxType.ADD_SIGNER */\n      0x04\n      dup2\n      gt\n      iszero\n      tag_226\n      jumpi\n      tag_227\n      tag_228\n      jump\t// in\n    tag_227:\n    tag_226:\n        /* \"contracts/GnosisUntitled.sol\":6132:6143  transaction */\n      dup2\n        /* \"contracts/GnosisUntitled.sol\":6132:6150  transaction.txType */\n      0x06\n      add\n      0x00\n      swap1\n      sload\n      swap1\n      0x0100\n      exp\n      swap1\n      div\n      0xff\n      and\n        /* \"contracts/GnosisUntitled.sol\":6132:6171  transaction.txType == TxType.ADD_SIGNER */\n      0x04\n      dup2\n      gt\n      iszero\n      tag_229\n      jumpi\n      tag_230\n      tag_228\n      jump\t// in\n    tag_230:\n    tag_229:\n      sub\n        /* \"contracts/GnosisUntitled.sol\":6128:6280  if (transaction.txType == TxType.ADD_SIGNER) {... */\n      tag_231\n      jumpi\n        /* \"contracts/GnosisUntitled.sol\":6215:6219  true */\n      0x01\n        /* \"contracts/GnosisUntitled.sol\":6188:6196  isSigner */\n      0x05\n        /* \"contracts/GnosisUntitled.sol\":6188:6212  isSigner[transaction.to] */\n      0x00\n        /* \"contracts/GnosisUntitled.sol\":6197:6208  transaction */\n      dup4\n        /* \"contracts/GnosisUntitled.sol\":6197:6211  transaction.to */\n      0x01\n      add\n      0x00\n      swap1\n      sload\n      swap1\n      0x0100\n      exp\n      swap1\n      div\n      0xffffffffffffffffffffffffffffffffffffffff\n      and\n        /* \"contracts/GnosisUntitled.sol\":6188:6212  isSigner[transaction.to] */\n      0xffffffffffffffffffffffffffffffffffffffff\n      and\n      0xffffffffffffffffffffffffffffffffffffffff\n      and\n      dup2\n      mstore\n      0x20\n      add\n      swap1\n      dup2\n      mstore\n      0x20\n      add\n      0x00\n      keccak256\n      0x00\n        /* \"contracts/GnosisUntitled.sol\":6188:6219  isSigner[transaction.to] = true */\n      0x0100\n      exp\n      dup2\n      sload\n      dup2\n      0xff\n      mul\n      not\n      and\n      swap1\n      dup4\n      iszero\n      iszero\n      mul\n      or\n      swap1\n      sstore\n      pop\n        /* \"contracts/GnosisUntitled.sol\":6234:6245  signerCount */\n      0x02\n      0x00\n        /* \"contracts/GnosisUntitled.sol\":6234:6247  signerCount++ */\n      dup2\n      sload\n      dup1\n      swap3\n      swap2\n      swap1\n      tag_232\n      swap1\n      tag_233\n      jump\t// in\n    tag_232:\n      swap2\n      swap1\n      pop\n      sstore\n      pop\n        /* \"contracts/GnosisUntitled.sol\":6262:6269  return; */\n      pop\n      jump(tag_219)\n        /* \"contracts/GnosisUntitled.sol\":6128:6280  if (transaction.txType == TxType.ADD_SIGNER) {... */\n    tag_231:\n        /* \"contracts/GnosisUntitled.sol\":6318:6338  TxType.REMOVE_SIGNER */\n      0x03\n        /* \"contracts/GnosisUntitled.sol\":6296:6338  transaction.txType == TxType.REMOVE_SIGNER */\n      0x04\n      dup2\n      gt\n      iszero\n      tag_234\n      jumpi\n      tag_235\n      tag_228\n      jump\t// in\n    tag_235:\n    tag_234:\n        /* \"contracts/GnosisUntitled.sol\":6296:6307  transaction */\n      dup2\n        /* \"contracts/GnosisUntitled.sol\":6296:6314  transaction.txType */\n      0x06\n      add\n      0x00\n      swap1\n      sload\n      swap1\n      0x0100\n      exp\n      swap1\n      div\n      0xff\n      and\n        /* \"contracts/GnosisUntitled.sol\":6296:6338  transaction.txType == TxType.REMOVE_SIGNER */\n      0x04\n      dup2\n      gt\n      iszero\n      tag_236\n      jumpi\n      tag_237\n      tag_228\n      jump\t// in\n    tag_237:\n    tag_236:\n      sub\n        /* \"contracts/GnosisUntitled.sol\":6292:6448  if (transaction.txType == TxType.REMOVE_SIGNER) {... */\n      tag_238\n      jumpi\n        /* \"contracts/GnosisUntitled.sol\":6382:6387  false */\n      0x00\n        /* \"contracts/GnosisUntitled.sol\":6355:6363  isSigner */\n      0x05\n        /* \"contracts/GnosisUntitled.sol\":6355:6379  isSigner[transaction.to] */\n      0x00\n        /* \"contracts/GnosisUntitled.sol\":6364:6375  transaction */\n      dup4\n        /* \"contracts/GnosisUntitled.sol\":6364:6378  transaction.to */\n      0x01\n      add\n      0x00\n      swap1\n      sload\n      swap1\n      0x0100\n      exp\n      swap1\n      div\n      0xffffffffffffffffffffffffffffffffffffffff\n      and\n        /* \"contracts/GnosisUntitled.sol\":6355:6379  isSigner[transaction.to] */\n      0xffffffffffffffffffffffffffffffffffffffff\n      and\n      0xffffffffffffffffffffffffffffffffffffffff\n      and\n      dup2\n      mstore\n      0x20\n      add\n      swap1\n      dup2\n      mstore\n      0x20\n      add\n      0x00\n      keccak256\n      0x00\n        /* \"contracts/GnosisUntitled.sol\":6355:6387  isSigner[transaction.to] = false */\n      0x0100\n      exp\n      dup2\n      sload\n      dup2\n      0xff\n      mul\n      not\n      and\n      swap1\n      dup4\n      iszero\n      iszero\n      mul\n      or\n      swap1\n      sstore\n      pop\n        /* \"contracts/GnosisUntitled.sol\":6402:6413  signerCount */\n      0x02\n      0x00\n        /* \"contracts/GnosisUntitled.sol\":6402:6415  signerCount-- */\n      dup2\n      sload\n      dup1\n      swap3\n      swap2\n      swap1\n      tag_239\n      swap1\n      tag_240\n      jump\t// in\n    tag_239:\n      swap2\n      swap1\n      pop\n      sstore\n      pop\n        /* \"contracts/GnosisUntitled.sol\":6430:6437  return; */\n      pop\n      jump(tag_219)\n        /* \"contracts/GnosisUntitled.sol\":6292:6448  if (transaction.txType == TxType.REMOVE_SIGNER) {... */\n    tag_238:\n        /* \"contracts/GnosisUntitled.sol\":6486:6506  TxType.CHANGE_QUORUM */\n      0x04\n        /* \"contracts/GnosisUntitled.sol\":6464:6506  transaction.txType == TxType.CHANGE_QUORUM */\n      dup1\n      dup2\n      gt\n      iszero\n      tag_241\n      jumpi\n      tag_242\n      tag_228\n      jump\t// in\n    tag_242:\n    tag_241:\n        /* \"contracts/GnosisUntitled.sol\":6464:6475  transaction */\n      dup2\n        /* \"contracts/GnosisUntitled.sol\":6464:6482  transaction.txType */\n      0x06\n      add\n      0x00\n      swap1\n      sload\n      swap1\n      0x0100\n      exp\n      swap1\n      div\n      0xff\n      and\n        /* \"contracts/GnosisUntitled.sol\":6464:6506  transaction.txType == TxType.CHANGE_QUORUM */\n      0x04\n      dup2\n      gt\n      iszero\n      tag_243\n      jumpi\n      tag_244\n      tag_228\n      jump\t// in\n    tag_244:\n    tag_243:\n      sub\n        /* \"contracts/GnosisUntitled.sol\":6460:6582  if (transaction.txType == TxType.CHANGE_QUORUM) {... */\n      tag_245\n      jumpi\n        /* \"contracts/GnosisUntitled.sol\":6532:6543  transaction */\n      dup1\n        /* \"contracts/GnosisUntitled.sol\":6532:6549  transaction.value */\n      0x02\n      add\n      sload\n        /* \"contracts/GnosisUntitled.sol\":6523:6529  quorum */\n      0x04\n        /* \"contracts/GnosisUntitled.sol\":6523:6549  quorum = transaction.value */\n      dup2\n      swap1\n      sstore\n      pop\n        /* \"contracts/GnosisUntitled.sol\":6564:6571  return; */\n      pop\n      jump(tag_219)\n        /* \"contracts/GnosisUntitled.sol\":6460:6582  if (transaction.txType == TxType.CHANGE_QUORUM) {... */\n    tag_245:\n        /* \"contracts/GnosisUntitled.sol\":6595:6607  bool success */\n      0x00\n        /* \"contracts/GnosisUntitled.sol\":6613:6624  transaction */\n      dup2\n        /* \"contracts/GnosisUntitled.sol\":6613:6627  transaction.to */\n      0x01\n      add\n      0x00\n      swap1\n      sload\n      swap1\n      0x0100\n      exp\n      swap1\n      div\n      0xffffffffffffffffffffffffffffffffffffffff\n      and\n        /* \"contracts/GnosisUntitled.sol\":6613:6632  transaction.to.call */\n      0xffffffffffffffffffffffffffffffffffffffff\n      and\n        /* \"contracts/GnosisUntitled.sol\":6640:6651  transaction */\n      dup3\n        /* \"contracts/GnosisUntitled.sol\":6640:6657  transaction.value */\n      0x02\n      add\n      sload\n        /* \"contracts/GnosisUntitled.sol\":6673:6684  transaction */\n      dup4\n        /* \"contracts/GnosisUntitled.sol\":6673:6689  transaction.data */\n      0x03\n      add\n        /* \"contracts/GnosisUntitled.sol\":6613:6700  transaction.to.call{value: transaction.value}(... */\n      mload(0x40)\n      tag_246\n      swap2\n      swap1\n      tag_247\n      jump\t// in\n    tag_246:\n      0x00\n      mload(0x40)\n      dup1\n      dup4\n      sub\n      dup2\n      dup6\n      dup8\n      gas\n      call\n      swap3\n      pop\n      pop\n      pop\n      returndatasize\n      dup1\n      0x00\n      dup2\n      eq\n      tag_250\n      jumpi\n      mload(0x40)\n      swap2\n      pop\n      and(add(returndatasize, 0x3f), not(0x1f))\n      dup3\n      add\n      0x40\n      mstore\n      returndatasize\n      dup3\n      mstore\n      returndatasize\n      0x00\n      0x20\n      dup5\n      add\n      returndatacopy\n      jump(tag_249)\n    tag_250:\n      0x60\n      swap2\n      pop\n    tag_249:\n      pop\n        /* \"contracts/GnosisUntitled.sol\":6594:6700  (bool success, ) = transaction.to.call{value: transaction.value}(... */\n      pop\n      swap1\n      pop\n        /* \"contracts/GnosisUntitled.sol\":6719:6726  success */\n      dup1\n        /* \"contracts/GnosisUntitled.sol\":6711:6740  require(success, \"tx failed\") */\n      tag_251\n      jumpi\n      mload(0x40)\n      0x08c379a000000000000000000000000000000000000000000000000000000000\n      dup2\n      mstore\n      0x04\n      add\n      tag_252\n      swap1\n      tag_253\n      jump\t// in\n    tag_252:\n      mload(0x40)\n      dup1\n      swap2\n      sub\n      swap1\n      revert\n    tag_251:\n        /* \"contracts/GnosisUntitled.sol\":5871:6748  {... */\n      pop\n      pop\n        /* \"contracts/GnosisUntitled.sol\":1382:1383  _ */\n    tag_219:\n        /* \"contracts/GnosisUntitled.sol\":1240:1241  _ */\n      pop\n        /* \"contracts/GnosisUntitled.sol\":1105:1106  _ */\n      pop\n        /* \"contracts/GnosisUntitled.sol\":5725:6748  function executeTransaction(uint256 _txIndex)... */\n      pop\n      jump\t// out\n        /* \"contracts/GnosisUntitled.sol\":4675:5303  function submitTx(... */\n    tag_107:\n        /* \"contracts/GnosisUntitled.sol\":4819:4834  uint256 txIndex */\n      0x00\n        /* \"contracts/GnosisUntitled.sol\":4837:4849  transactions */\n      0x01\n        /* \"contracts/GnosisUntitled.sol\":4837:4856  transactions.length */\n      dup1\n      sload\n      swap1\n      pop\n        /* \"contracts/GnosisUntitled.sol\":4819:4856  uint256 txIndex = transactions.length */\n      swap1\n      pop\n        /* \"contracts/GnosisUntitled.sol\":4869:4881  transactions */\n      0x01\n        /* \"contracts/GnosisUntitled.sol\":4901:5155  Transaction({... */\n      mload(0x40)\n      dup1\n      0xe0\n      add\n      0x40\n      mstore\n      dup1\n        /* \"contracts/GnosisUntitled.sol\":4939:4946  txIndex */\n      dup4\n        /* \"contracts/GnosisUntitled.sol\":4901:5155  Transaction({... */\n      dup2\n      mstore\n      0x20\n      add\n        /* \"contracts/GnosisUntitled.sol\":4969:4972  _to */\n      dup8\n        /* \"contracts/GnosisUntitled.sol\":4901:5155  Transaction({... */\n      0xffffffffffffffffffffffffffffffffffffffff\n      and\n      dup2\n      mstore\n      0x20\n      add\n        /* \"contracts/GnosisUntitled.sol\":4998:5004  _value */\n      dup7\n        /* \"contracts/GnosisUntitled.sol\":4901:5155  Transaction({... */\n      dup2\n      mstore\n      0x20\n      add\n        /* \"contracts/GnosisUntitled.sol\":5029:5034  _data */\n      dup6\n        /* \"contracts/GnosisUntitled.sol\":4901:5155  Transaction({... */\n      dup2\n      mstore\n      0x20\n      add\n        /* \"contracts/GnosisUntitled.sol\":5063:5068  false */\n      0x00\n        /* \"contracts/GnosisUntitled.sol\":4901:5155  Transaction({... */\n      iszero\n      iszero\n      dup2\n      mstore\n      0x20\n      add\n        /* \"contracts/GnosisUntitled.sol\":5105:5106  1 */\n      0x01\n        /* \"contracts/GnosisUntitled.sol\":4901:5155  Transaction({... */\n      dup2\n      mstore\n      0x20\n      add\n        /* \"contracts/GnosisUntitled.sol\":5133:5139  txType */\n      dup5\n        /* \"contracts/GnosisUntitled.sol\":4901:5155  Transaction({... */\n      0x04\n      dup2\n      gt\n      iszero\n      tag_255\n      jumpi\n      tag_256\n      tag_228\n      jump\t// in\n    tag_256:\n    tag_255:\n      dup2\n      mstore\n      pop\n        /* \"contracts/GnosisUntitled.sol\":4869:5166  transactions.push(... */\n      swap1\n      dup1\n      0x01\n      dup2\n      sload\n      add\n      dup1\n      dup3\n      sstore\n      dup1\n      swap2\n      pop\n      pop\n      0x01\n      swap1\n      sub\n      swap1\n      0x00\n      mstore\n      keccak256(0x00, 0x20)\n      swap1\n      0x07\n      mul\n      add\n      0x00\n      swap1\n      swap2\n      swap1\n      swap2\n      swap1\n      swap2\n      pop\n      0x00\n      dup3\n      add\n      mload\n      dup2\n      0x00\n      add\n      sstore\n      0x20\n      dup3\n      add\n      mload\n      dup2\n      0x01\n      add\n      exp(0x0100, 0x00)\n      dup2\n      sload\n      dup2\n      0xffffffffffffffffffffffffffffffffffffffff\n      mul\n      not\n      and\n      swap1\n      dup4\n      0xffffffffffffffffffffffffffffffffffffffff\n      and\n      mul\n      or\n      swap1\n      sstore\n      pop\n      0x40\n      dup3\n      add\n      mload\n      dup2\n      0x02\n      add\n      sstore\n      0x60\n      dup3\n      add\n      mload\n      dup2\n      0x03\n      add\n      swap1\n      dup2\n      tag_258\n      swap2\n      swap1\n      tag_259\n      jump\t// in\n    tag_258:\n      pop\n      0x80\n      dup3\n      add\n      mload\n      dup2\n      0x04\n      add\n      exp(0x0100, 0x00)\n      dup2\n      sload\n      dup2\n      0xff\n      mul\n      not\n      and\n      swap1\n      dup4\n      iszero\n      iszero\n      mul\n      or\n      swap1\n      sstore\n      pop\n      0xa0\n      dup3\n      add\n      mload\n      dup2\n      0x05\n      add\n      sstore\n      0xc0\n      dup3\n      add\n      mload\n      dup2\n      0x06\n      add\n      exp(0x0100, 0x00)\n      dup2\n      sload\n      dup2\n      0xff\n      mul\n      not\n      and\n      swap1\n      dup4\n      0x04\n      dup2\n      gt\n      iszero\n      tag_260\n      jumpi\n      tag_261\n      tag_228\n      jump\t// in\n    tag_261:\n    tag_260:\n      mul\n      or\n      swap1\n      sstore\n      pop\n      pop\n      pop\n        /* \"contracts/GnosisUntitled.sol\":5214:5218  true */\n      0x01\n        /* \"contracts/GnosisUntitled.sol\":5179:5190  isConfirmed */\n      0x00\n        /* \"contracts/GnosisUntitled.sol\":5179:5199  isConfirmed[txIndex] */\n      dup1\n        /* \"contracts/GnosisUntitled.sol\":5191:5198  txIndex */\n      dup4\n        /* \"contracts/GnosisUntitled.sol\":5179:5199  isConfirmed[txIndex] */\n      dup2\n      mstore\n      0x20\n      add\n      swap1\n      dup2\n      mstore\n      0x20\n      add\n      0x00\n      keccak256\n        /* \"contracts/GnosisUntitled.sol\":5179:5211  isConfirmed[txIndex][msg.sender] */\n      0x00\n        /* \"contracts/GnosisUntitled.sol\":5200:5210  msg.sender */\n      caller\n        /* \"contracts/GnosisUntitled.sol\":5179:5211  isConfirmed[txIndex][msg.sender] */\n      0xffffffffffffffffffffffffffffffffffffffff\n      and\n      0xffffffffffffffffffffffffffffffffffffffff\n      and\n      dup2\n      mstore\n      0x20\n      add\n      swap1\n      dup2\n      mstore\n      0x20\n      add\n      0x00\n      keccak256\n      0x00\n        /* \"contracts/GnosisUntitled.sol\":5179:5218  isConfirmed[txIndex][msg.sender] = true */\n      0x0100\n      exp\n      dup2\n      sload\n      dup2\n      0xff\n      mul\n      not\n      and\n      swap1\n      dup4\n      iszero\n      iszero\n      mul\n      or\n      swap1\n      sstore\n      pop\n        /* \"contracts/GnosisUntitled.sol\":5275:5278  _to */\n      dup5\n        /* \"contracts/GnosisUntitled.sol\":5236:5295  SubmitTransaction(msg.sender, txIndex, _to, _value, txType) */\n      0xffffffffffffffffffffffffffffffffffffffff\n      and\n        /* \"contracts/GnosisUntitled.sol\":5266:5273  txIndex */\n      dup2\n        /* \"contracts/GnosisUntitled.sol\":5254:5264  msg.sender */\n      caller\n        /* \"contracts/GnosisUntitled.sol\":5236:5295  SubmitTransaction(msg.sender, txIndex, _to, _value, txType) */\n      0xffffffffffffffffffffffffffffffffffffffff\n      and\n      0xf184e47ed04feee43669e05ec04ea91a7248bbfecaeb6ba6573a6446e9a05ce2\n        /* \"contracts/GnosisUntitled.sol\":5280:5286  _value */\n      dup8\n        /* \"contracts/GnosisUntitled.sol\":5288:5294  txType */\n      dup7\n        /* \"contracts/GnosisUntitled.sol\":5236:5295  SubmitTransaction(msg.sender, txIndex, _to, _value, txType) */\n      mload(0x40)\n      tag_262\n      swap3\n      swap2\n      swap1\n      tag_263\n      jump\t// in\n    tag_262:\n      mload(0x40)\n      dup1\n      swap2\n      sub\n      swap1\n      log4\n        /* \"contracts/GnosisUntitled.sol\":4808:5303  {... */\n      pop\n        /* \"contracts/GnosisUntitled.sol\":4675:5303  function submitTx(... */\n      pop\n      pop\n      pop\n      pop\n      jump\t// out\n        /* \"#utility.yul\":7:84   */\n    tag_264:\n        /* \"#utility.yul\":44:51   */\n      0x00\n        /* \"#utility.yul\":73:78   */\n      dup2\n        /* \"#utility.yul\":62:78   */\n      swap1\n      pop\n        /* \"#utility.yul\":7:84   */\n      swap2\n      swap1\n      pop\n      jump\t// out\n        /* \"#utility.yul\":90:208   */\n    tag_265:\n        /* \"#utility.yul\":177:201   */\n      tag_347\n        /* \"#utility.yul\":195:200   */\n      dup2\n        /* \"#utility.yul\":177:201   */\n      tag_264\n      jump\t// in\n    tag_347:\n        /* \"#utility.yul\":172:175   */\n      dup3\n        /* \"#utility.yul\":165:202   */\n      mstore\n        /* \"#utility.yul\":90:208   */\n      pop\n      pop\n      jump\t// out\n        /* \"#utility.yul\":214:546   */\n    tag_24:\n        /* \"#utility.yul\":335:339   */\n      0x00\n        /* \"#utility.yul\":373:375   */\n      0x40\n        /* \"#utility.yul\":362:371   */\n      dup3\n        /* \"#utility.yul\":358:376   */\n      add\n        /* \"#utility.yul\":350:376   */\n      swap1\n      pop\n        /* \"#utility.yul\":386:457   */\n      tag_349\n        /* \"#utility.yul\":454:455   */\n      0x00\n        /* \"#utility.yul\":443:452   */\n      dup4\n        /* \"#utility.yul\":439:456   */\n      add\n        /* \"#utility.yul\":430:436   */\n      dup6\n        /* \"#utility.yul\":386:457   */\n      tag_265\n      jump\t// in\n    tag_349:\n        /* \"#utility.yul\":467:539   */\n      tag_350\n        /* \"#utility.yul\":535:537   */\n      0x20\n        /* \"#utility.yul\":524:533   */\n      dup4\n        /* \"#utility.yul\":520:538   */\n      add\n        /* \"#utility.yul\":511:517   */\n      dup5\n        /* \"#utility.yul\":467:539   */\n      tag_265\n      jump\t// in\n    tag_350:\n        /* \"#utility.yul\":214:546   */\n      swap4\n      swap3\n      pop\n      pop\n      pop\n      jump\t// out\n        /* \"#utility.yul\":552:627   */\n    tag_266:\n        /* \"#utility.yul\":585:591   */\n      0x00\n        /* \"#utility.yul\":618:620   */\n      0x40\n        /* \"#utility.yul\":612:621   */\n      mload\n        /* \"#utility.yul\":602:621   */\n      swap1\n      pop\n        /* \"#utility.yul\":552:627   */\n      swap1\n      jump\t// out\n        /* \"#utility.yul\":633:750   */\n    tag_267:\n        /* \"#utility.yul\":742:743   */\n      0x00\n        /* \"#utility.yul\":739:740   */\n      dup1\n        /* \"#utility.yul\":732:744   */\n      revert\n        /* \"#utility.yul\":756:873   */\n    tag_268:\n        /* \"#utility.yul\":865:866   */\n      0x00\n        /* \"#utility.yul\":862:863   */\n      dup1\n        /* \"#utility.yul\":855:867   */\n      revert\n        /* \"#utility.yul\":879:1001   */\n    tag_269:\n        /* \"#utility.yul\":952:976   */\n      tag_355\n        /* \"#utility.yul\":970:975   */\n      dup2\n        /* \"#utility.yul\":952:976   */\n      tag_264\n      jump\t// in\n    tag_355:\n        /* \"#utility.yul\":945:950   */\n      dup2\n        /* \"#utility.yul\":942:977   */\n      eq\n        /* \"#utility.yul\":932:995   */\n      tag_356\n      jumpi\n        /* \"#utility.yul\":991:992   */\n      0x00\n        /* \"#utility.yul\":988:989   */\n      dup1\n        /* \"#utility.yul\":981:993   */\n      revert\n        /* \"#utility.yul\":932:995   */\n    tag_356:\n        /* \"#utility.yul\":879:1001   */\n      pop\n      jump\t// out\n        /* \"#utility.yul\":1007:1146   */\n    tag_270:\n        /* \"#utility.yul\":1053:1058   */\n      0x00\n        /* \"#utility.yul\":1091:1097   */\n      dup2\n        /* \"#utility.yul\":1078:1098   */\n      calldataload\n        /* \"#utility.yul\":1069:1098   */\n      swap1\n      pop\n        /* \"#utility.yul\":1107:1140   */\n      tag_358\n        /* \"#utility.yul\":1134:1139   */\n      dup2\n        /* \"#utility.yul\":1107:1140   */\n      tag_269\n      jump\t// in\n    tag_358:\n        /* \"#utility.yul\":1007:1146   */\n      swap3\n      swap2\n      pop\n      pop\n      jump\t// out\n        /* \"#utility.yul\":1152:1481   */\n    tag_28:\n        /* \"#utility.yul\":1211:1217   */\n      0x00\n        /* \"#utility.yul\":1260:1262   */\n      0x20\n        /* \"#utility.yul\":1248:1257   */\n      dup3\n        /* \"#utility.yul\":1239:1246   */\n      dup5\n        /* \"#utility.yul\":1235:1258   */\n      sub\n        /* \"#utility.yul\":1231:1263   */\n      slt\n        /* \"#utility.yul\":1228:1347   */\n      iszero\n      tag_360\n      jumpi\n        /* \"#utility.yul\":1266:1345   */\n      tag_361\n      tag_267\n      jump\t// in\n    tag_361:\n        /* \"#utility.yul\":1228:1347   */\n    tag_360:\n        /* \"#utility.yul\":1386:1387   */\n      0x00\n        /* \"#utility.yul\":1411:1464   */\n      tag_362\n        /* \"#utility.yul\":1456:1463   */\n      dup5\n        /* \"#utility.yul\":1447:1453   */\n      dup3\n        /* \"#utility.yul\":1436:1445   */\n      dup6\n        /* \"#utility.yul\":1432:1454   */\n      add\n        /* \"#utility.yul\":1411:1464   */\n      tag_270\n      jump\t// in\n    tag_362:\n        /* \"#utility.yul\":1401:1464   */\n      swap2\n      pop\n        /* \"#utility.yul\":1357:1474   */\n      pop\n        /* \"#utility.yul\":1152:1481   */\n      swap3\n      swap2\n      pop\n      pop\n      jump\t// out\n        /* \"#utility.yul\":1487:1709   */\n    tag_34:\n        /* \"#utility.yul\":1580:1584   */\n      0x00\n        /* \"#utility.yul\":1618:1620   */\n      0x20\n        /* \"#utility.yul\":1607:1616   */\n      dup3\n        /* \"#utility.yul\":1603:1621   */\n      add\n        /* \"#utility.yul\":1595:1621   */\n      swap1\n      pop\n        /* \"#utility.yul\":1631:1702   */\n      tag_364\n        /* \"#utility.yul\":1699:1700   */\n      0x00\n        /* \"#utility.yul\":1688:1697   */\n      dup4\n        /* \"#utility.yul\":1684:1701   */\n      add\n        /* \"#utility.yul\":1675:1681   */\n      dup5\n        /* \"#utility.yul\":1631:1702   */\n      tag_265\n      jump\t// in\n    tag_364:\n        /* \"#utility.yul\":1487:1709   */\n      swap3\n      swap2\n      pop\n      pop\n      jump\t// out\n        /* \"#utility.yul\":1715:1841   */\n    tag_271:\n        /* \"#utility.yul\":1752:1759   */\n      0x00\n        /* \"#utility.yul\":1792:1834   */\n      0xffffffffffffffffffffffffffffffffffffffff\n        /* \"#utility.yul\":1785:1790   */\n      dup3\n        /* \"#utility.yul\":1781:1835   */\n      and\n        /* \"#utility.yul\":1770:1835   */\n      swap1\n      pop\n        /* \"#utility.yul\":1715:1841   */\n      swap2\n      swap1\n      pop\n      jump\t// out\n        /* \"#utility.yul\":1847:1943   */\n    tag_272:\n        /* \"#utility.yul\":1884:1891   */\n      0x00\n        /* \"#utility.yul\":1913:1937   */\n      tag_367\n        /* \"#utility.yul\":1931:1936   */\n      dup3\n        /* \"#utility.yul\":1913:1937   */\n      tag_271\n      jump\t// in\n    tag_367:\n        /* \"#utility.yul\":1902:1937   */\n      swap1\n      pop\n        /* \"#utility.yul\":1847:1943   */\n      swap2\n      swap1\n      pop\n      jump\t// out\n        /* \"#utility.yul\":1949:2067   */\n    tag_273:\n        /* \"#utility.yul\":2036:2060   */\n      tag_369\n        /* \"#utility.yul\":2054:2059   */\n      dup2\n        /* \"#utility.yul\":2036:2060   */\n      tag_272\n      jump\t// in\n    tag_369:\n        /* \"#utility.yul\":2031:2034   */\n      dup3\n        /* \"#utility.yul\":2024:2061   */\n      mstore\n        /* \"#utility.yul\":1949:2067   */\n      pop\n      pop\n      jump\t// out\n        /* \"#utility.yul\":2073:2171   */\n    tag_274:\n        /* \"#utility.yul\":2124:2130   */\n      0x00\n        /* \"#utility.yul\":2158:2163   */\n      dup2\n        /* \"#utility.yul\":2152:2164   */\n      mload\n        /* \"#utility.yul\":2142:2164   */\n      swap1\n      pop\n        /* \"#utility.yul\":2073:2171   */\n      swap2\n      swap1\n      pop\n      jump\t// out\n        /* \"#utility.yul\":2177:2345   */\n    tag_275:\n        /* \"#utility.yul\":2260:2271   */\n      0x00\n        /* \"#utility.yul\":2294:2300   */\n      dup3\n        /* \"#utility.yul\":2289:2292   */\n      dup3\n        /* \"#utility.yul\":2282:2301   */\n      mstore\n        /* \"#utility.yul\":2334:2338   */\n      0x20\n        /* \"#utility.yul\":2329:2332   */\n      dup3\n        /* \"#utility.yul\":2325:2339   */\n      add\n        /* \"#utility.yul\":2310:2339   */\n      swap1\n      pop\n        /* \"#utility.yul\":2177:2345   */\n      swap3\n      swap2\n      pop\n      pop\n      jump\t// out\n        /* \"#utility.yul\":2351:2597   */\n    tag_276:\n        /* \"#utility.yul\":2432:2433   */\n      0x00\n        /* \"#utility.yul\":2442:2555   */\n    tag_373:\n        /* \"#utility.yul\":2456:2462   */\n      dup4\n        /* \"#utility.yul\":2453:2454   */\n      dup2\n        /* \"#utility.yul\":2450:2463   */\n      lt\n        /* \"#utility.yul\":2442:2555   */\n      iszero\n      tag_375\n      jumpi\n        /* \"#utility.yul\":2541:2542   */\n      dup1\n        /* \"#utility.yul\":2536:2539   */\n      dup3\n        /* \"#utility.yul\":2532:2543   */\n      add\n        /* \"#utility.yul\":2526:2544   */\n      mload\n        /* \"#utility.yul\":2522:2523   */\n      dup2\n        /* \"#utility.yul\":2517:2520   */\n      dup5\n        /* \"#utility.yul\":2513:2524   */\n      add\n        /* \"#utility.yul\":2506:2545   */\n      mstore\n        /* \"#utility.yul\":2478:2480   */\n      0x20\n        /* \"#utility.yul\":2475:2476   */\n      dup2\n        /* \"#utility.yul\":2471:2481   */\n      add\n        /* \"#utility.yul\":2466:2481   */\n      swap1\n      pop\n        /* \"#utility.yul\":2442:2555   */\n      jump(tag_373)\n    tag_375:\n        /* \"#utility.yul\":2589:2590   */\n      0x00\n        /* \"#utility.yul\":2580:2586   */\n      dup5\n        /* \"#utility.yul\":2575:2578   */\n      dup5\n        /* \"#utility.yul\":2571:2587   */\n      add\n        /* \"#utility.yul\":2564:2591   */\n      mstore\n        /* \"#utility.yul\":2413:2597   */\n      pop\n        /* \"#utility.yul\":2351:2597   */\n      pop\n      pop\n      pop\n      jump\t// out\n        /* \"#utility.yul\":2603:2705   */\n    tag_277:\n        /* \"#utility.yul\":2644:2650   */\n      0x00\n        /* \"#utility.yul\":2695:2697   */\n      0x1f\n        /* \"#utility.yul\":2691:2698   */\n      not\n        /* \"#utility.yul\":2686:2688   */\n      0x1f\n        /* \"#utility.yul\":2679:2684   */\n      dup4\n        /* \"#utility.yul\":2675:2689   */\n      add\n        /* \"#utility.yul\":2671:2699   */\n      and\n        /* \"#utility.yul\":2661:2699   */\n      swap1\n      pop\n        /* \"#utility.yul\":2603:2705   */\n      swap2\n      swap1\n      pop\n      jump\t// out\n        /* \"#utility.yul\":2711:3084   */\n    tag_278:\n        /* \"#utility.yul\":2797:2800   */\n      0x00\n        /* \"#utility.yul\":2825:2863   */\n      tag_378\n        /* \"#utility.yul\":2857:2862   */\n      dup3\n        /* \"#utility.yul\":2825:2863   */\n      tag_274\n      jump\t// in\n    tag_378:\n        /* \"#utility.yul\":2879:2949   */\n      tag_379\n        /* \"#utility.yul\":2942:2948   */\n      dup2\n        /* \"#utility.yul\":2937:2940   */\n      dup6\n        /* \"#utility.yul\":2879:2949   */\n      tag_275\n      jump\t// in\n    tag_379:\n        /* \"#utility.yul\":2872:2949   */\n      swap4\n      pop\n        /* \"#utility.yul\":2958:3023   */\n      tag_380\n        /* \"#utility.yul\":3016:3022   */\n      dup2\n        /* \"#utility.yul\":3011:3014   */\n      dup6\n        /* \"#utility.yul\":3004:3008   */\n      0x20\n        /* \"#utility.yul\":2997:3002   */\n      dup7\n        /* \"#utility.yul\":2993:3009   */\n      add\n        /* \"#utility.yul\":2958:3023   */\n      tag_276\n      jump\t// in\n    tag_380:\n        /* \"#utility.yul\":3048:3077   */\n      tag_381\n        /* \"#utility.yul\":3070:3076   */\n      dup2\n        /* \"#utility.yul\":3048:3077   */\n      tag_277\n      jump\t// in\n    tag_381:\n        /* \"#utility.yul\":3043:3046   */\n      dup5\n        /* \"#utility.yul\":3039:3078   */\n      add\n        /* \"#utility.yul\":3032:3078   */\n      swap2\n      pop\n        /* \"#utility.yul\":2801:3084   */\n      pop\n        /* \"#utility.yul\":2711:3084   */\n      swap3\n      swap2\n      pop\n      pop\n      jump\t// out\n        /* \"#utility.yul\":3090:3180   */\n    tag_279:\n        /* \"#utility.yul\":3124:3131   */\n      0x00\n        /* \"#utility.yul\":3167:3172   */\n      dup2\n        /* \"#utility.yul\":3160:3173   */\n      iszero\n        /* \"#utility.yul\":3153:3174   */\n      iszero\n        /* \"#utility.yul\":3142:3174   */\n      swap1\n      pop\n        /* \"#utility.yul\":3090:3180   */\n      swap2\n      swap1\n      pop\n      jump\t// out\n        /* \"#utility.yul\":3186:3295   */\n    tag_280:\n        /* \"#utility.yul\":3267:3288   */\n      tag_384\n        /* \"#utility.yul\":3282:3287   */\n      dup2\n        /* \"#utility.yul\":3267:3288   */\n      tag_279\n      jump\t// in\n    tag_384:\n        /* \"#utility.yul\":3262:3265   */\n      dup3\n        /* \"#utility.yul\":3255:3289   */\n      mstore\n        /* \"#utility.yul\":3186:3295   */\n      pop\n      pop\n      jump\t// out\n        /* \"#utility.yul\":3301:4040   */\n    tag_48:\n        /* \"#utility.yul\":3518:3522   */\n      0x00\n        /* \"#utility.yul\":3556:3559   */\n      0xa0\n        /* \"#utility.yul\":3545:3554   */\n      dup3\n        /* \"#utility.yul\":3541:3560   */\n      add\n        /* \"#utility.yul\":3533:3560   */\n      swap1\n      pop\n        /* \"#utility.yul\":3570:3641   */\n      tag_386\n        /* \"#utility.yul\":3638:3639   */\n      0x00\n        /* \"#utility.yul\":3627:3636   */\n      dup4\n        /* \"#utility.yul\":3623:3640   */\n      add\n        /* \"#utility.yul\":3614:3620   */\n      dup9\n        /* \"#utility.yul\":3570:3641   */\n      tag_273\n      jump\t// in\n    tag_386:\n        /* \"#utility.yul\":3651:3723   */\n      tag_387\n        /* \"#utility.yul\":3719:3721   */\n      0x20\n        /* \"#utility.yul\":3708:3717   */\n      dup4\n        /* \"#utility.yul\":3704:3722   */\n      add\n        /* \"#utility.yul\":3695:3701   */\n      dup8\n        /* \"#utility.yul\":3651:3723   */\n      tag_265\n      jump\t// in\n    tag_387:\n        /* \"#utility.yul\":3770:3779   */\n      dup2\n        /* \"#utility.yul\":3764:3768   */\n      dup2\n        /* \"#utility.yul\":3760:3780   */\n      sub\n        /* \"#utility.yul\":3755:3757   */\n      0x40\n        /* \"#utility.yul\":3744:3753   */\n      dup4\n        /* \"#utility.yul\":3740:3758   */\n      add\n        /* \"#utility.yul\":3733:3781   */\n      mstore\n        /* \"#utility.yul\":3798:3874   */\n      tag_388\n        /* \"#utility.yul\":3869:3873   */\n      dup2\n        /* \"#utility.yul\":3860:3866   */\n      dup7\n        /* \"#utility.yul\":3798:3874   */\n      tag_278\n      jump\t// in\n    tag_388:\n        /* \"#utility.yul\":3790:3874   */\n      swap1\n      pop\n        /* \"#utility.yul\":3884:3950   */\n      tag_389\n        /* \"#utility.yul\":3946:3948   */\n      0x60\n        /* \"#utility.yul\":3935:3944   */\n      dup4\n        /* \"#utility.yul\":3931:3949   */\n      add\n        /* \"#utility.yul\":3922:3928   */\n      dup6\n        /* \"#utility.yul\":3884:3950   */\n      tag_280\n      jump\t// in\n    tag_389:\n        /* \"#utility.yul\":3960:4033   */\n      tag_390\n        /* \"#utility.yul\":4028:4031   */\n      0x80\n        /* \"#utility.yul\":4017:4026   */\n      dup4\n        /* \"#utility.yul\":4013:4032   */\n      add\n        /* \"#utility.yul\":4004:4010   */\n      dup5\n        /* \"#utility.yul\":3960:4033   */\n      tag_265\n      jump\t// in\n    tag_390:\n        /* \"#utility.yul\":3301:4040   */\n      swap7\n      swap6\n      pop\n      pop\n      pop\n      pop\n      pop\n      pop\n      jump\t// out\n        /* \"#utility.yul\":4046:4168   */\n    tag_281:\n        /* \"#utility.yul\":4119:4143   */\n      tag_392\n        /* \"#utility.yul\":4137:4142   */\n      dup2\n        /* \"#utility.yul\":4119:4143   */\n      tag_272\n      jump\t// in\n    tag_392:\n        /* \"#utility.yul\":4112:4117   */\n      dup2\n        /* \"#utility.yul\":4109:4144   */\n      eq\n        /* \"#utility.yul\":4099:4162   */\n      tag_393\n      jumpi\n        /* \"#utility.yul\":4158:4159   */\n      0x00\n        /* \"#utility.yul\":4155:4156   */\n      dup1\n        /* \"#utility.yul\":4148:4160   */\n      revert\n        /* \"#utility.yul\":4099:4162   */\n    tag_393:\n        /* \"#utility.yul\":4046:4168   */\n      pop\n      jump\t// out\n        /* \"#utility.yul\":4174:4313   */\n    tag_282:\n        /* \"#utility.yul\":4220:4225   */\n      0x00\n        /* \"#utility.yul\":4258:4264   */\n      dup2\n        /* \"#utility.yul\":4245:4265   */\n      calldataload\n        /* \"#utility.yul\":4236:4265   */\n      swap1\n      pop\n        /* \"#utility.yul\":4274:4307   */\n      tag_395\n        /* \"#utility.yul\":4301:4306   */\n      dup2\n        /* \"#utility.yul\":4274:4307   */\n      tag_281\n      jump\t// in\n    tag_395:\n        /* \"#utility.yul\":4174:4313   */\n      swap3\n      swap2\n      pop\n      pop\n      jump\t// out\n        /* \"#utility.yul\":4319:4793   */\n    tag_52:\n        /* \"#utility.yul\":4387:4393   */\n      0x00\n        /* \"#utility.yul\":4395:4401   */\n      dup1\n        /* \"#utility.yul\":4444:4446   */\n      0x40\n        /* \"#utility.yul\":4432:4441   */\n      dup4\n        /* \"#utility.yul\":4423:4430   */\n      dup6\n        /* \"#utility.yul\":4419:4442   */\n      sub\n        /* \"#utility.yul\":4415:4447   */\n      slt\n        /* \"#utility.yul\":4412:4531   */\n      iszero\n      tag_397\n      jumpi\n        /* \"#utility.yul\":4450:4529   */\n      tag_398\n      tag_267\n      jump\t// in\n    tag_398:\n        /* \"#utility.yul\":4412:4531   */\n    tag_397:\n        /* \"#utility.yul\":4570:4571   */\n      0x00\n        /* \"#utility.yul\":4595:4648   */\n      tag_399\n        /* \"#utility.yul\":4640:4647   */\n      dup6\n        /* \"#utility.yul\":4631:4637   */\n      dup3\n        /* \"#utility.yul\":4620:4629   */\n      dup7\n        /* \"#utility.yul\":4616:4638   */\n      add\n        /* \"#utility.yul\":4595:4648   */\n      tag_282\n      jump\t// in\n    tag_399:\n        /* \"#utility.yul\":4585:4648   */\n      swap3\n      pop\n        /* \"#utility.yul\":4541:4658   */\n      pop\n        /* \"#utility.yul\":4697:4699   */\n      0x20\n        /* \"#utility.yul\":4723:4776   */\n      tag_400\n        /* \"#utility.yul\":4768:4775   */\n      dup6\n        /* \"#utility.yul\":4759:4765   */\n      dup3\n        /* \"#utility.yul\":4748:4757   */\n      dup7\n        /* \"#utility.yul\":4744:4766   */\n      add\n        /* \"#utility.yul\":4723:4776   */\n      tag_270\n      jump\t// in\n    tag_400:\n        /* \"#utility.yul\":4713:4776   */\n      swap2\n      pop\n        /* \"#utility.yul\":4668:4786   */\n      pop\n        /* \"#utility.yul\":4319:4793   */\n      swap3\n      pop\n      swap3\n      swap1\n      pop\n      jump\t// out\n        /* \"#utility.yul\":4799:5128   */\n    tag_57:\n        /* \"#utility.yul\":4858:4864   */\n      0x00\n        /* \"#utility.yul\":4907:4909   */\n      0x20\n        /* \"#utility.yul\":4895:4904   */\n      dup3\n        /* \"#utility.yul\":4886:4893   */\n      dup5\n        /* \"#utility.yul\":4882:4905   */\n      sub\n        /* \"#utility.yul\":4878:4910   */\n      slt\n        /* \"#utility.yul\":4875:4994   */\n      iszero\n      tag_402\n      jumpi\n        /* \"#utility.yul\":4913:4992   */\n      tag_403\n      tag_267\n      jump\t// in\n    tag_403:\n        /* \"#utility.yul\":4875:4994   */\n    tag_402:\n        /* \"#utility.yul\":5033:5034   */\n      0x00\n        /* \"#utility.yul\":5058:5111   */\n      tag_404\n        /* \"#utility.yul\":5103:5110   */\n      dup5\n        /* \"#utility.yul\":5094:5100   */\n      dup3\n        /* \"#utility.yul\":5083:5092   */\n      dup6\n        /* \"#utility.yul\":5079:5101   */\n      add\n        /* \"#utility.yul\":5058:5111   */\n      tag_282\n      jump\t// in\n    tag_404:\n        /* \"#utility.yul\":5048:5111   */\n      swap2\n      pop\n        /* \"#utility.yul\":5004:5121   */\n      pop\n        /* \"#utility.yul\":4799:5128   */\n      swap3\n      swap2\n      pop\n      pop\n      jump\t// out\n        /* \"#utility.yul\":5134:5344   */\n    tag_68:\n        /* \"#utility.yul\":5221:5225   */\n      0x00\n        /* \"#utility.yul\":5259:5261   */\n      0x20\n        /* \"#utility.yul\":5248:5257   */\n      dup3\n        /* \"#utility.yul\":5244:5262   */\n      add\n        /* \"#utility.yul\":5236:5262   */\n      swap1\n      pop\n        /* \"#utility.yul\":5272:5337   */\n      tag_406\n        /* \"#utility.yul\":5334:5335   */\n      0x00\n        /* \"#utility.yul\":5323:5332   */\n      dup4\n        /* \"#utility.yul\":5319:5336   */\n      add\n        /* \"#utility.yul\":5310:5316   */\n      dup5\n        /* \"#utility.yul\":5272:5337   */\n      tag_280\n      jump\t// in\n    tag_406:\n        /* \"#utility.yul\":5134:5344   */\n      swap3\n      swap2\n      pop\n      pop\n      jump\t// out\n        /* \"#utility.yul\":5350:5824   */\n    tag_72:\n        /* \"#utility.yul\":5418:5424   */\n      0x00\n        /* \"#utility.yul\":5426:5432   */\n      dup1\n        /* \"#utility.yul\":5475:5477   */\n      0x40\n        /* \"#utility.yul\":5463:5472   */\n      dup4\n        /* \"#utility.yul\":5454:5461   */\n      dup6\n        /* \"#utility.yul\":5450:5473   */\n      sub\n        /* \"#utility.yul\":5446:5478   */\n      slt\n        /* \"#utility.yul\":5443:5562   */\n      iszero\n      tag_408\n      jumpi\n        /* \"#utility.yul\":5481:5560   */\n      tag_409\n      tag_267\n      jump\t// in\n    tag_409:\n        /* \"#utility.yul\":5443:5562   */\n    tag_408:\n        /* \"#utility.yul\":5601:5602   */\n      0x00\n        /* \"#utility.yul\":5626:5679   */\n      tag_410\n        /* \"#utility.yul\":5671:5678   */\n      dup6\n        /* \"#utility.yul\":5662:5668   */\n      dup3\n        /* \"#utility.yul\":5651:5660   */\n      dup7\n        /* \"#utility.yul\":5647:5669   */\n      add\n        /* \"#utility.yul\":5626:5679   */\n      tag_270\n      jump\t// in\n    tag_410:\n        /* \"#utility.yul\":5616:5679   */\n      swap3\n      pop\n        /* \"#utility.yul\":5572:5689   */\n      pop\n        /* \"#utility.yul\":5728:5730   */\n      0x20\n        /* \"#utility.yul\":5754:5807   */\n      tag_411\n        /* \"#utility.yul\":5799:5806   */\n      dup6\n        /* \"#utility.yul\":5790:5796   */\n      dup3\n        /* \"#utility.yul\":5779:5788   */\n      dup7\n        /* \"#utility.yul\":5775:5797   */\n      add\n        /* \"#utility.yul\":5754:5807   */\n      tag_282\n      jump\t// in\n    tag_411:\n        /* \"#utility.yul\":5744:5807   */\n      swap2\n      pop\n        /* \"#utility.yul\":5699:5817   */\n      pop\n        /* \"#utility.yul\":5350:5824   */\n      swap3\n      pop\n      swap3\n      swap1\n      pop\n      jump\t// out\n        /* \"#utility.yul\":5830:5947   */\n    tag_283:\n        /* \"#utility.yul\":5939:5940   */\n      0x00\n        /* \"#utility.yul\":5936:5937   */\n      dup1\n        /* \"#utility.yul\":5929:5941   */\n      revert\n        /* \"#utility.yul\":5953:6070   */\n    tag_284:\n        /* \"#utility.yul\":6062:6063   */\n      0x00\n        /* \"#utility.yul\":6059:6060   */\n      dup1\n        /* \"#utility.yul\":6052:6064   */\n      revert\n        /* \"#utility.yul\":6076:6256   */\n    tag_285:\n        /* \"#utility.yul\":6124:6201   */\n      0x4e487b7100000000000000000000000000000000000000000000000000000000\n        /* \"#utility.yul\":6121:6122   */\n      0x00\n        /* \"#utility.yul\":6114:6202   */\n      mstore\n        /* \"#utility.yul\":6221:6225   */\n      0x41\n        /* \"#utility.yul\":6218:6219   */\n      0x04\n        /* \"#utility.yul\":6211:6226   */\n      mstore\n        /* \"#utility.yul\":6245:6249   */\n      0x24\n        /* \"#utility.yul\":6242:6243   */\n      0x00\n        /* \"#utility.yul\":6235:6250   */\n      revert\n        /* \"#utility.yul\":6262:6543   */\n    tag_286:\n        /* \"#utility.yul\":6345:6372   */\n      tag_416\n        /* \"#utility.yul\":6367:6371   */\n      dup3\n        /* \"#utility.yul\":6345:6372   */\n      tag_277\n      jump\t// in\n    tag_416:\n        /* \"#utility.yul\":6337:6343   */\n      dup2\n        /* \"#utility.yul\":6333:6373   */\n      add\n        /* \"#utility.yul\":6475:6481   */\n      dup2\n        /* \"#utility.yul\":6463:6473   */\n      dup2\n        /* \"#utility.yul\":6460:6482   */\n      lt\n        /* \"#utility.yul\":6439:6457   */\n      0xffffffffffffffff\n        /* \"#utility.yul\":6427:6437   */\n      dup3\n        /* \"#utility.yul\":6424:6458   */\n      gt\n        /* \"#utility.yul\":6421:6483   */\n      or\n        /* \"#utility.yul\":6418:6506   */\n      iszero\n      tag_417\n      jumpi\n        /* \"#utility.yul\":6486:6504   */\n      tag_418\n      tag_285\n      jump\t// in\n    tag_418:\n        /* \"#utility.yul\":6418:6506   */\n    tag_417:\n        /* \"#utility.yul\":6526:6536   */\n      dup1\n        /* \"#utility.yul\":6522:6524   */\n      0x40\n        /* \"#utility.yul\":6515:6537   */\n      mstore\n        /* \"#utility.yul\":6305:6543   */\n      pop\n        /* \"#utility.yul\":6262:6543   */\n      pop\n      pop\n      jump\t// out\n        /* \"#utility.yul\":6549:6678   */\n    tag_287:\n        /* \"#utility.yul\":6583:6589   */\n      0x00\n        /* \"#utility.yul\":6610:6630   */\n      tag_420\n      tag_266\n      jump\t// in\n    tag_420:\n        /* \"#utility.yul\":6600:6630   */\n      swap1\n      pop\n        /* \"#utility.yul\":6639:6672   */\n      tag_421\n        /* \"#utility.yul\":6667:6671   */\n      dup3\n        /* \"#utility.yul\":6659:6665   */\n      dup3\n        /* \"#utility.yul\":6639:6672   */\n      tag_286\n      jump\t// in\n    tag_421:\n        /* \"#utility.yul\":6549:6678   */\n      swap2\n      swap1\n      pop\n      jump\t// out\n        /* \"#utility.yul\":6684:6991   */\n    tag_288:\n        /* \"#utility.yul\":6745:6749   */\n      0x00\n        /* \"#utility.yul\":6835:6853   */\n      0xffffffffffffffff\n        /* \"#utility.yul\":6827:6833   */\n      dup3\n        /* \"#utility.yul\":6824:6854   */\n      gt\n        /* \"#utility.yul\":6821:6877   */\n      iszero\n      tag_423\n      jumpi\n        /* \"#utility.yul\":6857:6875   */\n      tag_424\n      tag_285\n      jump\t// in\n    tag_424:\n        /* \"#utility.yul\":6821:6877   */\n    tag_423:\n        /* \"#utility.yul\":6895:6924   */\n      tag_425\n        /* \"#utility.yul\":6917:6923   */\n      dup3\n        /* \"#utility.yul\":6895:6924   */\n      tag_277\n      jump\t// in\n    tag_425:\n        /* \"#utility.yul\":6887:6924   */\n      swap1\n      pop\n        /* \"#utility.yul\":6979:6983   */\n      0x20\n        /* \"#utility.yul\":6973:6977   */\n      dup2\n        /* \"#utility.yul\":6969:6984   */\n      add\n        /* \"#utility.yul\":6961:6984   */\n      swap1\n      pop\n        /* \"#utility.yul\":6684:6991   */\n      swap2\n      swap1\n      pop\n      jump\t// out\n        /* \"#utility.yul\":6997:7143   */\n    tag_289:\n        /* \"#utility.yul\":7094:7100   */\n      dup3\n        /* \"#utility.yul\":7089:7092   */\n      dup2\n        /* \"#utility.yul\":7084:7087   */\n      dup4\n        /* \"#utility.yul\":7071:7101   */\n      calldatacopy\n        /* \"#utility.yul\":7135:7136   */\n      0x00\n        /* \"#utility.yul\":7126:7132   */\n      dup4\n        /* \"#utility.yul\":7121:7124   */\n      dup4\n        /* \"#utility.yul\":7117:7133   */\n      add\n        /* \"#utility.yul\":7110:7137   */\n      mstore\n        /* \"#utility.yul\":6997:7143   */\n      pop\n      pop\n      pop\n      jump\t// out\n        /* \"#utility.yul\":7149:7572   */\n    tag_290:\n        /* \"#utility.yul\":7226:7231   */\n      0x00\n        /* \"#utility.yul\":7251:7316   */\n      tag_428\n        /* \"#utility.yul\":7267:7315   */\n      tag_429\n        /* \"#utility.yul\":7308:7314   */\n      dup5\n        /* \"#utility.yul\":7267:7315   */\n      tag_288\n      jump\t// in\n    tag_429:\n        /* \"#utility.yul\":7251:7316   */\n      tag_287\n      jump\t// in\n    tag_428:\n        /* \"#utility.yul\":7242:7316   */\n      swap1\n      pop\n        /* \"#utility.yul\":7339:7345   */\n      dup3\n        /* \"#utility.yul\":7332:7337   */\n      dup2\n        /* \"#utility.yul\":7325:7346   */\n      mstore\n        /* \"#utility.yul\":7377:7381   */\n      0x20\n        /* \"#utility.yul\":7370:7375   */\n      dup2\n        /* \"#utility.yul\":7366:7382   */\n      add\n        /* \"#utility.yul\":7415:7418   */\n      dup5\n        /* \"#utility.yul\":7406:7412   */\n      dup5\n        /* \"#utility.yul\":7401:7404   */\n      dup5\n        /* \"#utility.yul\":7397:7413   */\n      add\n        /* \"#utility.yul\":7394:7419   */\n      gt\n        /* \"#utility.yul\":7391:7503   */\n      iszero\n      tag_430\n      jumpi\n        /* \"#utility.yul\":7422:7501   */\n      tag_431\n      tag_284\n      jump\t// in\n    tag_431:\n        /* \"#utility.yul\":7391:7503   */\n    tag_430:\n        /* \"#utility.yul\":7512:7566   */\n      tag_432\n        /* \"#utility.yul\":7559:7565   */\n      dup5\n        /* \"#utility.yul\":7554:7557   */\n      dup3\n        /* \"#utility.yul\":7549:7552   */\n      dup6\n        /* \"#utility.yul\":7512:7566   */\n      tag_289\n      jump\t// in\n    tag_432:\n        /* \"#utility.yul\":7232:7572   */\n      pop\n        /* \"#utility.yul\":7149:7572   */\n      swap4\n      swap3\n      pop\n      pop\n      pop\n      jump\t// out\n        /* \"#utility.yul\":7591:7929   */\n    tag_291:\n        /* \"#utility.yul\":7646:7651   */\n      0x00\n        /* \"#utility.yul\":7695:7698   */\n      dup3\n        /* \"#utility.yul\":7688:7692   */\n      0x1f\n        /* \"#utility.yul\":7680:7686   */\n      dup4\n        /* \"#utility.yul\":7676:7693   */\n      add\n        /* \"#utility.yul\":7672:7699   */\n      slt\n        /* \"#utility.yul\":7662:7784   */\n      tag_434\n      jumpi\n        /* \"#utility.yul\":7703:7782   */\n      tag_435\n      tag_283\n      jump\t// in\n    tag_435:\n        /* \"#utility.yul\":7662:7784   */\n    tag_434:\n        /* \"#utility.yul\":7820:7826   */\n      dup2\n        /* \"#utility.yul\":7807:7827   */\n      calldataload\n        /* \"#utility.yul\":7845:7923   */\n      tag_436\n        /* \"#utility.yul\":7919:7922   */\n      dup5\n        /* \"#utility.yul\":7911:7917   */\n      dup3\n        /* \"#utility.yul\":7904:7908   */\n      0x20\n        /* \"#utility.yul\":7896:7902   */\n      dup7\n        /* \"#utility.yul\":7892:7909   */\n      add\n        /* \"#utility.yul\":7845:7923   */\n      tag_290\n      jump\t// in\n    tag_436:\n        /* \"#utility.yul\":7836:7923   */\n      swap2\n      pop\n        /* \"#utility.yul\":7652:7929   */\n      pop\n        /* \"#utility.yul\":7591:7929   */\n      swap3\n      swap2\n      pop\n      pop\n      jump\t// out\n        /* \"#utility.yul\":7935:8732   */\n    tag_78:\n        /* \"#utility.yul\":8021:8027   */\n      0x00\n        /* \"#utility.yul\":8029:8035   */\n      dup1\n        /* \"#utility.yul\":8037:8043   */\n      0x00\n        /* \"#utility.yul\":8086:8088   */\n      0x60\n        /* \"#utility.yul\":8074:8083   */\n      dup5\n        /* \"#utility.yul\":8065:8072   */\n      dup7\n        /* \"#utility.yul\":8061:8084   */\n      sub\n        /* \"#utility.yul\":8057:8089   */\n      slt\n        /* \"#utility.yul\":8054:8173   */\n      iszero\n      tag_438\n      jumpi\n        /* \"#utility.yul\":8092:8171   */\n      tag_439\n      tag_267\n      jump\t// in\n    tag_439:\n        /* \"#utility.yul\":8054:8173   */\n    tag_438:\n        /* \"#utility.yul\":8212:8213   */\n      0x00\n        /* \"#utility.yul\":8237:8290   */\n      tag_440\n        /* \"#utility.yul\":8282:8289   */\n      dup7\n        /* \"#utility.yul\":8273:8279   */\n      dup3\n        /* \"#utility.yul\":8262:8271   */\n      dup8\n        /* \"#utility.yul\":8258:8280   */\n      add\n        /* \"#utility.yul\":8237:8290   */\n      tag_282\n      jump\t// in\n    tag_440:\n        /* \"#utility.yul\":8227:8290   */\n      swap4\n      pop\n        /* \"#utility.yul\":8183:8300   */\n      pop\n        /* \"#utility.yul\":8339:8341   */\n      0x20\n        /* \"#utility.yul\":8365:8418   */\n      tag_441\n        /* \"#utility.yul\":8410:8417   */\n      dup7\n        /* \"#utility.yul\":8401:8407   */\n      dup3\n        /* \"#utility.yul\":8390:8399   */\n      dup8\n        /* \"#utility.yul\":8386:8408   */\n      add\n        /* \"#utility.yul\":8365:8418   */\n      tag_270\n      jump\t// in\n    tag_441:\n        /* \"#utility.yul\":8355:8418   */\n      swap3\n      pop\n        /* \"#utility.yul\":8310:8428   */\n      pop\n        /* \"#utility.yul\":8495:8497   */\n      0x40\n        /* \"#utility.yul\":8484:8493   */\n      dup5\n        /* \"#utility.yul\":8480:8498   */\n      add\n        /* \"#utility.yul\":8467:8499   */\n      calldataload\n        /* \"#utility.yul\":8526:8544   */\n      0xffffffffffffffff\n        /* \"#utility.yul\":8518:8524   */\n      dup2\n        /* \"#utility.yul\":8515:8545   */\n      gt\n        /* \"#utility.yul\":8512:8629   */\n      iszero\n      tag_442\n      jumpi\n        /* \"#utility.yul\":8548:8627   */\n      tag_443\n      tag_268\n      jump\t// in\n    tag_443:\n        /* \"#utility.yul\":8512:8629   */\n    tag_442:\n        /* \"#utility.yul\":8653:8715   */\n      tag_444\n        /* \"#utility.yul\":8707:8714   */\n      dup7\n        /* \"#utility.yul\":8698:8704   */\n      dup3\n        /* \"#utility.yul\":8687:8696   */\n      dup8\n        /* \"#utility.yul\":8683:8705   */\n      add\n        /* \"#utility.yul\":8653:8715   */\n      tag_291\n      jump\t// in\n    tag_444:\n        /* \"#utility.yul\":8643:8715   */\n      swap2\n      pop\n        /* \"#utility.yul\":8438:8725   */\n      pop\n        /* \"#utility.yul\":7935:8732   */\n      swap3\n      pop\n      swap3\n      pop\n      swap3\n      jump\t// out\n        /* \"#utility.yul\":8738:8907   */\n    tag_292:\n        /* \"#utility.yul\":8822:8833   */\n      0x00\n        /* \"#utility.yul\":8856:8862   */\n      dup3\n        /* \"#utility.yul\":8851:8854   */\n      dup3\n        /* \"#utility.yul\":8844:8863   */\n      mstore\n        /* \"#utility.yul\":8896:8900   */\n      0x20\n        /* \"#utility.yul\":8891:8894   */\n      dup3\n        /* \"#utility.yul\":8887:8901   */\n      add\n        /* \"#utility.yul\":8872:8901   */\n      swap1\n      pop\n        /* \"#utility.yul\":8738:8907   */\n      swap3\n      swap2\n      pop\n      pop\n      jump\t// out\n        /* \"#utility.yul\":8913:9086   */\n    tag_293:\n        /* \"#utility.yul\":9053:9078   */\n      0x6f6e6c79207369676e65722063616e2065786563757465000000000000000000\n        /* \"#utility.yul\":9049:9050   */\n      0x00\n        /* \"#utility.yul\":9041:9047   */\n      dup3\n        /* \"#utility.yul\":9037:9051   */\n      add\n        /* \"#utility.yul\":9030:9079   */\n      mstore\n        /* \"#utility.yul\":8913:9086   */\n      pop\n      jump\t// out\n        /* \"#utility.yul\":9092:9458   */\n    tag_294:\n        /* \"#utility.yul\":9234:9237   */\n      0x00\n        /* \"#utility.yul\":9255:9322   */\n      tag_448\n        /* \"#utility.yul\":9319:9321   */\n      0x17\n        /* \"#utility.yul\":9314:9317   */\n      dup4\n        /* \"#utility.yul\":9255:9322   */\n      tag_292\n      jump\t// in\n    tag_448:\n        /* \"#utility.yul\":9248:9322   */\n      swap2\n      pop\n        /* \"#utility.yul\":9331:9424   */\n      tag_449\n        /* \"#utility.yul\":9420:9423   */\n      dup3\n        /* \"#utility.yul\":9331:9424   */\n      tag_293\n      jump\t// in\n    tag_449:\n        /* \"#utility.yul\":9449:9451   */\n      0x20\n        /* \"#utility.yul\":9444:9447   */\n      dup3\n        /* \"#utility.yul\":9440:9452   */\n      add\n        /* \"#utility.yul\":9433:9452   */\n      swap1\n      pop\n        /* \"#utility.yul\":9092:9458   */\n      swap2\n      swap1\n      pop\n      jump\t// out\n        /* \"#utility.yul\":9464:9883   */\n    tag_99:\n        /* \"#utility.yul\":9630:9634   */\n      0x00\n        /* \"#utility.yul\":9668:9670   */\n      0x20\n        /* \"#utility.yul\":9657:9666   */\n      dup3\n        /* \"#utility.yul\":9653:9671   */\n      add\n        /* \"#utility.yul\":9645:9671   */\n      swap1\n      pop\n        /* \"#utility.yul\":9717:9726   */\n      dup2\n        /* \"#utility.yul\":9711:9715   */\n      dup2\n        /* \"#utility.yul\":9707:9727   */\n      sub\n        /* \"#utility.yul\":9703:9704   */\n      0x00\n        /* \"#utility.yul\":9692:9701   */\n      dup4\n        /* \"#utility.yul\":9688:9705   */\n      add\n        /* \"#utility.yul\":9681:9728   */\n      mstore\n        /* \"#utility.yul\":9745:9876   */\n      tag_451\n        /* \"#utility.yul\":9871:9875   */\n      dup2\n        /* \"#utility.yul\":9745:9876   */\n      tag_294\n      jump\t// in\n    tag_451:\n        /* \"#utility.yul\":9737:9876   */\n      swap1\n      pop\n        /* \"#utility.yul\":9464:9883   */\n      swap2\n      swap1\n      pop\n      jump\t// out\n        /* \"#utility.yul\":9889:10057   */\n    tag_295:\n        /* \"#utility.yul\":10029:10049   */\n      0x51756f72756d2063616e6e6f7420626520300000000000000000000000000000\n        /* \"#utility.yul\":10025:10026   */\n      0x00\n        /* \"#utility.yul\":10017:10023   */\n      dup3\n        /* \"#utility.yul\":10013:10027   */\n      add\n        /* \"#utility.yul\":10006:10050   */\n      mstore\n        /* \"#utility.yul\":9889:10057   */\n      pop\n      jump\t// out\n        /* \"#utility.yul\":10063:10429   */\n    tag_296:\n        /* \"#utility.yul\":10205:10208   */\n      0x00\n        /* \"#utility.yul\":10226:10293   */\n      tag_454\n        /* \"#utility.yul\":10290:10292   */\n      0x12\n        /* \"#utility.yul\":10285:10288   */\n      dup4\n        /* \"#utility.yul\":10226:10293   */\n      tag_292\n      jump\t// in\n    tag_454:\n        /* \"#utility.yul\":10219:10293   */\n      swap2\n      pop\n        /* \"#utility.yul\":10302:10395   */\n      tag_455\n        /* \"#utility.yul\":10391:10394   */\n      dup3\n        /* \"#utility.yul\":10302:10395   */\n      tag_295\n      jump\t// in\n    tag_455:\n        /* \"#utility.yul\":10420:10422   */\n      0x20\n        /* \"#utility.yul\":10415:10418   */\n      dup3\n        /* \"#utility.yul\":10411:10423   */\n      add\n        /* \"#utility.yul\":10404:10423   */\n      swap1\n      pop\n        /* \"#utility.yul\":10063:10429   */\n      swap2\n      swap1\n      pop\n      jump\t// out\n        /* \"#utility.yul\":10435:10854   */\n    tag_103:\n        /* \"#utility.yul\":10601:10605   */\n      0x00\n        /* \"#utility.yul\":10639:10641   */\n      0x20\n        /* \"#utility.yul\":10628:10637   */\n      dup3\n        /* \"#utility.yul\":10624:10642   */\n      add\n        /* \"#utility.yul\":10616:10642   */\n      swap1\n      pop\n        /* \"#utility.yul\":10688:10697   */\n      dup2\n        /* \"#utility.yul\":10682:10686   */\n      dup2\n        /* \"#utility.yul\":10678:10698   */\n      sub\n        /* \"#utility.yul\":10674:10675   */\n      0x00\n        /* \"#utility.yul\":10663:10672   */\n      dup4\n        /* \"#utility.yul\":10659:10676   */\n      add\n        /* \"#utility.yul\":10652:10699   */\n      mstore\n        /* \"#utility.yul\":10716:10847   */\n      tag_457\n        /* \"#utility.yul\":10842:10846   */\n      dup2\n        /* \"#utility.yul\":10716:10847   */\n      tag_296\n      jump\t// in\n    tag_457:\n        /* \"#utility.yul\":10708:10847   */\n      swap1\n      pop\n        /* \"#utility.yul\":10435:10854   */\n      swap2\n      swap1\n      pop\n      jump\t// out\n        /* \"#utility.yul\":10860:10939   */\n    tag_297:\n        /* \"#utility.yul\":10899:10906   */\n      0x00\n        /* \"#utility.yul\":10928:10933   */\n      dup2\n        /* \"#utility.yul\":10917:10933   */\n      swap1\n      pop\n        /* \"#utility.yul\":10860:10939   */\n      swap2\n      swap1\n      pop\n      jump\t// out\n        /* \"#utility.yul\":10945:11102   */\n    tag_298:\n        /* \"#utility.yul\":11050:11095   */\n      tag_460\n        /* \"#utility.yul\":11070:11094   */\n      tag_461\n        /* \"#utility.yul\":11088:11093   */\n      dup3\n        /* \"#utility.yul\":11070:11094   */\n      tag_264\n      jump\t// in\n    tag_461:\n        /* \"#utility.yul\":11050:11095   */\n      tag_297\n      jump\t// in\n    tag_460:\n        /* \"#utility.yul\":11045:11048   */\n      dup3\n        /* \"#utility.yul\":11038:11096   */\n      mstore\n        /* \"#utility.yul\":10945:11102   */\n      pop\n      pop\n      jump\t// out\n        /* \"#utility.yul\":11108:11364   */\n    tag_106:\n        /* \"#utility.yul\":11220:11223   */\n      0x00\n        /* \"#utility.yul\":11235:11310   */\n      tag_463\n        /* \"#utility.yul\":11306:11309   */\n      dup3\n        /* \"#utility.yul\":11297:11303   */\n      dup5\n        /* \"#utility.yul\":11235:11310   */\n      tag_298\n      jump\t// in\n    tag_463:\n        /* \"#utility.yul\":11335:11337   */\n      0x20\n        /* \"#utility.yul\":11330:11333   */\n      dup3\n        /* \"#utility.yul\":11326:11338   */\n      add\n        /* \"#utility.yul\":11319:11338   */\n      swap2\n      pop\n        /* \"#utility.yul\":11355:11358   */\n      dup2\n        /* \"#utility.yul\":11348:11358   */\n      swap1\n      pop\n        /* \"#utility.yul\":11108:11364   */\n      swap3\n      swap2\n      pop\n      pop\n      jump\t// out\n        /* \"#utility.yul\":11370:11537   */\n    tag_299:\n        /* \"#utility.yul\":11510:11529   */\n      0x747820646f6573206e6f74206578697374000000000000000000000000000000\n        /* \"#utility.yul\":11506:11507   */\n      0x00\n        /* \"#utility.yul\":11498:11504   */\n      dup3\n        /* \"#utility.yul\":11494:11508   */\n      add\n        /* \"#utility.yul\":11487:11530   */\n      mstore\n        /* \"#utility.yul\":11370:11537   */\n      pop\n      jump\t// out\n        /* \"#utility.yul\":11543:11909   */\n    tag_300:\n        /* \"#utility.yul\":11685:11688   */\n      0x00\n        /* \"#utility.yul\":11706:11773   */\n      tag_466\n        /* \"#utility.yul\":11770:11772   */\n      0x11\n        /* \"#utility.yul\":11765:11768   */\n      dup4\n        /* \"#utility.yul\":11706:11773   */\n      tag_292\n      jump\t// in\n    tag_466:\n        /* \"#utility.yul\":11699:11773   */\n      swap2\n      pop\n        /* \"#utility.yul\":11782:11875   */\n      tag_467\n        /* \"#utility.yul\":11871:11874   */\n      dup3\n        /* \"#utility.yul\":11782:11875   */\n      tag_299\n      jump\t// in\n    tag_467:\n        /* \"#utility.yul\":11900:11902   */\n      0x20\n        /* \"#utility.yul\":11895:11898   */\n      dup3\n        /* \"#utility.yul\":11891:11903   */\n      add\n        /* \"#utility.yul\":11884:11903   */\n      swap1\n      pop\n        /* \"#utility.yul\":11543:11909   */\n      swap2\n      swap1\n      pop\n      jump\t// out\n        /* \"#utility.yul\":11915:12334   */\n    tag_114:\n        /* \"#utility.yul\":12081:12085   */\n      0x00\n        /* \"#utility.yul\":12119:12121   */\n      0x20\n        /* \"#utility.yul\":12108:12117   */\n      dup3\n        /* \"#utility.yul\":12104:12122   */\n      add\n        /* \"#utility.yul\":12096:12122   */\n      swap1\n      pop\n        /* \"#utility.yul\":12168:12177   */\n      dup2\n        /* \"#utility.yul\":12162:12166   */\n      dup2\n        /* \"#utility.yul\":12158:12178   */\n      sub\n        /* \"#utility.yul\":12154:12155   */\n      0x00\n        /* \"#utility.yul\":12143:12152   */\n      dup4\n        /* \"#utility.yul\":12139:12156   */\n      add\n        /* \"#utility.yul\":12132:12179   */\n      mstore\n        /* \"#utility.yul\":12196:12327   */\n      tag_469\n        /* \"#utility.yul\":12322:12326   */\n      dup2\n        /* \"#utility.yul\":12196:12327   */\n      tag_300\n      jump\t// in\n    tag_469:\n        /* \"#utility.yul\":12188:12327   */\n      swap1\n      pop\n        /* \"#utility.yul\":11915:12334   */\n      swap2\n      swap1\n      pop\n      jump\t// out\n        /* \"#utility.yul\":12340:12520   */\n    tag_118:\n        /* \"#utility.yul\":12388:12465   */\n      0x4e487b7100000000000000000000000000000000000000000000000000000000\n        /* \"#utility.yul\":12385:12386   */\n      0x00\n        /* \"#utility.yul\":12378:12466   */\n      mstore\n        /* \"#utility.yul\":12485:12489   */\n      0x32\n        /* \"#utility.yul\":12482:12483   */\n      0x04\n        /* \"#utility.yul\":12475:12490   */\n      mstore\n        /* \"#utility.yul\":12509:12513   */\n      0x24\n        /* \"#utility.yul\":12506:12507   */\n      0x00\n        /* \"#utility.yul\":12499:12514   */\n      revert\n        /* \"#utility.yul\":12526:12695   */\n    tag_301:\n        /* \"#utility.yul\":12666:12687   */\n      0x747820616c726561647920657865637574656400000000000000000000000000\n        /* \"#utility.yul\":12662:12663   */\n      0x00\n        /* \"#utility.yul\":12654:12660   */\n      dup3\n        /* \"#utility.yul\":12650:12664   */\n      add\n        /* \"#utility.yul\":12643:12688   */\n      mstore\n        /* \"#utility.yul\":12526:12695   */\n      pop\n      jump\t// out\n        /* \"#utility.yul\":12701:13067   */\n    tag_302:\n        /* \"#utility.yul\":12843:12846   */\n      0x00\n        /* \"#utility.yul\":12864:12931   */\n      tag_473\n        /* \"#utility.yul\":12928:12930   */\n      0x13\n        /* \"#utility.yul\":12923:12926   */\n      dup4\n        /* \"#utility.yul\":12864:12931   */\n      tag_292\n      jump\t// in\n    tag_473:\n        /* \"#utility.yul\":12857:12931   */\n      swap2\n      pop\n        /* \"#utility.yul\":12940:13033   */\n      tag_474\n        /* \"#utility.yul\":13029:13032   */\n      dup3\n        /* \"#utility.yul\":12940:13033   */\n      tag_301\n      jump\t// in\n    tag_474:\n        /* \"#utility.yul\":13058:13060   */\n      0x20\n        /* \"#utility.yul\":13053:13056   */\n      dup3\n        /* \"#utility.yul\":13049:13061   */\n      add\n        /* \"#utility.yul\":13042:13061   */\n      swap1\n      pop\n        /* \"#utility.yul\":12701:13067   */\n      swap2\n      swap1\n      pop\n      jump\t// out\n        /* \"#utility.yul\":13073:13492   */\n    tag_122:\n        /* \"#utility.yul\":13239:13243   */\n      0x00\n        /* \"#utility.yul\":13277:13279   */\n      0x20\n        /* \"#utility.yul\":13266:13275   */\n      dup3\n        /* \"#utility.yul\":13262:13280   */\n      add\n        /* \"#utility.yul\":13254:13280   */\n      swap1\n      pop\n        /* \"#utility.yul\":13326:13335   */\n      dup2\n        /* \"#utility.yul\":13320:13324   */\n      dup2\n        /* \"#utility.yul\":13316:13336   */\n      sub\n        /* \"#utility.yul\":13312:13313   */\n      0x00\n        /* \"#utility.yul\":13301:13310   */\n      dup4\n        /* \"#utility.yul\":13297:13314   */\n      add\n        /* \"#utility.yul\":13290:13337   */\n      mstore\n        /* \"#utility.yul\":13354:13485   */\n      tag_476\n        /* \"#utility.yul\":13480:13484   */\n      dup2\n        /* \"#utility.yul\":13354:13485   */\n      tag_302\n      jump\t// in\n    tag_476:\n        /* \"#utility.yul\":13346:13485   */\n      swap1\n      pop\n        /* \"#utility.yul\":13073:13492   */\n      swap2\n      swap1\n      pop\n      jump\t// out\n        /* \"#utility.yul\":13498:13664   */\n    tag_303:\n        /* \"#utility.yul\":13638:13656   */\n      0x7478206e6f7420636f6e6669726d656400000000000000000000000000000000\n        /* \"#utility.yul\":13634:13635   */\n      0x00\n        /* \"#utility.yul\":13626:13632   */\n      dup3\n        /* \"#utility.yul\":13622:13636   */\n      add\n        /* \"#utility.yul\":13615:13657   */\n      mstore\n        /* \"#utility.yul\":13498:13664   */\n      pop\n      jump\t// out\n        /* \"#utility.yul\":13670:14036   */\n    tag_304:\n        /* \"#utility.yul\":13812:13815   */\n      0x00\n        /* \"#utility.yul\":13833:13900   */\n      tag_479\n        /* \"#utility.yul\":13897:13899   */\n      0x10\n        /* \"#utility.yul\":13892:13895   */\n      dup4\n        /* \"#utility.yul\":13833:13900   */\n      tag_292\n      jump\t// in\n    tag_479:\n        /* \"#utility.yul\":13826:13900   */\n      swap2\n      pop\n        /* \"#utility.yul\":13909:14002   */\n      tag_480\n        /* \"#utility.yul\":13998:14001   */\n      dup3\n        /* \"#utility.yul\":13909:14002   */\n      tag_303\n      jump\t// in\n    tag_480:\n        /* \"#utility.yul\":14027:14029   */\n      0x20\n        /* \"#utility.yul\":14022:14025   */\n      dup3\n        /* \"#utility.yul\":14018:14030   */\n      add\n        /* \"#utility.yul\":14011:14030   */\n      swap1\n      pop\n        /* \"#utility.yul\":13670:14036   */\n      swap2\n      swap1\n      pop\n      jump\t// out\n        /* \"#utility.yul\":14042:14461   */\n    tag_129:\n        /* \"#utility.yul\":14208:14212   */\n      0x00\n        /* \"#utility.yul\":14246:14248   */\n      0x20\n        /* \"#utility.yul\":14235:14244   */\n      dup3\n        /* \"#utility.yul\":14231:14249   */\n      add\n        /* \"#utility.yul\":14223:14249   */\n      swap1\n      pop\n        /* \"#utility.yul\":14295:14304   */\n      dup2\n        /* \"#utility.yul\":14289:14293   */\n      dup2\n        /* \"#utility.yul\":14285:14305   */\n      sub\n        /* \"#utility.yul\":14281:14282   */\n      0x00\n        /* \"#utility.yul\":14270:14279   */\n      dup4\n        /* \"#utility.yul\":14266:14283   */\n      add\n        /* \"#utility.yul\":14259:14306   */\n      mstore\n        /* \"#utility.yul\":14323:14454   */\n      tag_482\n        /* \"#utility.yul\":14449:14453   */\n      dup2\n        /* \"#utility.yul\":14323:14454   */\n      tag_304\n      jump\t// in\n    tag_482:\n        /* \"#utility.yul\":14315:14454   */\n      swap1\n      pop\n        /* \"#utility.yul\":14042:14461   */\n      swap2\n      swap1\n      pop\n      jump\t// out\n        /* \"#utility.yul\":14467:14647   */\n    tag_305:\n        /* \"#utility.yul\":14515:14592   */\n      0x4e487b7100000000000000000000000000000000000000000000000000000000\n        /* \"#utility.yul\":14512:14513   */\n      0x00\n        /* \"#utility.yul\":14505:14593   */\n      mstore\n        /* \"#utility.yul\":14612:14616   */\n      0x11\n        /* \"#utility.yul\":14609:14610   */\n      0x04\n        /* \"#utility.yul\":14602:14617   */\n      mstore\n        /* \"#utility.yul\":14636:14640   */\n      0x24\n        /* \"#utility.yul\":14633:14634   */\n      0x00\n        /* \"#utility.yul\":14626:14641   */\n      revert\n        /* \"#utility.yul\":14653:14847   */\n    tag_131:\n        /* \"#utility.yul\":14693:14697   */\n      0x00\n        /* \"#utility.yul\":14713:14733   */\n      tag_485\n        /* \"#utility.yul\":14731:14732   */\n      dup3\n        /* \"#utility.yul\":14713:14733   */\n      tag_264\n      jump\t// in\n    tag_485:\n        /* \"#utility.yul\":14708:14733   */\n      swap2\n      pop\n        /* \"#utility.yul\":14747:14767   */\n      tag_486\n        /* \"#utility.yul\":14765:14766   */\n      dup4\n        /* \"#utility.yul\":14747:14767   */\n      tag_264\n      jump\t// in\n    tag_486:\n        /* \"#utility.yul\":14742:14767   */\n      swap3\n      pop\n        /* \"#utility.yul\":14791:14792   */\n      dup3\n        /* \"#utility.yul\":14788:14789   */\n      dup3\n        /* \"#utility.yul\":14784:14793   */\n      sub\n        /* \"#utility.yul\":14776:14793   */\n      swap1\n      pop\n        /* \"#utility.yul\":14815:14816   */\n      dup2\n        /* \"#utility.yul\":14809:14813   */\n      dup2\n        /* \"#utility.yul\":14806:14817   */\n      gt\n        /* \"#utility.yul\":14803:14840   */\n      iszero\n      tag_487\n      jumpi\n        /* \"#utility.yul\":14820:14838   */\n      tag_488\n      tag_305\n      jump\t// in\n    tag_488:\n        /* \"#utility.yul\":14803:14840   */\n    tag_487:\n        /* \"#utility.yul\":14653:14847   */\n      swap3\n      swap2\n      pop\n      pop\n      jump\t// out\n        /* \"#utility.yul\":14853:15033   */\n    tag_306:\n        /* \"#utility.yul\":14901:14978   */\n      0x4e487b7100000000000000000000000000000000000000000000000000000000\n        /* \"#utility.yul\":14898:14899   */\n      0x00\n        /* \"#utility.yul\":14891:14979   */\n      mstore\n        /* \"#utility.yul\":14998:15002   */\n      0x22\n        /* \"#utility.yul\":14995:14996   */\n      0x04\n        /* \"#utility.yul\":14988:15003   */\n      mstore\n        /* \"#utility.yul\":15022:15026   */\n      0x24\n        /* \"#utility.yul\":15019:15020   */\n      0x00\n        /* \"#utility.yul\":15012:15027   */\n      revert\n        /* \"#utility.yul\":15039:15359   */\n    tag_138:\n        /* \"#utility.yul\":15083:15089   */\n      0x00\n        /* \"#utility.yul\":15120:15121   */\n      0x02\n        /* \"#utility.yul\":15114:15118   */\n      dup3\n        /* \"#utility.yul\":15110:15122   */\n      div\n        /* \"#utility.yul\":15100:15122   */\n      swap1\n      pop\n        /* \"#utility.yul\":15167:15168   */\n      0x01\n        /* \"#utility.yul\":15161:15165   */\n      dup3\n        /* \"#utility.yul\":15157:15169   */\n      and\n        /* \"#utility.yul\":15188:15206   */\n      dup1\n        /* \"#utility.yul\":15178:15259   */\n      tag_491\n      jumpi\n        /* \"#utility.yul\":15244:15248   */\n      0x7f\n        /* \"#utility.yul\":15236:15242   */\n      dup3\n        /* \"#utility.yul\":15232:15249   */\n      and\n        /* \"#utility.yul\":15222:15249   */\n      swap2\n      pop\n        /* \"#utility.yul\":15178:15259   */\n    tag_491:\n        /* \"#utility.yul\":15306:15308   */\n      0x20\n        /* \"#utility.yul\":15298:15304   */\n      dup3\n        /* \"#utility.yul\":15295:15309   */\n      lt\n        /* \"#utility.yul\":15275:15293   */\n      dup2\n        /* \"#utility.yul\":15272:15310   */\n      sub\n        /* \"#utility.yul\":15269:15353   */\n      tag_492\n      jumpi\n        /* \"#utility.yul\":15325:15343   */\n      tag_493\n      tag_306\n      jump\t// in\n    tag_493:\n        /* \"#utility.yul\":15269:15353   */\n    tag_492:\n        /* \"#utility.yul\":15090:15359   */\n      pop\n        /* \"#utility.yul\":15039:15359   */\n      swap2\n      swap1\n      pop\n      jump\t// out\n        /* \"#utility.yul\":15365:15537   */\n    tag_307:\n        /* \"#utility.yul\":15505:15529   */\n      0x63616e6e6f742073656e6420746f206e6f776865726500000000000000000000\n        /* \"#utility.yul\":15501:15502   */\n      0x00\n        /* \"#utility.yul\":15493:15499   */\n      dup3\n        /* \"#utility.yul\":15489:15503   */\n      add\n        /* \"#utility.yul\":15482:15530   */\n      mstore\n        /* \"#utility.yul\":15365:15537   */\n      pop\n      jump\t// out\n        /* \"#utility.yul\":15543:15909   */\n    tag_308:\n        /* \"#utility.yul\":15685:15688   */\n      0x00\n        /* \"#utility.yul\":15706:15773   */\n      tag_496\n        /* \"#utility.yul\":15770:15772   */\n      0x16\n        /* \"#utility.yul\":15765:15768   */\n      dup4\n        /* \"#utility.yul\":15706:15773   */\n      tag_292\n      jump\t// in\n    tag_496:\n        /* \"#utility.yul\":15699:15773   */\n      swap2\n      pop\n        /* \"#utility.yul\":15782:15875   */\n      tag_497\n        /* \"#utility.yul\":15871:15874   */\n      dup3\n        /* \"#utility.yul\":15782:15875   */\n      tag_307\n      jump\t// in\n    tag_497:\n        /* \"#utility.yul\":15900:15902   */\n      0x20\n        /* \"#utility.yul\":15895:15898   */\n      dup3\n        /* \"#utility.yul\":15891:15903   */\n      add\n        /* \"#utility.yul\":15884:15903   */\n      swap1\n      pop\n        /* \"#utility.yul\":15543:15909   */\n      swap2\n      swap1\n      pop\n      jump\t// out\n        /* \"#utility.yul\":15915:16334   */\n    tag_149:\n        /* \"#utility.yul\":16081:16085   */\n      0x00\n        /* \"#utility.yul\":16119:16121   */\n      0x20\n        /* \"#utility.yul\":16108:16117   */\n      dup3\n        /* \"#utility.yul\":16104:16122   */\n      add\n        /* \"#utility.yul\":16096:16122   */\n      swap1\n      pop\n        /* \"#utility.yul\":16168:16177   */\n      dup2\n        /* \"#utility.yul\":16162:16166   */\n      dup2\n        /* \"#utility.yul\":16158:16178   */\n      sub\n        /* \"#utility.yul\":16154:16155   */\n      0x00\n        /* \"#utility.yul\":16143:16152   */\n      dup4\n        /* \"#utility.yul\":16139:16156   */\n      add\n        /* \"#utility.yul\":16132:16179   */\n      mstore\n        /* \"#utility.yul\":16196:16327   */\n      tag_499\n        /* \"#utility.yul\":16322:16326   */\n      dup2\n        /* \"#utility.yul\":16196:16327   */\n      tag_308\n      jump\t// in\n    tag_499:\n        /* \"#utility.yul\":16188:16327   */\n      swap1\n      pop\n        /* \"#utility.yul\":15915:16334   */\n      swap2\n      swap1\n      pop\n      jump\t// out\n        /* \"#utility.yul\":16340:16510   */\n    tag_309:\n        /* \"#utility.yul\":16480:16502   */\n      0x63616e6e6f742073656e6420656d707479207478000000000000000000000000\n        /* \"#utility.yul\":16476:16477   */\n      0x00\n        /* \"#utility.yul\":16468:16474   */\n      dup3\n        /* \"#utility.yul\":16464:16478   */\n      add\n        /* \"#utility.yul\":16457:16503   */\n      mstore\n        /* \"#utility.yul\":16340:16510   */\n      pop\n      jump\t// out\n        /* \"#utility.yul\":16516:16882   */\n    tag_310:\n        /* \"#utility.yul\":16658:16661   */\n      0x00\n        /* \"#utility.yul\":16679:16746   */\n      tag_502\n        /* \"#utility.yul\":16743:16745   */\n      0x14\n        /* \"#utility.yul\":16738:16741   */\n      dup4\n        /* \"#utility.yul\":16679:16746   */\n      tag_292\n      jump\t// in\n    tag_502:\n        /* \"#utility.yul\":16672:16746   */\n      swap2\n      pop\n        /* \"#utility.yul\":16755:16848   */\n      tag_503\n        /* \"#utility.yul\":16844:16847   */\n      dup3\n        /* \"#utility.yul\":16755:16848   */\n      tag_309\n      jump\t// in\n    tag_503:\n        /* \"#utility.yul\":16873:16875   */\n      0x20\n        /* \"#utility.yul\":16868:16871   */\n      dup3\n        /* \"#utility.yul\":16864:16876   */\n      add\n        /* \"#utility.yul\":16857:16876   */\n      swap1\n      pop\n        /* \"#utility.yul\":16516:16882   */\n      swap2\n      swap1\n      pop\n      jump\t// out\n        /* \"#utility.yul\":16888:17307   */\n    tag_152:\n        /* \"#utility.yul\":17054:17058   */\n      0x00\n        /* \"#utility.yul\":17092:17094   */\n      0x20\n        /* \"#utility.yul\":17081:17090   */\n      dup3\n        /* \"#utility.yul\":17077:17095   */\n      add\n        /* \"#utility.yul\":17069:17095   */\n      swap1\n      pop\n        /* \"#utility.yul\":17141:17150   */\n      dup2\n        /* \"#utility.yul\":17135:17139   */\n      dup2\n        /* \"#utility.yul\":17131:17151   */\n      sub\n        /* \"#utility.yul\":17127:17128   */\n      0x00\n        /* \"#utility.yul\":17116:17125   */\n      dup4\n        /* \"#utility.yul\":17112:17129   */\n      add\n        /* \"#utility.yul\":17105:17152   */\n      mstore\n        /* \"#utility.yul\":17169:17300   */\n      tag_505\n        /* \"#utility.yul\":17295:17299   */\n      dup2\n        /* \"#utility.yul\":17169:17300   */\n      tag_310\n      jump\t// in\n    tag_505:\n        /* \"#utility.yul\":17161:17300   */\n      swap1\n      pop\n        /* \"#utility.yul\":16888:17307   */\n      swap2\n      swap1\n      pop\n      jump\t// out\n        /* \"#utility.yul\":17313:17541   */\n    tag_311:\n        /* \"#utility.yul\":17453:17487   */\n      0x63616e6e6f742070726f706f73652073656e64696e67206d6f7265207468616e\n        /* \"#utility.yul\":17449:17450   */\n      0x00\n        /* \"#utility.yul\":17441:17447   */\n      dup3\n        /* \"#utility.yul\":17437:17451   */\n      add\n        /* \"#utility.yul\":17430:17488   */\n      mstore\n        /* \"#utility.yul\":17522:17533   */\n      0x2073616665206861730000000000000000000000000000000000000000000000\n        /* \"#utility.yul\":17517:17519   */\n      0x20\n        /* \"#utility.yul\":17509:17515   */\n      dup3\n        /* \"#utility.yul\":17505:17520   */\n      add\n        /* \"#utility.yul\":17498:17534   */\n      mstore\n        /* \"#utility.yul\":17313:17541   */\n      pop\n      jump\t// out\n        /* \"#utility.yul\":17547:17913   */\n    tag_312:\n        /* \"#utility.yul\":17689:17692   */\n      0x00\n        /* \"#utility.yul\":17710:17777   */\n      tag_508\n        /* \"#utility.yul\":17774:17776   */\n      0x29\n        /* \"#utility.yul\":17769:17772   */\n      dup4\n        /* \"#utility.yul\":17710:17777   */\n      tag_292\n      jump\t// in\n    tag_508:\n        /* \"#utility.yul\":17703:17777   */\n      swap2\n      pop\n        /* \"#utility.yul\":17786:17879   */\n      tag_509\n        /* \"#utility.yul\":17875:17878   */\n      dup3\n        /* \"#utility.yul\":17786:17879   */\n      tag_311\n      jump\t// in\n    tag_509:\n        /* \"#utility.yul\":17904:17906   */\n      0x40\n        /* \"#utility.yul\":17899:17902   */\n      dup3\n        /* \"#utility.yul\":17895:17907   */\n      add\n        /* \"#utility.yul\":17888:17907   */\n      swap1\n      pop\n        /* \"#utility.yul\":17547:17913   */\n      swap2\n      swap1\n      pop\n      jump\t// out\n        /* \"#utility.yul\":17919:18338   */\n    tag_155:\n        /* \"#utility.yul\":18085:18089   */\n      0x00\n        /* \"#utility.yul\":18123:18125   */\n      0x20\n        /* \"#utility.yul\":18112:18121   */\n      dup3\n        /* \"#utility.yul\":18108:18126   */\n      add\n        /* \"#utility.yul\":18100:18126   */\n      swap1\n      pop\n        /* \"#utility.yul\":18172:18181   */\n      dup2\n        /* \"#utility.yul\":18166:18170   */\n      dup2\n        /* \"#utility.yul\":18162:18182   */\n      sub\n        /* \"#utility.yul\":18158:18159   */\n      0x00\n        /* \"#utility.yul\":18147:18156   */\n      dup4\n        /* \"#utility.yul\":18143:18160   */\n      add\n        /* \"#utility.yul\":18136:18183   */\n      mstore\n        /* \"#utility.yul\":18200:18331   */\n      tag_511\n        /* \"#utility.yul\":18326:18330   */\n      dup2\n        /* \"#utility.yul\":18200:18331   */\n      tag_312\n      jump\t// in\n    tag_511:\n        /* \"#utility.yul\":18192:18331   */\n      swap1\n      pop\n        /* \"#utility.yul\":17919:18338   */\n      swap2\n      swap1\n      pop\n      jump\t// out\n        /* \"#utility.yul\":18344:18521   */\n    tag_313:\n        /* \"#utility.yul\":18484:18513   */\n      0x5369676e65722063616e6e6f7420626520616464726573732830290000000000\n        /* \"#utility.yul\":18480:18481   */\n      0x00\n        /* \"#utility.yul\":18472:18478   */\n      dup3\n        /* \"#utility.yul\":18468:18482   */\n      add\n        /* \"#utility.yul\":18461:18514   */\n      mstore\n        /* \"#utility.yul\":18344:18521   */\n      pop\n      jump\t// out\n        /* \"#utility.yul\":18527:18893   */\n    tag_314:\n        /* \"#utility.yul\":18669:18672   */\n      0x00\n        /* \"#utility.yul\":18690:18757   */\n      tag_514\n        /* \"#utility.yul\":18754:18756   */\n      0x1b\n        /* \"#utility.yul\":18749:18752   */\n      dup4\n        /* \"#utility.yul\":18690:18757   */\n      tag_292\n      jump\t// in\n    tag_514:\n        /* \"#utility.yul\":18683:18757   */\n      swap2\n      pop\n        /* \"#utility.yul\":18766:18859   */\n      tag_515\n        /* \"#utility.yul\":18855:18858   */\n      dup3\n        /* \"#utility.yul\":18766:18859   */\n      tag_313\n      jump\t// in\n    tag_515:\n        /* \"#utility.yul\":18884:18886   */\n      0x20\n        /* \"#utility.yul\":18879:18882   */\n      dup3\n        /* \"#utility.yul\":18875:18887   */\n      add\n        /* \"#utility.yul\":18868:18887   */\n      swap1\n      pop\n        /* \"#utility.yul\":18527:18893   */\n      swap2\n      swap1\n      pop\n      jump\t// out\n        /* \"#utility.yul\":18899:19318   */\n    tag_164:\n        /* \"#utility.yul\":19065:19069   */\n      0x00\n        /* \"#utility.yul\":19103:19105   */\n      0x20\n        /* \"#utility.yul\":19092:19101   */\n      dup3\n        /* \"#utility.yul\":19088:19106   */\n      add\n        /* \"#utility.yul\":19080:19106   */\n      swap1\n      pop\n        /* \"#utility.yul\":19152:19161   */\n      dup2\n        /* \"#utility.yul\":19146:19150   */\n      dup2\n        /* \"#utility.yul\":19142:19162   */\n      sub\n        /* \"#utility.yul\":19138:19139   */\n      0x00\n        /* \"#utility.yul\":19127:19136   */\n      dup4\n        /* \"#utility.yul\":19123:19140   */\n      add\n        /* \"#utility.yul\":19116:19163   */\n      mstore\n        /* \"#utility.yul\":19180:19311   */\n      tag_517\n        /* \"#utility.yul\":19306:19310   */\n      dup2\n        /* \"#utility.yul\":19180:19311   */\n      tag_314\n      jump\t// in\n    tag_517:\n        /* \"#utility.yul\":19172:19311   */\n      swap1\n      pop\n        /* \"#utility.yul\":18899:19318   */\n      swap2\n      swap1\n      pop\n      jump\t// out\n        /* \"#utility.yul\":19324:19493   */\n    tag_315:\n        /* \"#utility.yul\":19464:19485   */\n      0x63616e6e6f742073656e64206e756c6c20747800000000000000000000000000\n        /* \"#utility.yul\":19460:19461   */\n      0x00\n        /* \"#utility.yul\":19452:19458   */\n      dup3\n        /* \"#utility.yul\":19448:19462   */\n      add\n        /* \"#utility.yul\":19441:19486   */\n      mstore\n        /* \"#utility.yul\":19324:19493   */\n      pop\n      jump\t// out\n        /* \"#utility.yul\":19499:19865   */\n    tag_316:\n        /* \"#utility.yul\":19641:19644   */\n      0x00\n        /* \"#utility.yul\":19662:19729   */\n      tag_520\n        /* \"#utility.yul\":19726:19728   */\n      0x13\n        /* \"#utility.yul\":19721:19724   */\n      dup4\n        /* \"#utility.yul\":19662:19729   */\n      tag_292\n      jump\t// in\n    tag_520:\n        /* \"#utility.yul\":19655:19729   */\n      swap2\n      pop\n        /* \"#utility.yul\":19738:19831   */\n      tag_521\n        /* \"#utility.yul\":19827:19830   */\n      dup3\n        /* \"#utility.yul\":19738:19831   */\n      tag_315\n      jump\t// in\n    tag_521:\n        /* \"#utility.yul\":19856:19858   */\n      0x20\n        /* \"#utility.yul\":19851:19854   */\n      dup3\n        /* \"#utility.yul\":19847:19859   */\n      add\n        /* \"#utility.yul\":19840:19859   */\n      swap1\n      pop\n        /* \"#utility.yul\":19499:19865   */\n      swap2\n      swap1\n      pop\n      jump\t// out\n        /* \"#utility.yul\":19871:20290   */\n    tag_175:\n        /* \"#utility.yul\":20037:20041   */\n      0x00\n        /* \"#utility.yul\":20075:20077   */\n      0x20\n        /* \"#utility.yul\":20064:20073   */\n      dup3\n        /* \"#utility.yul\":20060:20078   */\n      add\n        /* \"#utility.yul\":20052:20078   */\n      swap1\n      pop\n        /* \"#utility.yul\":20124:20133   */\n      dup2\n        /* \"#utility.yul\":20118:20122   */\n      dup2\n        /* \"#utility.yul\":20114:20134   */\n      sub\n        /* \"#utility.yul\":20110:20111   */\n      0x00\n        /* \"#utility.yul\":20099:20108   */\n      dup4\n        /* \"#utility.yul\":20095:20112   */\n      add\n        /* \"#utility.yul\":20088:20135   */\n      mstore\n        /* \"#utility.yul\":20152:20283   */\n      tag_523\n        /* \"#utility.yul\":20278:20282   */\n      dup2\n        /* \"#utility.yul\":20152:20283   */\n      tag_316\n      jump\t// in\n    tag_523:\n        /* \"#utility.yul\":20144:20283   */\n      swap1\n      pop\n        /* \"#utility.yul\":19871:20290   */\n      swap2\n      swap1\n      pop\n      jump\t// out\n        /* \"#utility.yul\":20296:20466   */\n    tag_317:\n        /* \"#utility.yul\":20436:20458   */\n      0x747820616c726561647920636f6e6669726d6564000000000000000000000000\n        /* \"#utility.yul\":20432:20433   */\n      0x00\n        /* \"#utility.yul\":20424:20430   */\n      dup3\n        /* \"#utility.yul\":20420:20434   */\n      add\n        /* \"#utility.yul\":20413:20459   */\n      mstore\n        /* \"#utility.yul\":20296:20466   */\n      pop\n      jump\t// out\n        /* \"#utility.yul\":20472:20838   */\n    tag_318:\n        /* \"#utility.yul\":20614:20617   */\n      0x00\n        /* \"#utility.yul\":20635:20702   */\n      tag_526\n        /* \"#utility.yul\":20699:20701   */\n      0x14\n        /* \"#utility.yul\":20694:20697   */\n      dup4\n        /* \"#utility.yul\":20635:20702   */\n      tag_292\n      jump\t// in\n    tag_526:\n        /* \"#utility.yul\":20628:20702   */\n      swap2\n      pop\n        /* \"#utility.yul\":20711:20804   */\n      tag_527\n        /* \"#utility.yul\":20800:20803   */\n      dup3\n        /* \"#utility.yul\":20711:20804   */\n      tag_317\n      jump\t// in\n    tag_527:\n        /* \"#utility.yul\":20829:20831   */\n      0x20\n        /* \"#utility.yul\":20824:20827   */\n      dup3\n        /* \"#utility.yul\":20820:20832   */\n      add\n        /* \"#utility.yul\":20813:20832   */\n      swap1\n      pop\n        /* \"#utility.yul\":20472:20838   */\n      swap2\n      swap1\n      pop\n      jump\t// out\n        /* \"#utility.yul\":20844:21263   */\n    tag_192:\n        /* \"#utility.yul\":21010:21014   */\n      0x00\n        /* \"#utility.yul\":21048:21050   */\n      0x20\n        /* \"#utility.yul\":21037:21046   */\n      dup3\n        /* \"#utility.yul\":21033:21051   */\n      add\n        /* \"#utility.yul\":21025:21051   */\n      swap1\n      pop\n        /* \"#utility.yul\":21097:21106   */\n      dup2\n        /* \"#utility.yul\":21091:21095   */\n      dup2\n        /* \"#utility.yul\":21087:21107   */\n      sub\n        /* \"#utility.yul\":21083:21084   */\n      0x00\n        /* \"#utility.yul\":21072:21081   */\n      dup4\n        /* \"#utility.yul\":21068:21085   */\n      add\n        /* \"#utility.yul\":21061:21108   */\n      mstore\n        /* \"#utility.yul\":21125:21256   */\n      tag_529\n        /* \"#utility.yul\":21251:21255   */\n      dup2\n        /* \"#utility.yul\":21125:21256   */\n      tag_318\n      jump\t// in\n    tag_529:\n        /* \"#utility.yul\":21117:21256   */\n      swap1\n      pop\n        /* \"#utility.yul\":20844:21263   */\n      swap2\n      swap1\n      pop\n      jump\t// out\n        /* \"#utility.yul\":21269:21460   */\n    tag_198:\n        /* \"#utility.yul\":21309:21312   */\n      0x00\n        /* \"#utility.yul\":21328:21348   */\n      tag_531\n        /* \"#utility.yul\":21346:21347   */\n      dup3\n        /* \"#utility.yul\":21328:21348   */\n      tag_264\n      jump\t// in\n    tag_531:\n        /* \"#utility.yul\":21323:21348   */\n      swap2\n      pop\n        /* \"#utility.yul\":21362:21382   */\n      tag_532\n        /* \"#utility.yul\":21380:21381   */\n      dup4\n        /* \"#utility.yul\":21362:21382   */\n      tag_264\n      jump\t// in\n    tag_532:\n        /* \"#utility.yul\":21357:21382   */\n      swap3\n      pop\n        /* \"#utility.yul\":21405:21406   */\n      dup3\n        /* \"#utility.yul\":21402:21403   */\n      dup3\n        /* \"#utility.yul\":21398:21407   */\n      add\n        /* \"#utility.yul\":21391:21407   */\n      swap1\n      pop\n        /* \"#utility.yul\":21426:21429   */\n      dup1\n        /* \"#utility.yul\":21423:21424   */\n      dup3\n        /* \"#utility.yul\":21420:21430   */\n      gt\n        /* \"#utility.yul\":21417:21453   */\n      iszero\n      tag_533\n      jumpi\n        /* \"#utility.yul\":21433:21451   */\n      tag_534\n      tag_305\n      jump\t// in\n    tag_534:\n        /* \"#utility.yul\":21417:21453   */\n    tag_533:\n        /* \"#utility.yul\":21269:21460   */\n      swap3\n      swap2\n      pop\n      pop\n      jump\t// out\n        /* \"#utility.yul\":21466:21633   */\n    tag_319:\n        /* \"#utility.yul\":21606:21625   */\n      0x63616e6e6f742065786563757465207478000000000000000000000000000000\n        /* \"#utility.yul\":21602:21603   */\n      0x00\n        /* \"#utility.yul\":21594:21600   */\n      dup3\n        /* \"#utility.yul\":21590:21604   */\n      add\n        /* \"#utility.yul\":21583:21626   */\n      mstore\n        /* \"#utility.yul\":21466:21633   */\n      pop\n      jump\t// out\n        /* \"#utility.yul\":21639:22005   */\n    tag_320:\n        /* \"#utility.yul\":21781:21784   */\n      0x00\n        /* \"#utility.yul\":21802:21869   */\n      tag_537\n        /* \"#utility.yul\":21866:21868   */\n      0x11\n        /* \"#utility.yul\":21861:21864   */\n      dup4\n        /* \"#utility.yul\":21802:21869   */\n      tag_292\n      jump\t// in\n    tag_537:\n        /* \"#utility.yul\":21795:21869   */\n      swap2\n      pop\n        /* \"#utility.yul\":21878:21971   */\n      tag_538\n        /* \"#utility.yul\":21967:21970   */\n      dup3\n        /* \"#utility.yul\":21878:21971   */\n      tag_319\n      jump\t// in\n    tag_538:\n        /* \"#utility.yul\":21996:21998   */\n      0x20\n        /* \"#utility.yul\":21991:21994   */\n      dup3\n        /* \"#utility.yul\":21987:21999   */\n      add\n        /* \"#utility.yul\":21980:21999   */\n      swap1\n      pop\n        /* \"#utility.yul\":21639:22005   */\n      swap2\n      swap1\n      pop\n      jump\t// out\n        /* \"#utility.yul\":22011:22430   */\n    tag_225:\n        /* \"#utility.yul\":22177:22181   */\n      0x00\n        /* \"#utility.yul\":22215:22217   */\n      0x20\n        /* \"#utility.yul\":22204:22213   */\n      dup3\n        /* \"#utility.yul\":22200:22218   */\n      add\n        /* \"#utility.yul\":22192:22218   */\n      swap1\n      pop\n        /* \"#utility.yul\":22264:22273   */\n      dup2\n        /* \"#utility.yul\":22258:22262   */\n      dup2\n        /* \"#utility.yul\":22254:22274   */\n      sub\n        /* \"#utility.yul\":22250:22251   */\n      0x00\n        /* \"#utility.yul\":22239:22248   */\n      dup4\n        /* \"#utility.yul\":22235:22252   */\n      add\n        /* \"#utility.yul\":22228:22275   */\n      mstore\n        /* \"#utility.yul\":22292:22423   */\n      tag_540\n        /* \"#utility.yul\":22418:22422   */\n      dup2\n        /* \"#utility.yul\":22292:22423   */\n      tag_320\n      jump\t// in\n    tag_540:\n        /* \"#utility.yul\":22284:22423   */\n      swap1\n      pop\n        /* \"#utility.yul\":22011:22430   */\n      swap2\n      swap1\n      pop\n      jump\t// out\n        /* \"#utility.yul\":22436:22616   */\n    tag_228:\n        /* \"#utility.yul\":22484:22561   */\n      0x4e487b7100000000000000000000000000000000000000000000000000000000\n        /* \"#utility.yul\":22481:22482   */\n      0x00\n        /* \"#utility.yul\":22474:22562   */\n      mstore\n        /* \"#utility.yul\":22581:22585   */\n      0x21\n        /* \"#utility.yul\":22578:22579   */\n      0x04\n        /* \"#utility.yul\":22571:22586   */\n      mstore\n        /* \"#utility.yul\":22605:22609   */\n      0x24\n        /* \"#utility.yul\":22602:22603   */\n      0x00\n        /* \"#utility.yul\":22595:22610   */\n      revert\n        /* \"#utility.yul\":22622:22855   */\n    tag_233:\n        /* \"#utility.yul\":22661:22664   */\n      0x00\n        /* \"#utility.yul\":22684:22708   */\n      tag_543\n        /* \"#utility.yul\":22702:22707   */\n      dup3\n        /* \"#utility.yul\":22684:22708   */\n      tag_264\n      jump\t// in\n    tag_543:\n        /* \"#utility.yul\":22675:22708   */\n      swap2\n      pop\n        /* \"#utility.yul\":22730:22796   */\n      0xffffffffffffffffffffffffffffffffffffffffffffffffffffffffffffffff\n        /* \"#utility.yul\":22723:22728   */\n      dup3\n        /* \"#utility.yul\":22720:22797   */\n      sub\n        /* \"#utility.yul\":22717:22820   */\n      tag_544\n      jumpi\n        /* \"#utility.yul\":22800:22818   */\n      tag_545\n      tag_305\n      jump\t// in\n    tag_545:\n        /* \"#utility.yul\":22717:22820   */\n    tag_544:\n        /* \"#utility.yul\":22847:22848   */\n      0x01\n        /* \"#utility.yul\":22840:22845   */\n      dup3\n        /* \"#utility.yul\":22836:22849   */\n      add\n        /* \"#utility.yul\":22829:22849   */\n      swap1\n      pop\n        /* \"#utility.yul\":22622:22855   */\n      swap2\n      swap1\n      pop\n      jump\t// out\n        /* \"#utility.yul\":22861:23032   */\n    tag_240:\n        /* \"#utility.yul\":22900:22903   */\n      0x00\n        /* \"#utility.yul\":22923:22947   */\n      tag_547\n        /* \"#utility.yul\":22941:22946   */\n      dup3\n        /* \"#utility.yul\":22923:22947   */\n      tag_264\n      jump\t// in\n    tag_547:\n        /* \"#utility.yul\":22914:22947   */\n      swap2\n      pop\n        /* \"#utility.yul\":22969:22973   */\n      0x00\n        /* \"#utility.yul\":22962:22967   */\n      dup3\n        /* \"#utility.yul\":22959:22974   */\n      sub\n        /* \"#utility.yul\":22956:22997   */\n      tag_548\n      jumpi\n        /* \"#utility.yul\":22977:22995   */\n      tag_549\n      tag_305\n      jump\t// in\n    tag_549:\n        /* \"#utility.yul\":22956:22997   */\n    tag_548:\n        /* \"#utility.yul\":23024:23025   */\n      0x01\n        /* \"#utility.yul\":23017:23022   */\n      dup3\n        /* \"#utility.yul\":23013:23026   */\n      sub\n        /* \"#utility.yul\":23006:23026   */\n      swap1\n      pop\n        /* \"#utility.yul\":22861:23032   */\n      swap2\n      swap1\n      pop\n      jump\t// out\n        /* \"#utility.yul\":23038:23185   */\n    tag_321:\n        /* \"#utility.yul\":23139:23150   */\n      0x00\n        /* \"#utility.yul\":23176:23179   */\n      dup2\n        /* \"#utility.yul\":23161:23179   */\n      swap1\n      pop\n        /* \"#utility.yul\":23038:23185   */\n      swap3\n      swap2\n      pop\n      pop\n      jump\t// out\n        /* \"#utility.yul\":23191:23331   */\n    tag_322:\n        /* \"#utility.yul\":23239:23243   */\n      0x00\n        /* \"#utility.yul\":23262:23265   */\n      dup2\n        /* \"#utility.yul\":23254:23265   */\n      swap1\n      pop\n        /* \"#utility.yul\":23285:23288   */\n      dup2\n        /* \"#utility.yul\":23282:23283   */\n      0x00\n        /* \"#utility.yul\":23275:23289   */\n      mstore\n        /* \"#utility.yul\":23319:23323   */\n      0x20\n        /* \"#utility.yul\":23316:23317   */\n      0x00\n        /* \"#utility.yul\":23306:23324   */\n      keccak256\n        /* \"#utility.yul\":23298:23324   */\n      swap1\n      pop\n        /* \"#utility.yul\":23191:23331   */\n      swap2\n      swap1\n      pop\n      jump\t// out\n        /* \"#utility.yul\":23359:24229   */\n    tag_323:\n        /* \"#utility.yul\":23460:23463   */\n      0x00\n        /* \"#utility.yul\":23497:23502   */\n      dup2\n        /* \"#utility.yul\":23491:23503   */\n      sload\n        /* \"#utility.yul\":23526:23562   */\n      tag_553\n        /* \"#utility.yul\":23552:23561   */\n      dup2\n        /* \"#utility.yul\":23526:23562   */\n      tag_138\n      jump\t// in\n    tag_553:\n        /* \"#utility.yul\":23578:23666   */\n      tag_554\n        /* \"#utility.yul\":23659:23665   */\n      dup2\n        /* \"#utility.yul\":23654:23657   */\n      dup7\n        /* \"#utility.yul\":23578:23666   */\n      tag_321\n      jump\t// in\n    tag_554:\n        /* \"#utility.yul\":23571:23666   */\n      swap5\n      pop\n        /* \"#utility.yul\":23697:23698   */\n      0x01\n        /* \"#utility.yul\":23686:23695   */\n      dup3\n        /* \"#utility.yul\":23682:23699   */\n      and\n        /* \"#utility.yul\":23713:23714   */\n      0x00\n        /* \"#utility.yul\":23708:23874   */\n      dup2\n      eq\n      tag_556\n      jumpi\n        /* \"#utility.yul\":23888:23889   */\n      0x01\n        /* \"#utility.yul\":23883:24223   */\n      dup2\n      eq\n      tag_557\n      jumpi\n        /* \"#utility.yul\":23675:24223   */\n      jump(tag_555)\n        /* \"#utility.yul\":23708:23874   */\n    tag_556:\n        /* \"#utility.yul\":23792:23796   */\n      0xff\n        /* \"#utility.yul\":23788:23797   */\n      not\n        /* \"#utility.yul\":23777:23786   */\n      dup4\n        /* \"#utility.yul\":23773:23798   */\n      and\n        /* \"#utility.yul\":23768:23771   */\n      dup7\n        /* \"#utility.yul\":23761:23799   */\n      mstore\n        /* \"#utility.yul\":23854:23860   */\n      dup2\n        /* \"#utility.yul\":23847:23861   */\n      iszero\n        /* \"#utility.yul\":23840:23862   */\n      iszero\n        /* \"#utility.yul\":23832:23838   */\n      dup3\n        /* \"#utility.yul\":23828:23863   */\n      mul\n        /* \"#utility.yul\":23823:23826   */\n      dup7\n        /* \"#utility.yul\":23819:23864   */\n      add\n        /* \"#utility.yul\":23812:23864   */\n      swap4\n      pop\n        /* \"#utility.yul\":23708:23874   */\n      jump(tag_555)\n        /* \"#utility.yul\":23883:24223   */\n    tag_557:\n        /* \"#utility.yul\":23950:23987   */\n      tag_558\n        /* \"#utility.yul\":23981:23986   */\n      dup6\n        /* \"#utility.yul\":23950:23987   */\n      tag_322\n      jump\t// in\n    tag_558:\n        /* \"#utility.yul\":24009:24010   */\n      0x00\n        /* \"#utility.yul\":24023:24177   */\n    tag_559:\n        /* \"#utility.yul\":24037:24043   */\n      dup4\n        /* \"#utility.yul\":24034:24035   */\n      dup2\n        /* \"#utility.yul\":24031:24044   */\n      lt\n        /* \"#utility.yul\":24023:24177   */\n      iszero\n      tag_561\n      jumpi\n        /* \"#utility.yul\":24111:24118   */\n      dup2\n        /* \"#utility.yul\":24105:24119   */\n      sload\n        /* \"#utility.yul\":24101:24102   */\n      dup2\n        /* \"#utility.yul\":24096:24099   */\n      dup10\n        /* \"#utility.yul\":24092:24103   */\n      add\n        /* \"#utility.yul\":24085:24120   */\n      mstore\n        /* \"#utility.yul\":24161:24162   */\n      0x01\n        /* \"#utility.yul\":24152:24159   */\n      dup3\n        /* \"#utility.yul\":24148:24163   */\n      add\n        /* \"#utility.yul\":24137:24163   */\n      swap2\n      pop\n        /* \"#utility.yul\":24059:24063   */\n      0x20\n        /* \"#utility.yul\":24056:24057   */\n      dup2\n        /* \"#utility.yul\":24052:24064   */\n      add\n        /* \"#utility.yul\":24047:24064   */\n      swap1\n      pop\n        /* \"#utility.yul\":24023:24177   */\n      jump(tag_559)\n    tag_561:\n        /* \"#utility.yul\":24206:24212   */\n      dup4\n        /* \"#utility.yul\":24201:24204   */\n      dup9\n        /* \"#utility.yul\":24197:24213   */\n      add\n        /* \"#utility.yul\":24190:24213   */\n      swap6\n      pop\n        /* \"#utility.yul\":23890:24223   */\n      pop\n      pop\n        /* \"#utility.yul\":23675:24223   */\n    tag_555:\n      pop\n        /* \"#utility.yul\":23464:24229   */\n      pop\n      pop\n        /* \"#utility.yul\":23359:24229   */\n      swap3\n      swap2\n      pop\n      pop\n      jump\t// out\n        /* \"#utility.yul\":24235:24500   */\n    tag_247:\n        /* \"#utility.yul\":24362:24365   */\n      0x00\n        /* \"#utility.yul\":24384:24474   */\n      tag_563\n        /* \"#utility.yul\":24470:24473   */\n      dup3\n        /* \"#utility.yul\":24461:24467   */\n      dup5\n        /* \"#utility.yul\":24384:24474   */\n      tag_323\n      jump\t// in\n    tag_563:\n        /* \"#utility.yul\":24377:24474   */\n      swap2\n      pop\n        /* \"#utility.yul\":24491:24494   */\n      dup2\n        /* \"#utility.yul\":24484:24494   */\n      swap1\n      pop\n        /* \"#utility.yul\":24235:24500   */\n      swap3\n      swap2\n      pop\n      pop\n      jump\t// out\n        /* \"#utility.yul\":24506:24665   */\n    tag_324:\n        /* \"#utility.yul\":24646:24657   */\n      0x7478206661696c65640000000000000000000000000000000000000000000000\n        /* \"#utility.yul\":24642:24643   */\n      0x00\n        /* \"#utility.yul\":24634:24640   */\n      dup3\n        /* \"#utility.yul\":24630:24644   */\n      add\n        /* \"#utility.yul\":24623:24658   */\n      mstore\n        /* \"#utility.yul\":24506:24665   */\n      pop\n      jump\t// out\n        /* \"#utility.yul\":24671:25036   */\n    tag_325:\n        /* \"#utility.yul\":24813:24816   */\n      0x00\n        /* \"#utility.yul\":24834:24900   */\n      tag_566\n        /* \"#utility.yul\":24898:24899   */\n      0x09\n        /* \"#utility.yul\":24893:24896   */\n      dup4\n        /* \"#utility.yul\":24834:24900   */\n      tag_292\n      jump\t// in\n    tag_566:\n        /* \"#utility.yul\":24827:24900   */\n      swap2\n      pop\n        /* \"#utility.yul\":24909:25002   */\n      tag_567\n        /* \"#utility.yul\":24998:25001   */\n      dup3\n        /* \"#utility.yul\":24909:25002   */\n      tag_324\n      jump\t// in\n    tag_567:\n        /* \"#utility.yul\":25027:25029   */\n      0x20\n        /* \"#utility.yul\":25022:25025   */\n      dup3\n        /* \"#utility.yul\":25018:25030   */\n      add\n        /* \"#utility.yul\":25011:25030   */\n      swap1\n      pop\n        /* \"#utility.yul\":24671:25036   */\n      swap2\n      swap1\n      pop\n      jump\t// out\n        /* \"#utility.yul\":25042:25461   */\n    tag_253:\n        /* \"#utility.yul\":25208:25212   */\n      0x00\n        /* \"#utility.yul\":25246:25248   */\n      0x20\n        /* \"#utility.yul\":25235:25244   */\n      dup3\n        /* \"#utility.yul\":25231:25249   */\n      add\n        /* \"#utility.yul\":25223:25249   */\n      swap1\n      pop\n        /* \"#utility.yul\":25295:25304   */\n      dup2\n        /* \"#utility.yul\":25289:25293   */\n      dup2\n        /* \"#utility.yul\":25285:25305   */\n      sub\n        /* \"#utility.yul\":25281:25282   */\n      0x00\n        /* \"#utility.yul\":25270:25279   */\n      dup4\n        /* \"#utility.yul\":25266:25283   */\n      add\n        /* \"#utility.yul\":25259:25306   */\n      mstore\n        /* \"#utility.yul\":25323:25454   */\n      tag_569\n        /* \"#utility.yul\":25449:25453   */\n      dup2\n        /* \"#utility.yul\":25323:25454   */\n      tag_325\n      jump\t// in\n    tag_569:\n        /* \"#utility.yul\":25315:25454   */\n      swap1\n      pop\n        /* \"#utility.yul\":25042:25461   */\n      swap2\n      swap1\n      pop\n      jump\t// out\n        /* \"#utility.yul\":25467:25560   */\n    tag_326:\n        /* \"#utility.yul\":25504:25510   */\n      0x00\n        /* \"#utility.yul\":25551:25553   */\n      0x20\n        /* \"#utility.yul\":25546:25548   */\n      0x1f\n        /* \"#utility.yul\":25539:25544   */\n      dup4\n        /* \"#utility.yul\":25535:25549   */\n      add\n        /* \"#utility.yul\":25531:25554   */\n      div\n        /* \"#utility.yul\":25521:25554   */\n      swap1\n      pop\n        /* \"#utility.yul\":25467:25560   */\n      swap2\n      swap1\n      pop\n      jump\t// out\n        /* \"#utility.yul\":25566:25673   */\n    tag_327:\n        /* \"#utility.yul\":25610:25618   */\n      0x00\n        /* \"#utility.yul\":25660:25665   */\n      dup3\n        /* \"#utility.yul\":25654:25658   */\n      dup3\n        /* \"#utility.yul\":25650:25666   */\n      shl\n        /* \"#utility.yul\":25629:25666   */\n      swap1\n      pop\n        /* \"#utility.yul\":25566:25673   */\n      swap3\n      swap2\n      pop\n      pop\n      jump\t// out\n        /* \"#utility.yul\":25679:26072   */\n    tag_328:\n        /* \"#utility.yul\":25748:25754   */\n      0x00\n        /* \"#utility.yul\":25798:25799   */\n      0x08\n        /* \"#utility.yul\":25786:25796   */\n      dup4\n        /* \"#utility.yul\":25782:25800   */\n      mul\n        /* \"#utility.yul\":25821:25918   */\n      tag_573\n        /* \"#utility.yul\":25851:25917   */\n      0xffffffffffffffffffffffffffffffffffffffffffffffffffffffffffffffff\n        /* \"#utility.yul\":25840:25849   */\n      dup3\n        /* \"#utility.yul\":25821:25918   */\n      tag_327\n      jump\t// in\n    tag_573:\n        /* \"#utility.yul\":25939:25978   */\n      tag_574\n        /* \"#utility.yul\":25969:25977   */\n      dup7\n        /* \"#utility.yul\":25958:25967   */\n      dup4\n        /* \"#utility.yul\":25939:25978   */\n      tag_327\n      jump\t// in\n    tag_574:\n        /* \"#utility.yul\":25927:25978   */\n      swap6\n      pop\n        /* \"#utility.yul\":26011:26015   */\n      dup1\n        /* \"#utility.yul\":26007:26016   */\n      not\n        /* \"#utility.yul\":26000:26005   */\n      dup5\n        /* \"#utility.yul\":25996:26017   */\n      and\n        /* \"#utility.yul\":25987:26017   */\n      swap4\n      pop\n        /* \"#utility.yul\":26060:26064   */\n      dup1\n        /* \"#utility.yul\":26050:26058   */\n      dup7\n        /* \"#utility.yul\":26046:26065   */\n      and\n        /* \"#utility.yul\":26039:26044   */\n      dup5\n        /* \"#utility.yul\":26036:26066   */\n      or\n        /* \"#utility.yul\":26026:26066   */\n      swap3\n      pop\n        /* \"#utility.yul\":25755:26072   */\n      pop\n      pop\n        /* \"#utility.yul\":25679:26072   */\n      swap4\n      swap3\n      pop\n      pop\n      pop\n      jump\t// out\n        /* \"#utility.yul\":26078:26138   */\n    tag_329:\n        /* \"#utility.yul\":26106:26109   */\n      0x00\n        /* \"#utility.yul\":26127:26132   */\n      dup2\n        /* \"#utility.yul\":26120:26132   */\n      swap1\n      pop\n        /* \"#utility.yul\":26078:26138   */\n      swap2\n      swap1\n      pop\n      jump\t// out\n        /* \"#utility.yul\":26144:26286   */\n    tag_330:\n        /* \"#utility.yul\":26194:26203   */\n      0x00\n        /* \"#utility.yul\":26227:26280   */\n      tag_577\n        /* \"#utility.yul\":26245:26279   */\n      tag_578\n        /* \"#utility.yul\":26254:26278   */\n      tag_579\n        /* \"#utility.yul\":26272:26277   */\n      dup5\n        /* \"#utility.yul\":26254:26278   */\n      tag_264\n      jump\t// in\n    tag_579:\n        /* \"#utility.yul\":26245:26279   */\n      tag_329\n      jump\t// in\n    tag_578:\n        /* \"#utility.yul\":26227:26280   */\n      tag_264\n      jump\t// in\n    tag_577:\n        /* \"#utility.yul\":26214:26280   */\n      swap1\n      pop\n        /* \"#utility.yul\":26144:26286   */\n      swap2\n      swap1\n      pop\n      jump\t// out\n        /* \"#utility.yul\":26292:26367   */\n    tag_331:\n        /* \"#utility.yul\":26335:26338   */\n      0x00\n        /* \"#utility.yul\":26356:26361   */\n      dup2\n        /* \"#utility.yul\":26349:26361   */\n      swap1\n      pop\n        /* \"#utility.yul\":26292:26367   */\n      swap2\n      swap1\n      pop\n      jump\t// out\n        /* \"#utility.yul\":26373:26642   */\n    tag_332:\n        /* \"#utility.yul\":26483:26522   */\n      tag_582\n        /* \"#utility.yul\":26514:26521   */\n      dup4\n        /* \"#utility.yul\":26483:26522   */\n      tag_330\n      jump\t// in\n    tag_582:\n        /* \"#utility.yul\":26544:26635   */\n      tag_583\n        /* \"#utility.yul\":26593:26634   */\n      tag_584\n        /* \"#utility.yul\":26617:26633   */\n      dup3\n        /* \"#utility.yul\":26593:26634   */\n      tag_331\n      jump\t// in\n    tag_584:\n        /* \"#utility.yul\":26585:26591   */\n      dup5\n        /* \"#utility.yul\":26578:26582   */\n      dup5\n        /* \"#utility.yul\":26572:26583   */\n      sload\n        /* \"#utility.yul\":26544:26635   */\n      tag_328\n      jump\t// in\n    tag_583:\n        /* \"#utility.yul\":26538:26542   */\n      dup3\n        /* \"#utility.yul\":26531:26636   */\n      sstore\n        /* \"#utility.yul\":26449:26642   */\n      pop\n        /* \"#utility.yul\":26373:26642   */\n      pop\n      pop\n      pop\n      jump\t// out\n        /* \"#utility.yul\":26648:26721   */\n    tag_333:\n        /* \"#utility.yul\":26693:26696   */\n      0x00\n        /* \"#utility.yul\":26648:26721   */\n      swap1\n      jump\t// out\n        /* \"#utility.yul\":26727:26916   */\n    tag_334:\n        /* \"#utility.yul\":26804:26836   */\n      tag_587\n      tag_333\n      jump\t// in\n    tag_587:\n        /* \"#utility.yul\":26845:26910   */\n      tag_588\n        /* \"#utility.yul\":26903:26909   */\n      dup2\n        /* \"#utility.yul\":26895:26901   */\n      dup5\n        /* \"#utility.yul\":26889:26893   */\n      dup5\n        /* \"#utility.yul\":26845:26910   */\n      tag_332\n      jump\t// in\n    tag_588:\n        /* \"#utility.yul\":26780:26916   */\n      pop\n        /* \"#utility.yul\":26727:26916   */\n      pop\n      pop\n      jump\t// out\n        /* \"#utility.yul\":26922:27108   */\n    tag_335:\n        /* \"#utility.yul\":26982:27102   */\n    tag_590:\n        /* \"#utility.yul\":26999:27002   */\n      dup2\n        /* \"#utility.yul\":26992:26997   */\n      dup2\n        /* \"#utility.yul\":26989:27003   */\n      lt\n        /* \"#utility.yul\":26982:27102   */\n      iszero\n      tag_592\n      jumpi\n        /* \"#utility.yul\":27053:27092   */\n      tag_593\n        /* \"#utility.yul\":27090:27091   */\n      0x00\n        /* \"#utility.yul\":27083:27088   */\n      dup3\n        /* \"#utility.yul\":27053:27092   */\n      tag_334\n      jump\t// in\n    tag_593:\n        /* \"#utility.yul\":27026:27027   */\n      0x01\n        /* \"#utility.yul\":27019:27024   */\n      dup2\n        /* \"#utility.yul\":27015:27028   */\n      add\n        /* \"#utility.yul\":27006:27028   */\n      swap1\n      pop\n        /* \"#utility.yul\":26982:27102   */\n      jump(tag_590)\n    tag_592:\n        /* \"#utility.yul\":26922:27108   */\n      pop\n      pop\n      jump\t// out\n        /* \"#utility.yul\":27114:27655   */\n    tag_336:\n        /* \"#utility.yul\":27214:27216   */\n      0x1f\n        /* \"#utility.yul\":27209:27212   */\n      dup3\n        /* \"#utility.yul\":27206:27217   */\n      gt\n        /* \"#utility.yul\":27203:27648   */\n      iszero\n      tag_595\n      jumpi\n        /* \"#utility.yul\":27248:27285   */\n      tag_596\n        /* \"#utility.yul\":27279:27284   */\n      dup2\n        /* \"#utility.yul\":27248:27285   */\n      tag_322\n      jump\t// in\n    tag_596:\n        /* \"#utility.yul\":27331:27360   */\n      tag_597\n        /* \"#utility.yul\":27349:27359   */\n      dup5\n        /* \"#utility.yul\":27331:27360   */\n      tag_326\n      jump\t// in\n    tag_597:\n        /* \"#utility.yul\":27321:27329   */\n      dup2\n        /* \"#utility.yul\":27317:27361   */\n      add\n        /* \"#utility.yul\":27514:27516   */\n      0x20\n        /* \"#utility.yul\":27502:27512   */\n      dup6\n        /* \"#utility.yul\":27499:27517   */\n      lt\n        /* \"#utility.yul\":27496:27545   */\n      iszero\n      tag_598\n      jumpi\n        /* \"#utility.yul\":27535:27543   */\n      dup2\n        /* \"#utility.yul\":27520:27543   */\n      swap1\n      pop\n        /* \"#utility.yul\":27496:27545   */\n    tag_598:\n        /* \"#utility.yul\":27558:27638   */\n      tag_599\n        /* \"#utility.yul\":27614:27636   */\n      tag_600\n        /* \"#utility.yul\":27632:27635   */\n      dup6\n        /* \"#utility.yul\":27614:27636   */\n      tag_326\n      jump\t// in\n    tag_600:\n        /* \"#utility.yul\":27604:27612   */\n      dup4\n        /* \"#utility.yul\":27600:27637   */\n      add\n        /* \"#utility.yul\":27587:27598   */\n      dup3\n        /* \"#utility.yul\":27558:27638   */\n      tag_335\n      jump\t// in\n    tag_599:\n        /* \"#utility.yul\":27218:27648   */\n      pop\n      pop\n        /* \"#utility.yul\":27203:27648   */\n    tag_595:\n        /* \"#utility.yul\":27114:27655   */\n      pop\n      pop\n      pop\n      jump\t// out\n        /* \"#utility.yul\":27661:27778   */\n    tag_337:\n        /* \"#utility.yul\":27715:27723   */\n      0x00\n        /* \"#utility.yul\":27765:27770   */\n      dup3\n        /* \"#utility.yul\":27759:27763   */\n      dup3\n        /* \"#utility.yul\":27755:27771   */\n      shr\n        /* \"#utility.yul\":27734:27771   */\n      swap1\n      pop\n        /* \"#utility.yul\":27661:27778   */\n      swap3\n      swap2\n      pop\n      pop\n      jump\t// out\n        /* \"#utility.yul\":27784:27953   */\n    tag_338:\n        /* \"#utility.yul\":27828:27834   */\n      0x00\n        /* \"#utility.yul\":27861:27912   */\n      tag_603\n        /* \"#utility.yul\":27909:27910   */\n      0x00\n        /* \"#utility.yul\":27905:27911   */\n      not\n        /* \"#utility.yul\":27897:27902   */\n      dup5\n        /* \"#utility.yul\":27894:27895   */\n      0x08\n        /* \"#utility.yul\":27890:27903   */\n      mul\n        /* \"#utility.yul\":27861:27912   */\n      tag_337\n      jump\t// in\n    tag_603:\n        /* \"#utility.yul\":27857:27913   */\n      not\n        /* \"#utility.yul\":27942:27946   */\n      dup1\n        /* \"#utility.yul\":27936:27940   */\n      dup4\n        /* \"#utility.yul\":27932:27947   */\n      and\n        /* \"#utility.yul\":27922:27947   */\n      swap2\n      pop\n        /* \"#utility.yul\":27835:27953   */\n      pop\n        /* \"#utility.yul\":27784:27953   */\n      swap3\n      swap2\n      pop\n      pop\n      jump\t// out\n        /* \"#utility.yul\":27958:28253   */\n    tag_339:\n        /* \"#utility.yul\":28034:28038   */\n      0x00\n        /* \"#utility.yul\":28180:28209   */\n      tag_605\n        /* \"#utility.yul\":28205:28208   */\n      dup4\n        /* \"#utility.yul\":28199:28203   */\n      dup4\n        /* \"#utility.yul\":28180:28209   */\n      tag_338\n      jump\t// in\n    tag_605:\n        /* \"#utility.yul\":28172:28209   */\n      swap2\n      pop\n        /* \"#utility.yul\":28242:28245   */\n      dup3\n        /* \"#utility.yul\":28239:28240   */\n      0x02\n        /* \"#utility.yul\":28235:28246   */\n      mul\n        /* \"#utility.yul\":28229:28233   */\n      dup3\n        /* \"#utility.yul\":28226:28247   */\n      or\n        /* \"#utility.yul\":28218:28247   */\n      swap1\n      pop\n        /* \"#utility.yul\":27958:28253   */\n      swap3\n      swap2\n      pop\n      pop\n      jump\t// out\n        /* \"#utility.yul\":28258:29648   */\n    tag_259:\n        /* \"#utility.yul\":28373:28409   */\n      tag_607\n        /* \"#utility.yul\":28405:28408   */\n      dup3\n        /* \"#utility.yul\":28373:28409   */\n      tag_274\n      jump\t// in\n    tag_607:\n        /* \"#utility.yul\":28474:28492   */\n      0xffffffffffffffff\n        /* \"#utility.yul\":28466:28472   */\n      dup2\n        /* \"#utility.yul\":28463:28493   */\n      gt\n        /* \"#utility.yul\":28460:28516   */\n      iszero\n      tag_608\n      jumpi\n        /* \"#utility.yul\":28496:28514   */\n      tag_609\n      tag_285\n      jump\t// in\n    tag_609:\n        /* \"#utility.yul\":28460:28516   */\n    tag_608:\n        /* \"#utility.yul\":28540:28578   */\n      tag_610\n        /* \"#utility.yul\":28572:28576   */\n      dup3\n        /* \"#utility.yul\":28566:28577   */\n      sload\n        /* \"#utility.yul\":28540:28578   */\n      tag_138\n      jump\t// in\n    tag_610:\n        /* \"#utility.yul\":28625:28691   */\n      tag_611\n        /* \"#utility.yul\":28684:28690   */\n      dup3\n        /* \"#utility.yul\":28676:28682   */\n      dup3\n        /* \"#utility.yul\":28670:28674   */\n      dup6\n        /* \"#utility.yul\":28625:28691   */\n      tag_336\n      jump\t// in\n    tag_611:\n        /* \"#utility.yul\":28718:28719   */\n      0x00\n        /* \"#utility.yul\":28742:28746   */\n      0x20\n        /* \"#utility.yul\":28729:28746   */\n      swap1\n      pop\n        /* \"#utility.yul\":28774:28776   */\n      0x1f\n        /* \"#utility.yul\":28766:28772   */\n      dup4\n        /* \"#utility.yul\":28763:28777   */\n      gt\n        /* \"#utility.yul\":28791:28792   */\n      0x01\n        /* \"#utility.yul\":28786:29403   */\n      dup2\n      eq\n      tag_613\n      jumpi\n        /* \"#utility.yul\":29447:29448   */\n      0x00\n        /* \"#utility.yul\":29464:29470   */\n      dup5\n        /* \"#utility.yul\":29461:29538   */\n      iszero\n      tag_614\n      jumpi\n        /* \"#utility.yul\":29513:29522   */\n      dup3\n        /* \"#utility.yul\":29508:29511   */\n      dup8\n        /* \"#utility.yul\":29504:29523   */\n      add\n        /* \"#utility.yul\":29498:29524   */\n      mload\n        /* \"#utility.yul\":29489:29524   */\n      swap1\n      pop\n        /* \"#utility.yul\":29461:29538   */\n    tag_614:\n        /* \"#utility.yul\":29564:29631   */\n      tag_615\n        /* \"#utility.yul\":29624:29630   */\n      dup6\n        /* \"#utility.yul\":29617:29622   */\n      dup3\n        /* \"#utility.yul\":29564:29631   */\n      tag_339\n      jump\t// in\n    tag_615:\n        /* \"#utility.yul\":29558:29562   */\n      dup7\n        /* \"#utility.yul\":29551:29632   */\n      sstore\n        /* \"#utility.yul\":29420:29642   */\n      pop\n        /* \"#utility.yul\":28756:29642   */\n      jump(tag_612)\n        /* \"#utility.yul\":28786:29403   */\n    tag_613:\n        /* \"#utility.yul\":28838:28842   */\n      0x1f\n        /* \"#utility.yul\":28834:28843   */\n      not\n        /* \"#utility.yul\":28826:28832   */\n      dup5\n        /* \"#utility.yul\":28822:28844   */\n      and\n        /* \"#utility.yul\":28872:28908   */\n      tag_616\n        /* \"#utility.yul\":28903:28907   */\n      dup7\n        /* \"#utility.yul\":28872:28908   */\n      tag_322\n      jump\t// in\n    tag_616:\n        /* \"#utility.yul\":28930:28931   */\n      0x00\n        /* \"#utility.yul\":28944:29152   */\n    tag_617:\n        /* \"#utility.yul\":28958:28965   */\n      dup3\n        /* \"#utility.yul\":28955:28956   */\n      dup2\n        /* \"#utility.yul\":28952:28966   */\n      lt\n        /* \"#utility.yul\":28944:29152   */\n      iszero\n      tag_619\n      jumpi\n        /* \"#utility.yul\":29037:29046   */\n      dup5\n        /* \"#utility.yul\":29032:29035   */\n      dup10\n        /* \"#utility.yul\":29028:29047   */\n      add\n        /* \"#utility.yul\":29022:29048   */\n      mload\n        /* \"#utility.yul\":29014:29020   */\n      dup3\n        /* \"#utility.yul\":29007:29049   */\n      sstore\n        /* \"#utility.yul\":29088:29089   */\n      0x01\n        /* \"#utility.yul\":29080:29086   */\n      dup3\n        /* \"#utility.yul\":29076:29090   */\n      add\n        /* \"#utility.yul\":29066:29090   */\n      swap2\n      pop\n        /* \"#utility.yul\":29135:29137   */\n      0x20\n        /* \"#utility.yul\":29124:29133   */\n      dup6\n        /* \"#utility.yul\":29120:29138   */\n      add\n        /* \"#utility.yul\":29107:29138   */\n      swap5\n      pop\n        /* \"#utility.yul\":28981:28985   */\n      0x20\n        /* \"#utility.yul\":28978:28979   */\n      dup2\n        /* \"#utility.yul\":28974:28986   */\n      add\n        /* \"#utility.yul\":28969:28986   */\n      swap1\n      pop\n        /* \"#utility.yul\":28944:29152   */\n      jump(tag_617)\n    tag_619:\n        /* \"#utility.yul\":29180:29186   */\n      dup7\n        /* \"#utility.yul\":29171:29178   */\n      dup4\n        /* \"#utility.yul\":29168:29187   */\n      lt\n        /* \"#utility.yul\":29165:29344   */\n      iszero\n      tag_620\n      jumpi\n        /* \"#utility.yul\":29238:29247   */\n      dup5\n        /* \"#utility.yul\":29233:29236   */\n      dup10\n        /* \"#utility.yul\":29229:29248   */\n      add\n        /* \"#utility.yul\":29223:29249   */\n      mload\n        /* \"#utility.yul\":29281:29329   */\n      tag_621\n        /* \"#utility.yul\":29323:29327   */\n      0x1f\n        /* \"#utility.yul\":29315:29321   */\n      dup10\n        /* \"#utility.yul\":29311:29328   */\n      and\n        /* \"#utility.yul\":29300:29309   */\n      dup3\n        /* \"#utility.yul\":29281:29329   */\n      tag_338\n      jump\t// in\n    tag_621:\n        /* \"#utility.yul\":29273:29279   */\n      dup4\n        /* \"#utility.yul\":29266:29330   */\n      sstore\n        /* \"#utility.yul\":29188:29344   */\n      pop\n        /* \"#utility.yul\":29165:29344   */\n    tag_620:\n        /* \"#utility.yul\":29390:29391   */\n      0x01\n        /* \"#utility.yul\":29386:29387   */\n      0x02\n        /* \"#utility.yul\":29378:29384   */\n      dup9\n        /* \"#utility.yul\":29374:29388   */\n      mul\n        /* \"#utility.yul\":29370:29392   */\n      add\n        /* \"#utility.yul\":29364:29368   */\n      dup9\n        /* \"#utility.yul\":29357:29393   */\n      sstore\n        /* \"#utility.yul\":28793:29403   */\n      pop\n      pop\n      pop\n        /* \"#utility.yul\":28756:29642   */\n    tag_612:\n      pop\n        /* \"#utility.yul\":28348:29648   */\n      pop\n      pop\n      pop\n        /* \"#utility.yul\":28258:29648   */\n      pop\n      pop\n      jump\t// out\n        /* \"#utility.yul\":29654:29767   */\n    tag_340:\n        /* \"#utility.yul\":29735:29736   */\n      0x05\n        /* \"#utility.yul\":29728:29733   */\n      dup2\n        /* \"#utility.yul\":29725:29737   */\n      lt\n        /* \"#utility.yul\":29715:29761   */\n      tag_623\n      jumpi\n        /* \"#utility.yul\":29741:29759   */\n      tag_624\n      tag_228\n      jump\t// in\n    tag_624:\n        /* \"#utility.yul\":29715:29761   */\n    tag_623:\n        /* \"#utility.yul\":29654:29767   */\n      pop\n      jump\t// out\n        /* \"#utility.yul\":29773:29900   */\n    tag_341:\n        /* \"#utility.yul\":29818:29825   */\n      0x00\n        /* \"#utility.yul\":29847:29852   */\n      dup2\n        /* \"#utility.yul\":29836:29852   */\n      swap1\n      pop\n        /* \"#utility.yul\":29853:29894   */\n      tag_626\n        /* \"#utility.yul\":29888:29893   */\n      dup3\n        /* \"#utility.yul\":29853:29894   */\n      tag_340\n      jump\t// in\n    tag_626:\n        /* \"#utility.yul\":29773:29900   */\n      swap2\n      swap1\n      pop\n      jump\t// out\n        /* \"#utility.yul\":29906:30033   */\n    tag_342:\n        /* \"#utility.yul\":29962:29971   */\n      0x00\n        /* \"#utility.yul\":29995:30027   */\n      tag_628\n        /* \"#utility.yul\":30021:30026   */\n      dup3\n        /* \"#utility.yul\":29995:30027   */\n      tag_341\n      jump\t// in\n    tag_628:\n        /* \"#utility.yul\":29982:30027   */\n      swap1\n      pop\n        /* \"#utility.yul\":29906:30033   */\n      swap2\n      swap1\n      pop\n      jump\t// out\n        /* \"#utility.yul\":30039:30182   */\n    tag_343:\n        /* \"#utility.yul\":30132:30175   */\n      tag_630\n        /* \"#utility.yul\":30169:30174   */\n      dup2\n        /* \"#utility.yul\":30132:30175   */\n      tag_342\n      jump\t// in\n    tag_630:\n        /* \"#utility.yul\":30127:30130   */\n      dup3\n        /* \"#utility.yul\":30120:30176   */\n      mstore\n        /* \"#utility.yul\":30039:30182   */\n      pop\n      pop\n      jump\t// out\n        /* \"#utility.yul\":30188:30532   */\n    tag_263:\n        /* \"#utility.yul\":30315:30319   */\n      0x00\n        /* \"#utility.yul\":30353:30355   */\n      0x40\n        /* \"#utility.yul\":30342:30351   */\n      dup3\n        /* \"#utility.yul\":30338:30356   */\n      add\n        /* \"#utility.yul\":30330:30356   */\n      swap1\n      pop\n        /* \"#utility.yul\":30366:30437   */\n      tag_632\n        /* \"#utility.yul\":30434:30435   */\n      0x00\n        /* \"#utility.yul\":30423:30432   */\n      dup4\n        /* \"#utility.yul\":30419:30436   */\n      add\n        /* \"#utility.yul\":30410:30416   */\n      dup6\n        /* \"#utility.yul\":30366:30437   */\n      tag_265\n      jump\t// in\n    tag_632:\n        /* \"#utility.yul\":30447:30525   */\n      tag_633\n        /* \"#utility.yul\":30521:30523   */\n      0x20\n        /* \"#utility.yul\":30510:30519   */\n      dup4\n        /* \"#utility.yul\":30506:30524   */\n      add\n        /* \"#utility.yul\":30497:30503   */\n      dup5\n        /* \"#utility.yul\":30447:30525   */\n      tag_343\n      jump\t// in\n    tag_633:\n        /* \"#utility.yul\":30188:30532   */\n      swap4\n      swap3\n      pop\n      pop\n      pop\n      jump\t// out\n\n    auxdata: 0xa2646970667358221220c10de537e65a5554f0b224d0fbe1f7b5271fff491d2c513d7f2fcbd621195bb964736f6c63430008120033\n}\n",
				"bytecode": {
					"linkReferences": {},
					"object": "6080604052600160035560405162002eec38038062002eec83398181016040528101906200002e919062000409565b6000811162000074576040517f08c379a00000000000000000000000000000000000000000000000000000000081526004016200006b90620004d0565b60405180910390fd5b6000825111620000bb576040517f08c379a0000000000000000000000000000000000000000000000000000000008152600401620000b29062000542565b60405180910390fd5b6000825190508060028190555060005b81811015620001cf576000848281518110620000ec57620000eb62000564565b5b60200260200101519050600073ffffffffffffffffffffffffffffffffffffffff168173ffffffffffffffffffffffffffffffffffffffff160362000168576040517f08c379a00000000000000000000000000000000000000000000000000000000081526004016200015f90620005e3565b60405180910390fd5b6001600560008373ffffffffffffffffffffffffffffffffffffffff1673ffffffffffffffffffffffffffffffffffffffff16815260200190815260200160002060006101000a81548160ff021916908315150217905550508080600101915050620000cb565b508160048190555050505062000605565b6000604051905090565b600080fd5b600080fd5b600080fd5b6000601f19601f8301169050919050565b7f4e487b7100000000000000000000000000000000000000000000000000000000600052604160045260246000fd5b6200024482620001f9565b810181811067ffffffffffffffff821117156200026657620002656200020a565b5b80604052505050565b60006200027b620001e0565b905062000289828262000239565b919050565b600067ffffffffffffffff821115620002ac57620002ab6200020a565b5b602082029050602081019050919050565b600080fd5b600073ffffffffffffffffffffffffffffffffffffffff82169050919050565b6000620002ef82620002c2565b9050919050565b6200030181620002e2565b81146200030d57600080fd5b50565b6000815190506200032181620002f6565b92915050565b60006200033e62000338846200028e565b6200026f565b90508083825260208201905060208402830185811115620003645762000363620002bd565b5b835b818110156200039157806200037c888262000310565b84526020840193505060208101905062000366565b5050509392505050565b600082601f830112620003b357620003b2620001f4565b5b8151620003c584826020860162000327565b91505092915050565b6000819050919050565b620003e381620003ce565b8114620003ef57600080fd5b50565b6000815190506200040381620003d8565b92915050565b60008060408385031215620004235762000422620001ea565b5b600083015167ffffffffffffffff811115620004445762000443620001ef565b5b62000452858286016200039b565b92505060206200046585828601620003f2565b9150509250929050565b600082825260208201905092915050565b7f71756f72756d206d757374206265203e20302000000000000000000000000000600082015250565b6000620004b86013836200046f565b9150620004c58262000480565b602082019050919050565b60006020820190508181036000830152620004eb81620004a9565b9050919050565b7f6d757374206265206174206c656173742031207369676e657200000000000000600082015250565b60006200052a6019836200046f565b91506200053782620004f2565b602082019050919050565b600060208201905081810360008301526200055d816200051b565b9050919050565b7f4e487b7100000000000000000000000000000000000000000000000000000000600052603260045260246000fd5b7f5369676e65722063616e6e6f7420626520616464726573732830290000000000600082015250565b6000620005cb601b836200046f565b9150620005d88262000593565b602082019050919050565b60006020820190508181036000830152620005fe81620005bc565b9050919050565b6128d780620006156000396000f3fe6080604052600436106100ec5760003560e01c80637ca548c61161008a578063affed0e011610059578063affed0e014610351578063c01a8c841461037c578063db5e04d4146103a5578063ee22610b146103ce57610143565b80637ca548c6146102835780637df73e27146102ae57806380f59a65146102eb578063ac36862a1461032857610143565b80632e7700f0116100c65780632e7700f0146101c557806333ea3dc8146101f057806336881d91146102315780636f7853a51461025a57610143565b80630bb52c1d146101485780631703a0181461017157806320ea8d861461019c57610143565b36610143573373ffffffffffffffffffffffffffffffffffffffff167f90890809c654f11d6e72a28fa60149770a0d11ec6c92319d6ceb2bb0a4ea1a1534476040516101399291906118c9565b60405180910390a2005b600080fd5b34801561015457600080fd5b5061016f600480360381019061016a9190611932565b6103f7565b005b34801561017d57600080fd5b506101866104f7565b604051610193919061195f565b60405180910390f35b3480156101a857600080fd5b506101c360048036038101906101be9190611932565b6104fd565b005b3480156101d157600080fd5b506101da6107d5565b6040516101e7919061195f565b60405180910390f35b3480156101fc57600080fd5b5061021760048036038101906102129190611932565b6107e2565b604051610228959493929190611a66565b60405180910390f35b34801561023d57600080fd5b5061025860048036038101906102539190611aec565b6108f5565b005b34801561026657600080fd5b50610281600480360381019061027c9190611b2c565b610aa7565b005b34801561028f57600080fd5b50610298610bd2565b6040516102a5919061195f565b60405180910390f35b3480156102ba57600080fd5b506102d560048036038101906102d09190611b2c565b610bd8565b6040516102e29190611b59565b60405180910390f35b3480156102f757600080fd5b50610312600480360381019061030d9190611b74565b610bf8565b60405161031f9190611b59565b60405180910390f35b34801561033457600080fd5b5061034f600480360381019061034a9190611ce9565b610c27565b005b34801561035d57600080fd5b50610366610d78565b604051610373919061195f565b60405180910390f35b34801561038857600080fd5b506103a3600480360381019061039e9190611932565b610d7e565b005b3480156103b157600080fd5b506103cc60048036038101906103c79190611b2c565b611059565b005b3480156103da57600080fd5b506103f560048036038101906103f09190611932565b611184565b005b600560003373ffffffffffffffffffffffffffffffffffffffff1673ffffffffffffffffffffffffffffffffffffffff16815260200190815260200160002060009054906101000a900460ff16610483576040517f08c379a000000000000000000000000000000000000000000000000000000000815260040161047a90611db5565b60405180910390fd5b600081036104c6576040517f08c379a00000000000000000000000000000000000000000000000000000000081526004016104bd90611e21565b60405180910390fd5b6104f460008260006040516020016104de9190611e62565b6040516020818303038152906040526004611678565b50565b60045481565b600560003373ffffffffffffffffffffffffffffffffffffffff1673ffffffffffffffffffffffffffffffffffffffff16815260200190815260200160002060009054906101000a900460ff16610589576040517f08c379a000000000000000000000000000000000000000000000000000000000815260040161058090611db5565b60405180910390fd5b8060018054905081106105d1576040517f08c379a00000000000000000000000000000000000000000000000000000000081526004016105c890611ec9565b60405180910390fd5b81600181815481106105e6576105e5611ee9565b5b906000526020600020906007020160040160009054906101000a900460ff1615610645576040517f08c379a000000000000000000000000000000000000000000000000000000000815260040161063c90611f64565b60405180910390fd5b60006001848154811061065b5761065a611ee9565b5b9060005260206000209060070201905060008085815260200190815260200160002060003373ffffffffffffffffffffffffffffffffffffffff1673ffffffffffffffffffffffffffffffffffffffff16815260200190815260200160002060009054906101000a900460ff16610707576040517f08c379a00000000000000000000000000000000000000000000000000000000081526004016106fe90611fd0565b60405180910390fd5b600181600501600082825461071c919061201f565b92505081905550600080600086815260200190815260200160002060003373ffffffffffffffffffffffffffffffffffffffff1673ffffffffffffffffffffffffffffffffffffffff16815260200190815260200160002060006101000a81548160ff021916908315150217905550833373ffffffffffffffffffffffffffffffffffffffff167ff0dca620e2e81f7841d07bcc105e1704fb01475b278a9d4c236e1c62945edd5560405160405180910390a350505050565b6000600180549050905090565b6000806060600080600060018781548110610800576107ff611ee9565b5b906000526020600020906007020190508060010160009054906101000a900473ffffffffffffffffffffffffffffffffffffffff168160020154826003018360040160009054906101000a900460ff16846005015482805461086190612082565b80601f016020809104026020016040519081016040528092919081815260200182805461088d90612082565b80156108da5780601f106108af576101008083540402835291602001916108da565b820191906000526020600020905b8154815290600101906020018083116108bd57829003601f168201915b50505050509250955095509550955095505091939590929450565b600560003373ffffffffffffffffffffffffffffffffffffffff1673ffffffffffffffffffffffffffffffffffffffff16815260200190815260200160002060009054906101000a900460ff16610981576040517f08c379a000000000000000000000000000000000000000000000000000000000815260040161097890611db5565b60405180910390fd5b600073ffffffffffffffffffffffffffffffffffffffff168273ffffffffffffffffffffffffffffffffffffffff16036109f0576040517f08c379a00000000000000000000000000000000000000000000000000000000081526004016109e7906120ff565b60405180910390fd5b60008103610a33576040517f08c379a0000000000000000000000000000000000000000000000000000000008152600401610a2a9061216b565b60405180910390fd5b80471015610a76576040517f08c379a0000000000000000000000000000000000000000000000000000000008152600401610a6d906121fd565b60405180910390fd5b610aa382826000604051602001610a8d9190611e62565b6040516020818303038152906040526000611678565b5050565b600560003373ffffffffffffffffffffffffffffffffffffffff1673ffffffffffffffffffffffffffffffffffffffff16815260200190815260200160002060009054906101000a900460ff16610b33576040517f08c379a0000000000000000000000000000000000000000000000000000000008152600401610b2a90611db5565b60405180910390fd5b600073ffffffffffffffffffffffffffffffffffffffff168173ffffffffffffffffffffffffffffffffffffffff1603610ba2576040517f08c379a0000000000000000000000000000000000000000000000000000000008152600401610b9990612269565b60405180910390fd5b610bcf81600080604051602001610bb99190611e62565b6040516020818303038152906040526002611678565b50565b60025481565b60056020528060005260406000206000915054906101000a900460ff1681565b60006020528160005260406000206020528060005260406000206000915091509054906101000a900460ff1681565b600560003373ffffffffffffffffffffffffffffffffffffffff1673ffffffffffffffffffffffffffffffffffffffff16815260200190815260200160002060009054906101000a900460ff16610cb3576040517f08c379a0000000000000000000000000000000000000000000000000000000008152600401610caa90611db5565b60405180910390fd5b600073ffffffffffffffffffffffffffffffffffffffff168373ffffffffffffffffffffffffffffffffffffffff1603610d22576040517f08c379a0000000000000000000000000000000000000000000000000000000008152600401610d19906120ff565b60405180910390fd5b6000815111610d66576040517f08c379a0000000000000000000000000000000000000000000000000000000008152600401610d5d906122d5565b60405180910390fd5b610d738383836001611678565b505050565b60035481565b600560003373ffffffffffffffffffffffffffffffffffffffff1673ffffffffffffffffffffffffffffffffffffffff16815260200190815260200160002060009054906101000a900460ff16610e0a576040517f08c379a0000000000000000000000000000000000000000000000000000000008152600401610e0190611db5565b60405180910390fd5b806001805490508110610e52576040517f08c379a0000000000000000000000000000000000000000000000000000000008152600401610e4990611ec9565b60405180910390fd5b8160018181548110610e6757610e66611ee9565b5b906000526020600020906007020160040160009054906101000a900460ff1615610ec6576040517f08c379a0000000000000000000000000000000000000000000000000000000008152600401610ebd90611f64565b60405180910390fd5b8260008082815260200190815260200160002060003373ffffffffffffffffffffffffffffffffffffffff1673ffffffffffffffffffffffffffffffffffffffff16815260200190815260200160002060009054906101000a900460ff1615610f64576040517f08c379a0000000000000000000000000000000000000000000000000000000008152600401610f5b90612341565b60405180910390fd5b600060018581548110610f7a57610f79611ee9565b5b906000526020600020906007020190506001816005016000828254610f9f9190612361565b92505081905550600160008087815260200190815260200160002060003373ffffffffffffffffffffffffffffffffffffffff1673ffffffffffffffffffffffffffffffffffffffff16815260200190815260200160002060006101000a81548160ff021916908315150217905550843373ffffffffffffffffffffffffffffffffffffffff167f5cbe105e36805f7820e291f799d5794ff948af2a5f664e580382defb6339004160405160405180910390a35050505050565b600560003373ffffffffffffffffffffffffffffffffffffffff1673ffffffffffffffffffffffffffffffffffffffff16815260200190815260200160002060009054906101000a900460ff166110e5576040517f08c379a00000000000000000000000000000000000000000000000000000000081526004016110dc90611db5565b60405180910390fd5b600073ffffffffffffffffffffffffffffffffffffffff168173ffffffffffffffffffffffffffffffffffffffff1603611154576040517f08c379a000000000000000000000000000000000000000000000000000000000815260040161114b90612269565b60405180910390fd5b6111818160008060405160200161116b9190611e62565b6040516020818303038152906040526003611678565b50565b600560003373ffffffffffffffffffffffffffffffffffffffff1673ffffffffffffffffffffffffffffffffffffffff16815260200190815260200160002060009054906101000a900460ff16611210576040517f08c379a000000000000000000000000000000000000000000000000000000000815260040161120790611db5565b60405180910390fd5b806001805490508110611258576040517f08c379a000000000000000000000000000000000000000000000000000000000815260040161124f90611ec9565b60405180910390fd5b816001818154811061126d5761126c611ee9565b5b906000526020600020906007020160040160009054906101000a900460ff16156112cc576040517f08c379a00000000000000000000000000000000000000000000000000000000081526004016112c390611f64565b60405180910390fd5b6000600184815481106112e2576112e1611ee9565b5b906000526020600020906007020190506004548160050154101561133b576040517f08c379a0000000000000000000000000000000000000000000000000000000008152600401611332906123e1565b60405180910390fd5b60018160040160006101000a81548160ff021916908315150217905550833373ffffffffffffffffffffffffffffffffffffffff167f5445f318f4f5fcfb66592e68e0cc5822aa15664039bd5f0ffde24c5a8142b1ac60405160405180910390a3600260048111156113b0576113af612401565b5b8160060160009054906101000a900460ff1660048111156113d4576113d3612401565b5b03611473576001600560008360010160009054906101000a900473ffffffffffffffffffffffffffffffffffffffff1673ffffffffffffffffffffffffffffffffffffffff1673ffffffffffffffffffffffffffffffffffffffff16815260200190815260200160002060006101000a81548160ff0219169083151502179055506002600081548092919061146890612430565b919050555050611673565b6003600481111561148757611486612401565b5b8160060160009054906101000a900460ff1660048111156114ab576114aa612401565b5b0361154a576000600560008360010160009054906101000a900473ffffffffffffffffffffffffffffffffffffffff1673ffffffffffffffffffffffffffffffffffffffff1673ffffffffffffffffffffffffffffffffffffffff16815260200190815260200160002060006101000a81548160ff0219169083151502179055506002600081548092919061153f90612478565b919050555050611673565b60048081111561155d5761155c612401565b5b8160060160009054906101000a900460ff16600481111561158157611580612401565b5b0361159757806002015460048190555050611673565b60008160010160009054906101000a900473ffffffffffffffffffffffffffffffffffffffff1673ffffffffffffffffffffffffffffffffffffffff168260020154836003016040516115ea9190612544565b60006040518083038185875af1925050503d8060008114611627576040519150601f19603f3d011682016040523d82523d6000602084013e61162c565b606091505b5050905080611670576040517f08c379a0000000000000000000000000000000000000000000000000000000008152600401611667906125a7565b60405180910390fd5b50505b505050565b6000600180549050905060016040518060e001604052808381526020018773ffffffffffffffffffffffffffffffffffffffff168152602001868152602001858152602001600015158152602001600181526020018460048111156116e0576116df612401565b5b81525090806001815401808255809150506001900390600052602060002090600702016000909190919091506000820151816000015560208201518160010160006101000a81548173ffffffffffffffffffffffffffffffffffffffff021916908373ffffffffffffffffffffffffffffffffffffffff16021790555060408201518160020155606082015181600301908161177c919061275e565b5060808201518160040160006101000a81548160ff02191690831515021790555060a0820151816005015560c08201518160060160006101000a81548160ff021916908360048111156117d2576117d1612401565b5b02179055505050600160008083815260200190815260200160002060003373ffffffffffffffffffffffffffffffffffffffff1673ffffffffffffffffffffffffffffffffffffffff16815260200190815260200160002060006101000a81548160ff0219169083151502179055508473ffffffffffffffffffffffffffffffffffffffff16813373ffffffffffffffffffffffffffffffffffffffff167ff184e47ed04feee43669e05ec04ea91a7248bbfecaeb6ba6573a6446e9a05ce287866040516118a1929190612878565b60405180910390a45050505050565b6000819050919050565b6118c3816118b0565b82525050565b60006040820190506118de60008301856118ba565b6118eb60208301846118ba565b9392505050565b6000604051905090565b600080fd5b600080fd5b61190f816118b0565b811461191a57600080fd5b50565b60008135905061192c81611906565b92915050565b600060208284031215611948576119476118fc565b5b60006119568482850161191d565b91505092915050565b600060208201905061197460008301846118ba565b92915050565b600073ffffffffffffffffffffffffffffffffffffffff82169050919050565b60006119a58261197a565b9050919050565b6119b58161199a565b82525050565b600081519050919050565b600082825260208201905092915050565b60005b838110156119f55780820151818401526020810190506119da565b60008484015250505050565b6000601f19601f8301169050919050565b6000611a1d826119bb565b611a2781856119c6565b9350611a378185602086016119d7565b611a4081611a01565b840191505092915050565b60008115159050919050565b611a6081611a4b565b82525050565b600060a082019050611a7b60008301886119ac565b611a8860208301876118ba565b8181036040830152611a9a8186611a12565b9050611aa96060830185611a57565b611ab660808301846118ba565b9695505050505050565b611ac98161199a565b8114611ad457600080fd5b50565b600081359050611ae681611ac0565b92915050565b60008060408385031215611b0357611b026118fc565b5b6000611b1185828601611ad7565b9250506020611b228582860161191d565b9150509250929050565b600060208284031215611b4257611b416118fc565b5b6000611b5084828501611ad7565b91505092915050565b6000602082019050611b6e6000830184611a57565b92915050565b60008060408385031215611b8b57611b8a6118fc565b5b6000611b998582860161191d565b9250506020611baa85828601611ad7565b9150509250929050565b600080fd5b600080fd5b7f4e487b7100000000000000000000000000000000000000000000000000000000600052604160045260246000fd5b611bf682611a01565b810181811067ffffffffffffffff82111715611c1557611c14611bbe565b5b80604052505050565b6000611c286118f2565b9050611c348282611bed565b919050565b600067ffffffffffffffff821115611c5457611c53611bbe565b5b611c5d82611a01565b9050602081019050919050565b82818337600083830152505050565b6000611c8c611c8784611c39565b611c1e565b905082815260208101848484011115611ca857611ca7611bb9565b5b611cb3848285611c6a565b509392505050565b600082601f830112611cd057611ccf611bb4565b5b8135611ce0848260208601611c79565b91505092915050565b600080600060608486031215611d0257611d016118fc565b5b6000611d1086828701611ad7565b9350506020611d218682870161191d565b925050604084013567ffffffffffffffff811115611d4257611d41611901565b5b611d4e86828701611cbb565b9150509250925092565b600082825260208201905092915050565b7f6f6e6c79207369676e65722063616e2065786563757465000000000000000000600082015250565b6000611d9f601783611d58565b9150611daa82611d69565b602082019050919050565b60006020820190508181036000830152611dce81611d92565b9050919050565b7f51756f72756d2063616e6e6f7420626520300000000000000000000000000000600082015250565b6000611e0b601283611d58565b9150611e1682611dd5565b602082019050919050565b60006020820190508181036000830152611e3a81611dfe565b9050919050565b6000819050919050565b611e5c611e57826118b0565b611e41565b82525050565b6000611e6e8284611e4b565b60208201915081905092915050565b7f747820646f6573206e6f74206578697374000000000000000000000000000000600082015250565b6000611eb3601183611d58565b9150611ebe82611e7d565b602082019050919050565b60006020820190508181036000830152611ee281611ea6565b9050919050565b7f4e487b7100000000000000000000000000000000000000000000000000000000600052603260045260246000fd5b7f747820616c726561647920657865637574656400000000000000000000000000600082015250565b6000611f4e601383611d58565b9150611f5982611f18565b602082019050919050565b60006020820190508181036000830152611f7d81611f41565b9050919050565b7f7478206e6f7420636f6e6669726d656400000000000000000000000000000000600082015250565b6000611fba601083611d58565b9150611fc582611f84565b602082019050919050565b60006020820190508181036000830152611fe981611fad565b9050919050565b7f4e487b7100000000000000000000000000000000000000000000000000000000600052601160045260246000fd5b600061202a826118b0565b9150612035836118b0565b925082820390508181111561204d5761204c611ff0565b5b92915050565b7f4e487b7100000000000000000000000000000000000000000000000000000000600052602260045260246000fd5b6000600282049050600182168061209a57607f821691505b6020821081036120ad576120ac612053565b5b50919050565b7f63616e6e6f742073656e6420746f206e6f776865726500000000000000000000600082015250565b60006120e9601683611d58565b91506120f4826120b3565b602082019050919050565b60006020820190508181036000830152612118816120dc565b9050919050565b7f63616e6e6f742073656e6420656d707479207478000000000000000000000000600082015250565b6000612155601483611d58565b91506121608261211f565b602082019050919050565b6000602082019050818103600083015261218481612148565b9050919050565b7f63616e6e6f742070726f706f73652073656e64696e67206d6f7265207468616e60008201527f2073616665206861730000000000000000000000000000000000000000000000602082015250565b60006121e7602983611d58565b91506121f28261218b565b604082019050919050565b60006020820190508181036000830152612216816121da565b9050919050565b7f5369676e65722063616e6e6f7420626520616464726573732830290000000000600082015250565b6000612253601b83611d58565b915061225e8261221d565b602082019050919050565b6000602082019050818103600083015261228281612246565b9050919050565b7f63616e6e6f742073656e64206e756c6c20747800000000000000000000000000600082015250565b60006122bf601383611d58565b91506122ca82612289565b602082019050919050565b600060208201905081810360008301526122ee816122b2565b9050919050565b7f747820616c726561647920636f6e6669726d6564000000000000000000000000600082015250565b600061232b601483611d58565b9150612336826122f5565b602082019050919050565b6000602082019050818103600083015261235a8161231e565b9050919050565b600061236c826118b0565b9150612377836118b0565b925082820190508082111561238f5761238e611ff0565b5b92915050565b7f63616e6e6f742065786563757465207478000000000000000000000000000000600082015250565b60006123cb601183611d58565b91506123d682612395565b602082019050919050565b600060208201905081810360008301526123fa816123be565b9050919050565b7f4e487b7100000000000000000000000000000000000000000000000000000000600052602160045260246000fd5b600061243b826118b0565b91507fffffffffffffffffffffffffffffffffffffffffffffffffffffffffffffffff820361246d5761246c611ff0565b5b600182019050919050565b6000612483826118b0565b91506000820361249657612495611ff0565b5b600182039050919050565b600081905092915050565b60008190508160005260206000209050919050565b600081546124ce81612082565b6124d881866124a1565b945060018216600081146124f357600181146125085761253b565b60ff198316865281151582028601935061253b565b612511856124ac565b60005b8381101561253357815481890152600182019150602081019050612514565b838801955050505b50505092915050565b600061255082846124c1565b915081905092915050565b7f7478206661696c65640000000000000000000000000000000000000000000000600082015250565b6000612591600983611d58565b915061259c8261255b565b602082019050919050565b600060208201905081810360008301526125c081612584565b9050919050565b60006020601f8301049050919050565b600082821b905092915050565b6000600883026126147fffffffffffffffffffffffffffffffffffffffffffffffffffffffffffffffff826125d7565b61261e86836125d7565b95508019841693508086168417925050509392505050565b6000819050919050565b600061265b612656612651846118b0565b612636565b6118b0565b9050919050565b6000819050919050565b61267583612640565b61268961268182612662565b8484546125e4565b825550505050565b600090565b61269e612691565b6126a981848461266c565b505050565b5b818110156126cd576126c2600082612696565b6001810190506126af565b5050565b601f821115612712576126e3816124ac565b6126ec846125c7565b810160208510156126fb578190505b61270f612707856125c7565b8301826126ae565b50505b505050565b600082821c905092915050565b600061273560001984600802612717565b1980831691505092915050565b600061274e8383612724565b9150826002028217905092915050565b612767826119bb565b67ffffffffffffffff8111156127805761277f611bbe565b5b61278a8254612082565b6127958282856126d1565b600060209050601f8311600181146127c857600084156127b6578287015190505b6127c08582612742565b865550612828565b601f1984166127d6866124ac565b60005b828110156127fe578489015182556001820191506020850194506020810190506127d9565b8683101561281b5784890151612817601f891682612724565b8355505b6001600288020188555050505b505050505050565b6005811061284157612840612401565b5b50565b600081905061285282612830565b919050565b600061286282612844565b9050919050565b61287281612857565b82525050565b600060408201905061288d60008301856118ba565b61289a6020830184612869565b939250505056fea2646970667358221220c10de537e65a5554f0b224d0fbe1f7b5271fff491d2c513d7f2fcbd621195bb964736f6c63430008120033",
					"opcodes": "PUSH1 0x80 PUSH1 0x40 MSTORE PUSH1 0x1 PUSH1 0x3 SSTORE PUSH1 0x40 MLOAD PUSH3 0x2EEC CODESIZE SUB DUP1 PUSH3 0x2EEC DUP4 CODECOPY DUP2 DUP2 ADD PUSH1 0x40 MSTORE DUP2 ADD SWAP1 PUSH3 0x2E SWAP2 SWAP1 PUSH3 0x409 JUMP JUMPDEST PUSH1 0x0 DUP2 GT PUSH3 0x74 JUMPI PUSH1 0x40 MLOAD PUSH32 0x8C379A000000000000000000000000000000000000000000000000000000000 DUP2 MSTORE PUSH1 0x4 ADD PUSH3 0x6B SWAP1 PUSH3 0x4D0 JUMP JUMPDEST PUSH1 0x40 MLOAD DUP1 SWAP2 SUB SWAP1 REVERT JUMPDEST PUSH1 0x0 DUP3 MLOAD GT PUSH3 0xBB JUMPI PUSH1 0x40 MLOAD PUSH32 0x8C379A000000000000000000000000000000000000000000000000000000000 DUP2 MSTORE PUSH1 0x4 ADD PUSH3 0xB2 SWAP1 PUSH3 0x542 JUMP JUMPDEST PUSH1 0x40 MLOAD DUP1 SWAP2 SUB SWAP1 REVERT JUMPDEST PUSH1 0x0 DUP3 MLOAD SWAP1 POP DUP1 PUSH1 0x2 DUP2 SWAP1 SSTORE POP PUSH1 0x0 JUMPDEST DUP2 DUP2 LT ISZERO PUSH3 0x1CF JUMPI PUSH1 0x0 DUP5 DUP3 DUP2 MLOAD DUP2 LT PUSH3 0xEC JUMPI PUSH3 0xEB PUSH3 0x564 JUMP JUMPDEST JUMPDEST PUSH1 0x20 MUL PUSH1 0x20 ADD ADD MLOAD SWAP1 POP PUSH1 0x0 PUSH20 0xFFFFFFFFFFFFFFFFFFFFFFFFFFFFFFFFFFFFFFFF AND DUP2 PUSH20 0xFFFFFFFFFFFFFFFFFFFFFFFFFFFFFFFFFFFFFFFF AND SUB PUSH3 0x168 JUMPI PUSH1 0x40 MLOAD PUSH32 0x8C379A000000000000000000000000000000000000000000000000000000000 DUP2 MSTORE PUSH1 0x4 ADD PUSH3 0x15F SWAP1 PUSH3 0x5E3 JUMP JUMPDEST PUSH1 0x40 MLOAD DUP1 SWAP2 SUB SWAP1 REVERT JUMPDEST PUSH1 0x1 PUSH1 0x5 PUSH1 0x0 DUP4 PUSH20 0xFFFFFFFFFFFFFFFFFFFFFFFFFFFFFFFFFFFFFFFF AND PUSH20 0xFFFFFFFFFFFFFFFFFFFFFFFFFFFFFFFFFFFFFFFF AND DUP2 MSTORE PUSH1 0x20 ADD SWAP1 DUP2 MSTORE PUSH1 0x20 ADD PUSH1 0x0 KECCAK256 PUSH1 0x0 PUSH2 0x100 EXP DUP2 SLOAD DUP2 PUSH1 0xFF MUL NOT AND SWAP1 DUP4 ISZERO ISZERO MUL OR SWAP1 SSTORE POP POP DUP1 DUP1 PUSH1 0x1 ADD SWAP2 POP POP PUSH3 0xCB JUMP JUMPDEST POP DUP2 PUSH1 0x4 DUP2 SWAP1 SSTORE POP POP POP POP PUSH3 0x605 JUMP JUMPDEST PUSH1 0x0 PUSH1 0x40 MLOAD SWAP1 POP SWAP1 JUMP JUMPDEST PUSH1 0x0 DUP1 REVERT JUMPDEST PUSH1 0x0 DUP1 REVERT JUMPDEST PUSH1 0x0 DUP1 REVERT JUMPDEST PUSH1 0x0 PUSH1 0x1F NOT PUSH1 0x1F DUP4 ADD AND SWAP1 POP SWAP2 SWAP1 POP JUMP JUMPDEST PUSH32 0x4E487B7100000000000000000000000000000000000000000000000000000000 PUSH1 0x0 MSTORE PUSH1 0x41 PUSH1 0x4 MSTORE PUSH1 0x24 PUSH1 0x0 REVERT JUMPDEST PUSH3 0x244 DUP3 PUSH3 0x1F9 JUMP JUMPDEST DUP2 ADD DUP2 DUP2 LT PUSH8 0xFFFFFFFFFFFFFFFF DUP3 GT OR ISZERO PUSH3 0x266 JUMPI PUSH3 0x265 PUSH3 0x20A JUMP JUMPDEST JUMPDEST DUP1 PUSH1 0x40 MSTORE POP POP POP JUMP JUMPDEST PUSH1 0x0 PUSH3 0x27B PUSH3 0x1E0 JUMP JUMPDEST SWAP1 POP PUSH3 0x289 DUP3 DUP3 PUSH3 0x239 JUMP JUMPDEST SWAP2 SWAP1 POP JUMP JUMPDEST PUSH1 0x0 PUSH8 0xFFFFFFFFFFFFFFFF DUP3 GT ISZERO PUSH3 0x2AC JUMPI PUSH3 0x2AB PUSH3 0x20A JUMP JUMPDEST JUMPDEST PUSH1 0x20 DUP3 MUL SWAP1 POP PUSH1 0x20 DUP2 ADD SWAP1 POP SWAP2 SWAP1 POP JUMP JUMPDEST PUSH1 0x0 DUP1 REVERT JUMPDEST PUSH1 0x0 PUSH20 0xFFFFFFFFFFFFFFFFFFFFFFFFFFFFFFFFFFFFFFFF DUP3 AND SWAP1 POP SWAP2 SWAP1 POP JUMP JUMPDEST PUSH1 0x0 PUSH3 0x2EF DUP3 PUSH3 0x2C2 JUMP JUMPDEST SWAP1 POP SWAP2 SWAP1 POP JUMP JUMPDEST PUSH3 0x301 DUP2 PUSH3 0x2E2 JUMP JUMPDEST DUP2 EQ PUSH3 0x30D JUMPI PUSH1 0x0 DUP1 REVERT JUMPDEST POP JUMP JUMPDEST PUSH1 0x0 DUP2 MLOAD SWAP1 POP PUSH3 0x321 DUP2 PUSH3 0x2F6 JUMP JUMPDEST SWAP3 SWAP2 POP POP JUMP JUMPDEST PUSH1 0x0 PUSH3 0x33E PUSH3 0x338 DUP5 PUSH3 0x28E JUMP JUMPDEST PUSH3 0x26F JUMP JUMPDEST SWAP1 POP DUP1 DUP4 DUP3 MSTORE PUSH1 0x20 DUP3 ADD SWAP1 POP PUSH1 0x20 DUP5 MUL DUP4 ADD DUP6 DUP2 GT ISZERO PUSH3 0x364 JUMPI PUSH3 0x363 PUSH3 0x2BD JUMP JUMPDEST JUMPDEST DUP4 JUMPDEST DUP2 DUP2 LT ISZERO PUSH3 0x391 JUMPI DUP1 PUSH3 0x37C DUP9 DUP3 PUSH3 0x310 JUMP JUMPDEST DUP5 MSTORE PUSH1 0x20 DUP5 ADD SWAP4 POP POP PUSH1 0x20 DUP2 ADD SWAP1 POP PUSH3 0x366 JUMP JUMPDEST POP POP POP SWAP4 SWAP3 POP POP POP JUMP JUMPDEST PUSH1 0x0 DUP3 PUSH1 0x1F DUP4 ADD SLT PUSH3 0x3B3 JUMPI PUSH3 0x3B2 PUSH3 0x1F4 JUMP JUMPDEST JUMPDEST DUP2 MLOAD PUSH3 0x3C5 DUP5 DUP3 PUSH1 0x20 DUP7 ADD PUSH3 0x327 JUMP JUMPDEST SWAP2 POP POP SWAP3 SWAP2 POP POP JUMP JUMPDEST PUSH1 0x0 DUP2 SWAP1 POP SWAP2 SWAP1 POP JUMP JUMPDEST PUSH3 0x3E3 DUP2 PUSH3 0x3CE JUMP JUMPDEST DUP2 EQ PUSH3 0x3EF JUMPI PUSH1 0x0 DUP1 REVERT JUMPDEST POP JUMP JUMPDEST PUSH1 0x0 DUP2 MLOAD SWAP1 POP PUSH3 0x403 DUP2 PUSH3 0x3D8 JUMP JUMPDEST SWAP3 SWAP2 POP POP JUMP JUMPDEST PUSH1 0x0 DUP1 PUSH1 0x40 DUP4 DUP6 SUB SLT ISZERO PUSH3 0x423 JUMPI PUSH3 0x422 PUSH3 0x1EA JUMP JUMPDEST JUMPDEST PUSH1 0x0 DUP4 ADD MLOAD PUSH8 0xFFFFFFFFFFFFFFFF DUP2 GT ISZERO PUSH3 0x444 JUMPI PUSH3 0x443 PUSH3 0x1EF JUMP JUMPDEST JUMPDEST PUSH3 0x452 DUP6 DUP3 DUP7 ADD PUSH3 0x39B JUMP JUMPDEST SWAP3 POP POP PUSH1 0x20 PUSH3 0x465 DUP6 DUP3 DUP7 ADD PUSH3 0x3F2 JUMP JUMPDEST SWAP2 POP POP SWAP3 POP SWAP3 SWAP1 POP JUMP JUMPDEST PUSH1 0x0 DUP3 DUP3 MSTORE PUSH1 0x20 DUP3 ADD SWAP1 POP SWAP3 SWAP2 POP POP JUMP JUMPDEST PUSH32 0x71756F72756D206D757374206265203E20302000000000000000000000000000 PUSH1 0x0 DUP3 ADD MSTORE POP JUMP JUMPDEST PUSH1 0x0 PUSH3 0x4B8 PUSH1 0x13 DUP4 PUSH3 0x46F JUMP JUMPDEST SWAP2 POP PUSH3 0x4C5 DUP3 PUSH3 0x480 JUMP JUMPDEST PUSH1 0x20 DUP3 ADD SWAP1 POP SWAP2 SWAP1 POP JUMP JUMPDEST PUSH1 0x0 PUSH1 0x20 DUP3 ADD SWAP1 POP DUP2 DUP2 SUB PUSH1 0x0 DUP4 ADD MSTORE PUSH3 0x4EB DUP2 PUSH3 0x4A9 JUMP JUMPDEST SWAP1 POP SWAP2 SWAP1 POP JUMP JUMPDEST PUSH32 0x6D757374206265206174206C656173742031207369676E657200000000000000 PUSH1 0x0 DUP3 ADD MSTORE POP JUMP JUMPDEST PUSH1 0x0 PUSH3 0x52A PUSH1 0x19 DUP4 PUSH3 0x46F JUMP JUMPDEST SWAP2 POP PUSH3 0x537 DUP3 PUSH3 0x4F2 JUMP JUMPDEST PUSH1 0x20 DUP3 ADD SWAP1 POP SWAP2 SWAP1 POP JUMP JUMPDEST PUSH1 0x0 PUSH1 0x20 DUP3 ADD SWAP1 POP DUP2 DUP2 SUB PUSH1 0x0 DUP4 ADD MSTORE PUSH3 0x55D DUP2 PUSH3 0x51B JUMP JUMPDEST SWAP1 POP SWAP2 SWAP1 POP JUMP JUMPDEST PUSH32 0x4E487B7100000000000000000000000000000000000000000000000000000000 PUSH1 0x0 MSTORE PUSH1 0x32 PUSH1 0x4 MSTORE PUSH1 0x24 PUSH1 0x0 REVERT JUMPDEST PUSH32 0x5369676E65722063616E6E6F7420626520616464726573732830290000000000 PUSH1 0x0 DUP3 ADD MSTORE POP JUMP JUMPDEST PUSH1 0x0 PUSH3 0x5CB PUSH1 0x1B DUP4 PUSH3 0x46F JUMP JUMPDEST SWAP2 POP PUSH3 0x5D8 DUP3 PUSH3 0x593 JUMP JUMPDEST PUSH1 0x20 DUP3 ADD SWAP1 POP SWAP2 SWAP1 POP JUMP JUMPDEST PUSH1 0x0 PUSH1 0x20 DUP3 ADD SWAP1 POP DUP2 DUP2 SUB PUSH1 0x0 DUP4 ADD MSTORE PUSH3 0x5FE DUP2 PUSH3 0x5BC JUMP JUMPDEST SWAP1 POP SWAP2 SWAP1 POP JUMP JUMPDEST PUSH2 0x28D7 DUP1 PUSH3 0x615 PUSH1 0x0 CODECOPY PUSH1 0x0 RETURN INVALID PUSH1 0x80 PUSH1 0x40 MSTORE PUSH1 0x4 CALLDATASIZE LT PUSH2 0xEC JUMPI PUSH1 0x0 CALLDATALOAD PUSH1 0xE0 SHR DUP1 PUSH4 0x7CA548C6 GT PUSH2 0x8A JUMPI DUP1 PUSH4 0xAFFED0E0 GT PUSH2 0x59 JUMPI DUP1 PUSH4 0xAFFED0E0 EQ PUSH2 0x351 JUMPI DUP1 PUSH4 0xC01A8C84 EQ PUSH2 0x37C JUMPI DUP1 PUSH4 0xDB5E04D4 EQ PUSH2 0x3A5 JUMPI DUP1 PUSH4 0xEE22610B EQ PUSH2 0x3CE JUMPI PUSH2 0x143 JUMP JUMPDEST DUP1 PUSH4 0x7CA548C6 EQ PUSH2 0x283 JUMPI DUP1 PUSH4 0x7DF73E27 EQ PUSH2 0x2AE JUMPI DUP1 PUSH4 0x80F59A65 EQ PUSH2 0x2EB JUMPI DUP1 PUSH4 0xAC36862A EQ PUSH2 0x328 JUMPI PUSH2 0x143 JUMP JUMPDEST DUP1 PUSH4 0x2E7700F0 GT PUSH2 0xC6 JUMPI DUP1 PUSH4 0x2E7700F0 EQ PUSH2 0x1C5 JUMPI DUP1 PUSH4 0x33EA3DC8 EQ PUSH2 0x1F0 JUMPI DUP1 PUSH4 0x36881D91 EQ PUSH2 0x231 JUMPI DUP1 PUSH4 0x6F7853A5 EQ PUSH2 0x25A JUMPI PUSH2 0x143 JUMP JUMPDEST DUP1 PUSH4 0xBB52C1D EQ PUSH2 0x148 JUMPI DUP1 PUSH4 0x1703A018 EQ PUSH2 0x171 JUMPI DUP1 PUSH4 0x20EA8D86 EQ PUSH2 0x19C JUMPI PUSH2 0x143 JUMP JUMPDEST CALLDATASIZE PUSH2 0x143 JUMPI CALLER PUSH20 0xFFFFFFFFFFFFFFFFFFFFFFFFFFFFFFFFFFFFFFFF AND PUSH32 0x90890809C654F11D6E72A28FA60149770A0D11EC6C92319D6CEB2BB0A4EA1A15 CALLVALUE SELFBALANCE PUSH1 0x40 MLOAD PUSH2 0x139 SWAP3 SWAP2 SWAP1 PUSH2 0x18C9 JUMP JUMPDEST PUSH1 0x40 MLOAD DUP1 SWAP2 SUB SWAP1 LOG2 STOP JUMPDEST PUSH1 0x0 DUP1 REVERT JUMPDEST CALLVALUE DUP1 ISZERO PUSH2 0x154 JUMPI PUSH1 0x0 DUP1 REVERT JUMPDEST POP PUSH2 0x16F PUSH1 0x4 DUP1 CALLDATASIZE SUB DUP2 ADD SWAP1 PUSH2 0x16A SWAP2 SWAP1 PUSH2 0x1932 JUMP JUMPDEST PUSH2 0x3F7 JUMP JUMPDEST STOP JUMPDEST CALLVALUE DUP1 ISZERO PUSH2 0x17D JUMPI PUSH1 0x0 DUP1 REVERT JUMPDEST POP PUSH2 0x186 PUSH2 0x4F7 JUMP JUMPDEST PUSH1 0x40 MLOAD PUSH2 0x193 SWAP2 SWAP1 PUSH2 0x195F JUMP JUMPDEST PUSH1 0x40 MLOAD DUP1 SWAP2 SUB SWAP1 RETURN JUMPDEST CALLVALUE DUP1 ISZERO PUSH2 0x1A8 JUMPI PUSH1 0x0 DUP1 REVERT JUMPDEST POP PUSH2 0x1C3 PUSH1 0x4 DUP1 CALLDATASIZE SUB DUP2 ADD SWAP1 PUSH2 0x1BE SWAP2 SWAP1 PUSH2 0x1932 JUMP JUMPDEST PUSH2 0x4FD JUMP JUMPDEST STOP JUMPDEST CALLVALUE DUP1 ISZERO PUSH2 0x1D1 JUMPI PUSH1 0x0 DUP1 REVERT JUMPDEST POP PUSH2 0x1DA PUSH2 0x7D5 JUMP JUMPDEST PUSH1 0x40 MLOAD PUSH2 0x1E7 SWAP2 SWAP1 PUSH2 0x195F JUMP JUMPDEST PUSH1 0x40 MLOAD DUP1 SWAP2 SUB SWAP1 RETURN JUMPDEST CALLVALUE DUP1 ISZERO PUSH2 0x1FC JUMPI PUSH1 0x0 DUP1 REVERT JUMPDEST POP PUSH2 0x217 PUSH1 0x4 DUP1 CALLDATASIZE SUB DUP2 ADD SWAP1 PUSH2 0x212 SWAP2 SWAP1 PUSH2 0x1932 JUMP JUMPDEST PUSH2 0x7E2 JUMP JUMPDEST PUSH1 0x40 MLOAD PUSH2 0x228 SWAP6 SWAP5 SWAP4 SWAP3 SWAP2 SWAP1 PUSH2 0x1A66 JUMP JUMPDEST PUSH1 0x40 MLOAD DUP1 SWAP2 SUB SWAP1 RETURN JUMPDEST CALLVALUE DUP1 ISZERO PUSH2 0x23D JUMPI PUSH1 0x0 DUP1 REVERT JUMPDEST POP PUSH2 0x258 PUSH1 0x4 DUP1 CALLDATASIZE SUB DUP2 ADD SWAP1 PUSH2 0x253 SWAP2 SWAP1 PUSH2 0x1AEC JUMP JUMPDEST PUSH2 0x8F5 JUMP JUMPDEST STOP JUMPDEST CALLVALUE DUP1 ISZERO PUSH2 0x266 JUMPI PUSH1 0x0 DUP1 REVERT JUMPDEST POP PUSH2 0x281 PUSH1 0x4 DUP1 CALLDATASIZE SUB DUP2 ADD SWAP1 PUSH2 0x27C SWAP2 SWAP1 PUSH2 0x1B2C JUMP JUMPDEST PUSH2 0xAA7 JUMP JUMPDEST STOP JUMPDEST CALLVALUE DUP1 ISZERO PUSH2 0x28F JUMPI PUSH1 0x0 DUP1 REVERT JUMPDEST POP PUSH2 0x298 PUSH2 0xBD2 JUMP JUMPDEST PUSH1 0x40 MLOAD PUSH2 0x2A5 SWAP2 SWAP1 PUSH2 0x195F JUMP JUMPDEST PUSH1 0x40 MLOAD DUP1 SWAP2 SUB SWAP1 RETURN JUMPDEST CALLVALUE DUP1 ISZERO PUSH2 0x2BA JUMPI PUSH1 0x0 DUP1 REVERT JUMPDEST POP PUSH2 0x2D5 PUSH1 0x4 DUP1 CALLDATASIZE SUB DUP2 ADD SWAP1 PUSH2 0x2D0 SWAP2 SWAP1 PUSH2 0x1B2C JUMP JUMPDEST PUSH2 0xBD8 JUMP JUMPDEST PUSH1 0x40 MLOAD PUSH2 0x2E2 SWAP2 SWAP1 PUSH2 0x1B59 JUMP JUMPDEST PUSH1 0x40 MLOAD DUP1 SWAP2 SUB SWAP1 RETURN JUMPDEST CALLVALUE DUP1 ISZERO PUSH2 0x2F7 JUMPI PUSH1 0x0 DUP1 REVERT JUMPDEST POP PUSH2 0x312 PUSH1 0x4 DUP1 CALLDATASIZE SUB DUP2 ADD SWAP1 PUSH2 0x30D SWAP2 SWAP1 PUSH2 0x1B74 JUMP JUMPDEST PUSH2 0xBF8 JUMP JUMPDEST PUSH1 0x40 MLOAD PUSH2 0x31F SWAP2 SWAP1 PUSH2 0x1B59 JUMP JUMPDEST PUSH1 0x40 MLOAD DUP1 SWAP2 SUB SWAP1 RETURN JUMPDEST CALLVALUE DUP1 ISZERO PUSH2 0x334 JUMPI PUSH1 0x0 DUP1 REVERT JUMPDEST POP PUSH2 0x34F PUSH1 0x4 DUP1 CALLDATASIZE SUB DUP2 ADD SWAP1 PUSH2 0x34A SWAP2 SWAP1 PUSH2 0x1CE9 JUMP JUMPDEST PUSH2 0xC27 JUMP JUMPDEST STOP JUMPDEST CALLVALUE DUP1 ISZERO PUSH2 0x35D JUMPI PUSH1 0x0 DUP1 REVERT JUMPDEST POP PUSH2 0x366 PUSH2 0xD78 JUMP JUMPDEST PUSH1 0x40 MLOAD PUSH2 0x373 SWAP2 SWAP1 PUSH2 0x195F JUMP JUMPDEST PUSH1 0x40 MLOAD DUP1 SWAP2 SUB SWAP1 RETURN JUMPDEST CALLVALUE DUP1 ISZERO PUSH2 0x388 JUMPI PUSH1 0x0 DUP1 REVERT JUMPDEST POP PUSH2 0x3A3 PUSH1 0x4 DUP1 CALLDATASIZE SUB DUP2 ADD SWAP1 PUSH2 0x39E SWAP2 SWAP1 PUSH2 0x1932 JUMP JUMPDEST PUSH2 0xD7E JUMP JUMPDEST STOP JUMPDEST CALLVALUE DUP1 ISZERO PUSH2 0x3B1 JUMPI PUSH1 0x0 DUP1 REVERT JUMPDEST POP PUSH2 0x3CC PUSH1 0x4 DUP1 CALLDATASIZE SUB DUP2 ADD SWAP1 PUSH2 0x3C7 SWAP2 SWAP1 PUSH2 0x1B2C JUMP JUMPDEST PUSH2 0x1059 JUMP JUMPDEST STOP JUMPDEST CALLVALUE DUP1 ISZERO PUSH2 0x3DA JUMPI PUSH1 0x0 DUP1 REVERT JUMPDEST POP PUSH2 0x3F5 PUSH1 0x4 DUP1 CALLDATASIZE SUB DUP2 ADD SWAP1 PUSH2 0x3F0 SWAP2 SWAP1 PUSH2 0x1932 JUMP JUMPDEST PUSH2 0x1184 JUMP JUMPDEST STOP JUMPDEST PUSH1 0x5 PUSH1 0x0 CALLER PUSH20 0xFFFFFFFFFFFFFFFFFFFFFFFFFFFFFFFFFFFFFFFF AND PUSH20 0xFFFFFFFFFFFFFFFFFFFFFFFFFFFFFFFFFFFFFFFF AND DUP2 MSTORE PUSH1 0x20 ADD SWAP1 DUP2 MSTORE PUSH1 0x20 ADD PUSH1 0x0 KECCAK256 PUSH1 0x0 SWAP1 SLOAD SWAP1 PUSH2 0x100 EXP SWAP1 DIV PUSH1 0xFF AND PUSH2 0x483 JUMPI PUSH1 0x40 MLOAD PUSH32 0x8C379A000000000000000000000000000000000000000000000000000000000 DUP2 MSTORE PUSH1 0x4 ADD PUSH2 0x47A SWAP1 PUSH2 0x1DB5 JUMP JUMPDEST PUSH1 0x40 MLOAD DUP1 SWAP2 SUB SWAP1 REVERT JUMPDEST PUSH1 0x0 DUP2 SUB PUSH2 0x4C6 JUMPI PUSH1 0x40 MLOAD PUSH32 0x8C379A000000000000000000000000000000000000000000000000000000000 DUP2 MSTORE PUSH1 0x4 ADD PUSH2 0x4BD SWAP1 PUSH2 0x1E21 JUMP JUMPDEST PUSH1 0x40 MLOAD DUP1 SWAP2 SUB SWAP1 REVERT JUMPDEST PUSH2 0x4F4 PUSH1 0x0 DUP3 PUSH1 0x0 PUSH1 0x40 MLOAD PUSH1 0x20 ADD PUSH2 0x4DE SWAP2 SWAP1 PUSH2 0x1E62 JUMP JUMPDEST PUSH1 0x40 MLOAD PUSH1 0x20 DUP2 DUP4 SUB SUB DUP2 MSTORE SWAP1 PUSH1 0x40 MSTORE PUSH1 0x4 PUSH2 0x1678 JUMP JUMPDEST POP JUMP JUMPDEST PUSH1 0x4 SLOAD DUP2 JUMP JUMPDEST PUSH1 0x5 PUSH1 0x0 CALLER PUSH20 0xFFFFFFFFFFFFFFFFFFFFFFFFFFFFFFFFFFFFFFFF AND PUSH20 0xFFFFFFFFFFFFFFFFFFFFFFFFFFFFFFFFFFFFFFFF AND DUP2 MSTORE PUSH1 0x20 ADD SWAP1 DUP2 MSTORE PUSH1 0x20 ADD PUSH1 0x0 KECCAK256 PUSH1 0x0 SWAP1 SLOAD SWAP1 PUSH2 0x100 EXP SWAP1 DIV PUSH1 0xFF AND PUSH2 0x589 JUMPI PUSH1 0x40 MLOAD PUSH32 0x8C379A000000000000000000000000000000000000000000000000000000000 DUP2 MSTORE PUSH1 0x4 ADD PUSH2 0x580 SWAP1 PUSH2 0x1DB5 JUMP JUMPDEST PUSH1 0x40 MLOAD DUP1 SWAP2 SUB SWAP1 REVERT JUMPDEST DUP1 PUSH1 0x1 DUP1 SLOAD SWAP1 POP DUP2 LT PUSH2 0x5D1 JUMPI PUSH1 0x40 MLOAD PUSH32 0x8C379A000000000000000000000000000000000000000000000000000000000 DUP2 MSTORE PUSH1 0x4 ADD PUSH2 0x5C8 SWAP1 PUSH2 0x1EC9 JUMP JUMPDEST PUSH1 0x40 MLOAD DUP1 SWAP2 SUB SWAP1 REVERT JUMPDEST DUP2 PUSH1 0x1 DUP2 DUP2 SLOAD DUP2 LT PUSH2 0x5E6 JUMPI PUSH2 0x5E5 PUSH2 0x1EE9 JUMP JUMPDEST JUMPDEST SWAP1 PUSH1 0x0 MSTORE PUSH1 0x20 PUSH1 0x0 KECCAK256 SWAP1 PUSH1 0x7 MUL ADD PUSH1 0x4 ADD PUSH1 0x0 SWAP1 SLOAD SWAP1 PUSH2 0x100 EXP SWAP1 DIV PUSH1 0xFF AND ISZERO PUSH2 0x645 JUMPI PUSH1 0x40 MLOAD PUSH32 0x8C379A000000000000000000000000000000000000000000000000000000000 DUP2 MSTORE PUSH1 0x4 ADD PUSH2 0x63C SWAP1 PUSH2 0x1F64 JUMP JUMPDEST PUSH1 0x40 MLOAD DUP1 SWAP2 SUB SWAP1 REVERT JUMPDEST PUSH1 0x0 PUSH1 0x1 DUP5 DUP2 SLOAD DUP2 LT PUSH2 0x65B JUMPI PUSH2 0x65A PUSH2 0x1EE9 JUMP JUMPDEST JUMPDEST SWAP1 PUSH1 0x0 MSTORE PUSH1 0x20 PUSH1 0x0 KECCAK256 SWAP1 PUSH1 0x7 MUL ADD SWAP1 POP PUSH1 0x0 DUP1 DUP6 DUP2 MSTORE PUSH1 0x20 ADD SWAP1 DUP2 MSTORE PUSH1 0x20 ADD PUSH1 0x0 KECCAK256 PUSH1 0x0 CALLER PUSH20 0xFFFFFFFFFFFFFFFFFFFFFFFFFFFFFFFFFFFFFFFF AND PUSH20 0xFFFFFFFFFFFFFFFFFFFFFFFFFFFFFFFFFFFFFFFF AND DUP2 MSTORE PUSH1 0x20 ADD SWAP1 DUP2 MSTORE PUSH1 0x20 ADD PUSH1 0x0 KECCAK256 PUSH1 0x0 SWAP1 SLOAD SWAP1 PUSH2 0x100 EXP SWAP1 DIV PUSH1 0xFF AND PUSH2 0x707 JUMPI PUSH1 0x40 MLOAD PUSH32 0x8C379A000000000000000000000000000000000000000000000000000000000 DUP2 MSTORE PUSH1 0x4 ADD PUSH2 0x6FE SWAP1 PUSH2 0x1FD0 JUMP JUMPDEST PUSH1 0x40 MLOAD DUP1 SWAP2 SUB SWAP1 REVERT JUMPDEST PUSH1 0x1 DUP2 PUSH1 0x5 ADD PUSH1 0x0 DUP3 DUP3 SLOAD PUSH2 0x71C SWAP2 SWAP1 PUSH2 0x201F JUMP JUMPDEST SWAP3 POP POP DUP2 SWAP1 SSTORE POP PUSH1 0x0 DUP1 PUSH1 0x0 DUP7 DUP2 MSTORE PUSH1 0x20 ADD SWAP1 DUP2 MSTORE PUSH1 0x20 ADD PUSH1 0x0 KECCAK256 PUSH1 0x0 CALLER PUSH20 0xFFFFFFFFFFFFFFFFFFFFFFFFFFFFFFFFFFFFFFFF AND PUSH20 0xFFFFFFFFFFFFFFFFFFFFFFFFFFFFFFFFFFFFFFFF AND DUP2 MSTORE PUSH1 0x20 ADD SWAP1 DUP2 MSTORE PUSH1 0x20 ADD PUSH1 0x0 KECCAK256 PUSH1 0x0 PUSH2 0x100 EXP DUP2 SLOAD DUP2 PUSH1 0xFF MUL NOT AND SWAP1 DUP4 ISZERO ISZERO MUL OR SWAP1 SSTORE POP DUP4 CALLER PUSH20 0xFFFFFFFFFFFFFFFFFFFFFFFFFFFFFFFFFFFFFFFF AND PUSH32 0xF0DCA620E2E81F7841D07BCC105E1704FB01475B278A9D4C236E1C62945EDD55 PUSH1 0x40 MLOAD PUSH1 0x40 MLOAD DUP1 SWAP2 SUB SWAP1 LOG3 POP POP POP POP JUMP JUMPDEST PUSH1 0x0 PUSH1 0x1 DUP1 SLOAD SWAP1 POP SWAP1 POP SWAP1 JUMP JUMPDEST PUSH1 0x0 DUP1 PUSH1 0x60 PUSH1 0x0 DUP1 PUSH1 0x0 PUSH1 0x1 DUP8 DUP2 SLOAD DUP2 LT PUSH2 0x800 JUMPI PUSH2 0x7FF PUSH2 0x1EE9 JUMP JUMPDEST JUMPDEST SWAP1 PUSH1 0x0 MSTORE PUSH1 0x20 PUSH1 0x0 KECCAK256 SWAP1 PUSH1 0x7 MUL ADD SWAP1 POP DUP1 PUSH1 0x1 ADD PUSH1 0x0 SWAP1 SLOAD SWAP1 PUSH2 0x100 EXP SWAP1 DIV PUSH20 0xFFFFFFFFFFFFFFFFFFFFFFFFFFFFFFFFFFFFFFFF AND DUP2 PUSH1 0x2 ADD SLOAD DUP3 PUSH1 0x3 ADD DUP4 PUSH1 0x4 ADD PUSH1 0x0 SWAP1 SLOAD SWAP1 PUSH2 0x100 EXP SWAP1 DIV PUSH1 0xFF AND DUP5 PUSH1 0x5 ADD SLOAD DUP3 DUP1 SLOAD PUSH2 0x861 SWAP1 PUSH2 0x2082 JUMP JUMPDEST DUP1 PUSH1 0x1F ADD PUSH1 0x20 DUP1 SWAP2 DIV MUL PUSH1 0x20 ADD PUSH1 0x40 MLOAD SWAP1 DUP2 ADD PUSH1 0x40 MSTORE DUP1 SWAP3 SWAP2 SWAP1 DUP2 DUP2 MSTORE PUSH1 0x20 ADD DUP3 DUP1 SLOAD PUSH2 0x88D SWAP1 PUSH2 0x2082 JUMP JUMPDEST DUP1 ISZERO PUSH2 0x8DA JUMPI DUP1 PUSH1 0x1F LT PUSH2 0x8AF JUMPI PUSH2 0x100 DUP1 DUP4 SLOAD DIV MUL DUP4 MSTORE SWAP2 PUSH1 0x20 ADD SWAP2 PUSH2 0x8DA JUMP JUMPDEST DUP3 ADD SWAP2 SWAP1 PUSH1 0x0 MSTORE PUSH1 0x20 PUSH1 0x0 KECCAK256 SWAP1 JUMPDEST DUP2 SLOAD DUP2 MSTORE SWAP1 PUSH1 0x1 ADD SWAP1 PUSH1 0x20 ADD DUP1 DUP4 GT PUSH2 0x8BD JUMPI DUP3 SWAP1 SUB PUSH1 0x1F AND DUP3 ADD SWAP2 JUMPDEST POP POP POP POP POP SWAP3 POP SWAP6 POP SWAP6 POP SWAP6 POP SWAP6 POP SWAP6 POP POP SWAP2 SWAP4 SWAP6 SWAP1 SWAP3 SWAP5 POP JUMP JUMPDEST PUSH1 0x5 PUSH1 0x0 CALLER PUSH20 0xFFFFFFFFFFFFFFFFFFFFFFFFFFFFFFFFFFFFFFFF AND PUSH20 0xFFFFFFFFFFFFFFFFFFFFFFFFFFFFFFFFFFFFFFFF AND DUP2 MSTORE PUSH1 0x20 ADD SWAP1 DUP2 MSTORE PUSH1 0x20 ADD PUSH1 0x0 KECCAK256 PUSH1 0x0 SWAP1 SLOAD SWAP1 PUSH2 0x100 EXP SWAP1 DIV PUSH1 0xFF AND PUSH2 0x981 JUMPI PUSH1 0x40 MLOAD PUSH32 0x8C379A000000000000000000000000000000000000000000000000000000000 DUP2 MSTORE PUSH1 0x4 ADD PUSH2 0x978 SWAP1 PUSH2 0x1DB5 JUMP JUMPDEST PUSH1 0x40 MLOAD DUP1 SWAP2 SUB SWAP1 REVERT JUMPDEST PUSH1 0x0 PUSH20 0xFFFFFFFFFFFFFFFFFFFFFFFFFFFFFFFFFFFFFFFF AND DUP3 PUSH20 0xFFFFFFFFFFFFFFFFFFFFFFFFFFFFFFFFFFFFFFFF AND SUB PUSH2 0x9F0 JUMPI PUSH1 0x40 MLOAD PUSH32 0x8C379A000000000000000000000000000000000000000000000000000000000 DUP2 MSTORE PUSH1 0x4 ADD PUSH2 0x9E7 SWAP1 PUSH2 0x20FF JUMP JUMPDEST PUSH1 0x40 MLOAD DUP1 SWAP2 SUB SWAP1 REVERT JUMPDEST PUSH1 0x0 DUP2 SUB PUSH2 0xA33 JUMPI PUSH1 0x40 MLOAD PUSH32 0x8C379A000000000000000000000000000000000000000000000000000000000 DUP2 MSTORE PUSH1 0x4 ADD PUSH2 0xA2A SWAP1 PUSH2 0x216B JUMP JUMPDEST PUSH1 0x40 MLOAD DUP1 SWAP2 SUB SWAP1 REVERT JUMPDEST DUP1 SELFBALANCE LT ISZERO PUSH2 0xA76 JUMPI PUSH1 0x40 MLOAD PUSH32 0x8C379A000000000000000000000000000000000000000000000000000000000 DUP2 MSTORE PUSH1 0x4 ADD PUSH2 0xA6D SWAP1 PUSH2 0x21FD JUMP JUMPDEST PUSH1 0x40 MLOAD DUP1 SWAP2 SUB SWAP1 REVERT JUMPDEST PUSH2 0xAA3 DUP3 DUP3 PUSH1 0x0 PUSH1 0x40 MLOAD PUSH1 0x20 ADD PUSH2 0xA8D SWAP2 SWAP1 PUSH2 0x1E62 JUMP JUMPDEST PUSH1 0x40 MLOAD PUSH1 0x20 DUP2 DUP4 SUB SUB DUP2 MSTORE SWAP1 PUSH1 0x40 MSTORE PUSH1 0x0 PUSH2 0x1678 JUMP JUMPDEST POP POP JUMP JUMPDEST PUSH1 0x5 PUSH1 0x0 CALLER PUSH20 0xFFFFFFFFFFFFFFFFFFFFFFFFFFFFFFFFFFFFFFFF AND PUSH20 0xFFFFFFFFFFFFFFFFFFFFFFFFFFFFFFFFFFFFFFFF AND DUP2 MSTORE PUSH1 0x20 ADD SWAP1 DUP2 MSTORE PUSH1 0x20 ADD PUSH1 0x0 KECCAK256 PUSH1 0x0 SWAP1 SLOAD SWAP1 PUSH2 0x100 EXP SWAP1 DIV PUSH1 0xFF AND PUSH2 0xB33 JUMPI PUSH1 0x40 MLOAD PUSH32 0x8C379A000000000000000000000000000000000000000000000000000000000 DUP2 MSTORE PUSH1 0x4 ADD PUSH2 0xB2A SWAP1 PUSH2 0x1DB5 JUMP JUMPDEST PUSH1 0x40 MLOAD DUP1 SWAP2 SUB SWAP1 REVERT JUMPDEST PUSH1 0x0 PUSH20 0xFFFFFFFFFFFFFFFFFFFFFFFFFFFFFFFFFFFFFFFF AND DUP2 PUSH20 0xFFFFFFFFFFFFFFFFFFFFFFFFFFFFFFFFFFFFFFFF AND SUB PUSH2 0xBA2 JUMPI PUSH1 0x40 MLOAD PUSH32 0x8C379A000000000000000000000000000000000000000000000000000000000 DUP2 MSTORE PUSH1 0x4 ADD PUSH2 0xB99 SWAP1 PUSH2 0x2269 JUMP JUMPDEST PUSH1 0x40 MLOAD DUP1 SWAP2 SUB SWAP1 REVERT JUMPDEST PUSH2 0xBCF DUP2 PUSH1 0x0 DUP1 PUSH1 0x40 MLOAD PUSH1 0x20 ADD PUSH2 0xBB9 SWAP2 SWAP1 PUSH2 0x1E62 JUMP JUMPDEST PUSH1 0x40 MLOAD PUSH1 0x20 DUP2 DUP4 SUB SUB DUP2 MSTORE SWAP1 PUSH1 0x40 MSTORE PUSH1 0x2 PUSH2 0x1678 JUMP JUMPDEST POP JUMP JUMPDEST PUSH1 0x2 SLOAD DUP2 JUMP JUMPDEST PUSH1 0x5 PUSH1 0x20 MSTORE DUP1 PUSH1 0x0 MSTORE PUSH1 0x40 PUSH1 0x0 KECCAK256 PUSH1 0x0 SWAP2 POP SLOAD SWAP1 PUSH2 0x100 EXP SWAP1 DIV PUSH1 0xFF AND DUP2 JUMP JUMPDEST PUSH1 0x0 PUSH1 0x20 MSTORE DUP2 PUSH1 0x0 MSTORE PUSH1 0x40 PUSH1 0x0 KECCAK256 PUSH1 0x20 MSTORE DUP1 PUSH1 0x0 MSTORE PUSH1 0x40 PUSH1 0x0 KECCAK256 PUSH1 0x0 SWAP2 POP SWAP2 POP SWAP1 SLOAD SWAP1 PUSH2 0x100 EXP SWAP1 DIV PUSH1 0xFF AND DUP2 JUMP JUMPDEST PUSH1 0x5 PUSH1 0x0 CALLER PUSH20 0xFFFFFFFFFFFFFFFFFFFFFFFFFFFFFFFFFFFFFFFF AND PUSH20 0xFFFFFFFFFFFFFFFFFFFFFFFFFFFFFFFFFFFFFFFF AND DUP2 MSTORE PUSH1 0x20 ADD SWAP1 DUP2 MSTORE PUSH1 0x20 ADD PUSH1 0x0 KECCAK256 PUSH1 0x0 SWAP1 SLOAD SWAP1 PUSH2 0x100 EXP SWAP1 DIV PUSH1 0xFF AND PUSH2 0xCB3 JUMPI PUSH1 0x40 MLOAD PUSH32 0x8C379A000000000000000000000000000000000000000000000000000000000 DUP2 MSTORE PUSH1 0x4 ADD PUSH2 0xCAA SWAP1 PUSH2 0x1DB5 JUMP JUMPDEST PUSH1 0x40 MLOAD DUP1 SWAP2 SUB SWAP1 REVERT JUMPDEST PUSH1 0x0 PUSH20 0xFFFFFFFFFFFFFFFFFFFFFFFFFFFFFFFFFFFFFFFF AND DUP4 PUSH20 0xFFFFFFFFFFFFFFFFFFFFFFFFFFFFFFFFFFFFFFFF AND SUB PUSH2 0xD22 JUMPI PUSH1 0x40 MLOAD PUSH32 0x8C379A000000000000000000000000000000000000000000000000000000000 DUP2 MSTORE PUSH1 0x4 ADD PUSH2 0xD19 SWAP1 PUSH2 0x20FF JUMP JUMPDEST PUSH1 0x40 MLOAD DUP1 SWAP2 SUB SWAP1 REVERT JUMPDEST PUSH1 0x0 DUP2 MLOAD GT PUSH2 0xD66 JUMPI PUSH1 0x40 MLOAD PUSH32 0x8C379A000000000000000000000000000000000000000000000000000000000 DUP2 MSTORE PUSH1 0x4 ADD PUSH2 0xD5D SWAP1 PUSH2 0x22D5 JUMP JUMPDEST PUSH1 0x40 MLOAD DUP1 SWAP2 SUB SWAP1 REVERT JUMPDEST PUSH2 0xD73 DUP4 DUP4 DUP4 PUSH1 0x1 PUSH2 0x1678 JUMP JUMPDEST POP POP POP JUMP JUMPDEST PUSH1 0x3 SLOAD DUP2 JUMP JUMPDEST PUSH1 0x5 PUSH1 0x0 CALLER PUSH20 0xFFFFFFFFFFFFFFFFFFFFFFFFFFFFFFFFFFFFFFFF AND PUSH20 0xFFFFFFFFFFFFFFFFFFFFFFFFFFFFFFFFFFFFFFFF AND DUP2 MSTORE PUSH1 0x20 ADD SWAP1 DUP2 MSTORE PUSH1 0x20 ADD PUSH1 0x0 KECCAK256 PUSH1 0x0 SWAP1 SLOAD SWAP1 PUSH2 0x100 EXP SWAP1 DIV PUSH1 0xFF AND PUSH2 0xE0A JUMPI PUSH1 0x40 MLOAD PUSH32 0x8C379A000000000000000000000000000000000000000000000000000000000 DUP2 MSTORE PUSH1 0x4 ADD PUSH2 0xE01 SWAP1 PUSH2 0x1DB5 JUMP JUMPDEST PUSH1 0x40 MLOAD DUP1 SWAP2 SUB SWAP1 REVERT JUMPDEST DUP1 PUSH1 0x1 DUP1 SLOAD SWAP1 POP DUP2 LT PUSH2 0xE52 JUMPI PUSH1 0x40 MLOAD PUSH32 0x8C379A000000000000000000000000000000000000000000000000000000000 DUP2 MSTORE PUSH1 0x4 ADD PUSH2 0xE49 SWAP1 PUSH2 0x1EC9 JUMP JUMPDEST PUSH1 0x40 MLOAD DUP1 SWAP2 SUB SWAP1 REVERT JUMPDEST DUP2 PUSH1 0x1 DUP2 DUP2 SLOAD DUP2 LT PUSH2 0xE67 JUMPI PUSH2 0xE66 PUSH2 0x1EE9 JUMP JUMPDEST JUMPDEST SWAP1 PUSH1 0x0 MSTORE PUSH1 0x20 PUSH1 0x0 KECCAK256 SWAP1 PUSH1 0x7 MUL ADD PUSH1 0x4 ADD PUSH1 0x0 SWAP1 SLOAD SWAP1 PUSH2 0x100 EXP SWAP1 DIV PUSH1 0xFF AND ISZERO PUSH2 0xEC6 JUMPI PUSH1 0x40 MLOAD PUSH32 0x8C379A000000000000000000000000000000000000000000000000000000000 DUP2 MSTORE PUSH1 0x4 ADD PUSH2 0xEBD SWAP1 PUSH2 0x1F64 JUMP JUMPDEST PUSH1 0x40 MLOAD DUP1 SWAP2 SUB SWAP1 REVERT JUMPDEST DUP3 PUSH1 0x0 DUP1 DUP3 DUP2 MSTORE PUSH1 0x20 ADD SWAP1 DUP2 MSTORE PUSH1 0x20 ADD PUSH1 0x0 KECCAK256 PUSH1 0x0 CALLER PUSH20 0xFFFFFFFFFFFFFFFFFFFFFFFFFFFFFFFFFFFFFFFF AND PUSH20 0xFFFFFFFFFFFFFFFFFFFFFFFFFFFFFFFFFFFFFFFF AND DUP2 MSTORE PUSH1 0x20 ADD SWAP1 DUP2 MSTORE PUSH1 0x20 ADD PUSH1 0x0 KECCAK256 PUSH1 0x0 SWAP1 SLOAD SWAP1 PUSH2 0x100 EXP SWAP1 DIV PUSH1 0xFF AND ISZERO PUSH2 0xF64 JUMPI PUSH1 0x40 MLOAD PUSH32 0x8C379A000000000000000000000000000000000000000000000000000000000 DUP2 MSTORE PUSH1 0x4 ADD PUSH2 0xF5B SWAP1 PUSH2 0x2341 JUMP JUMPDEST PUSH1 0x40 MLOAD DUP1 SWAP2 SUB SWAP1 REVERT JUMPDEST PUSH1 0x0 PUSH1 0x1 DUP6 DUP2 SLOAD DUP2 LT PUSH2 0xF7A JUMPI PUSH2 0xF79 PUSH2 0x1EE9 JUMP JUMPDEST JUMPDEST SWAP1 PUSH1 0x0 MSTORE PUSH1 0x20 PUSH1 0x0 KECCAK256 SWAP1 PUSH1 0x7 MUL ADD SWAP1 POP PUSH1 0x1 DUP2 PUSH1 0x5 ADD PUSH1 0x0 DUP3 DUP3 SLOAD PUSH2 0xF9F SWAP2 SWAP1 PUSH2 0x2361 JUMP JUMPDEST SWAP3 POP POP DUP2 SWAP1 SSTORE POP PUSH1 0x1 PUSH1 0x0 DUP1 DUP8 DUP2 MSTORE PUSH1 0x20 ADD SWAP1 DUP2 MSTORE PUSH1 0x20 ADD PUSH1 0x0 KECCAK256 PUSH1 0x0 CALLER PUSH20 0xFFFFFFFFFFFFFFFFFFFFFFFFFFFFFFFFFFFFFFFF AND PUSH20 0xFFFFFFFFFFFFFFFFFFFFFFFFFFFFFFFFFFFFFFFF AND DUP2 MSTORE PUSH1 0x20 ADD SWAP1 DUP2 MSTORE PUSH1 0x20 ADD PUSH1 0x0 KECCAK256 PUSH1 0x0 PUSH2 0x100 EXP DUP2 SLOAD DUP2 PUSH1 0xFF MUL NOT AND SWAP1 DUP4 ISZERO ISZERO MUL OR SWAP1 SSTORE POP DUP5 CALLER PUSH20 0xFFFFFFFFFFFFFFFFFFFFFFFFFFFFFFFFFFFFFFFF AND PUSH32 0x5CBE105E36805F7820E291F799D5794FF948AF2A5F664E580382DEFB63390041 PUSH1 0x40 MLOAD PUSH1 0x40 MLOAD DUP1 SWAP2 SUB SWAP1 LOG3 POP POP POP POP POP JUMP JUMPDEST PUSH1 0x5 PUSH1 0x0 CALLER PUSH20 0xFFFFFFFFFFFFFFFFFFFFFFFFFFFFFFFFFFFFFFFF AND PUSH20 0xFFFFFFFFFFFFFFFFFFFFFFFFFFFFFFFFFFFFFFFF AND DUP2 MSTORE PUSH1 0x20 ADD SWAP1 DUP2 MSTORE PUSH1 0x20 ADD PUSH1 0x0 KECCAK256 PUSH1 0x0 SWAP1 SLOAD SWAP1 PUSH2 0x100 EXP SWAP1 DIV PUSH1 0xFF AND PUSH2 0x10E5 JUMPI PUSH1 0x40 MLOAD PUSH32 0x8C379A000000000000000000000000000000000000000000000000000000000 DUP2 MSTORE PUSH1 0x4 ADD PUSH2 0x10DC SWAP1 PUSH2 0x1DB5 JUMP JUMPDEST PUSH1 0x40 MLOAD DUP1 SWAP2 SUB SWAP1 REVERT JUMPDEST PUSH1 0x0 PUSH20 0xFFFFFFFFFFFFFFFFFFFFFFFFFFFFFFFFFFFFFFFF AND DUP2 PUSH20 0xFFFFFFFFFFFFFFFFFFFFFFFFFFFFFFFFFFFFFFFF AND SUB PUSH2 0x1154 JUMPI PUSH1 0x40 MLOAD PUSH32 0x8C379A000000000000000000000000000000000000000000000000000000000 DUP2 MSTORE PUSH1 0x4 ADD PUSH2 0x114B SWAP1 PUSH2 0x2269 JUMP JUMPDEST PUSH1 0x40 MLOAD DUP1 SWAP2 SUB SWAP1 REVERT JUMPDEST PUSH2 0x1181 DUP2 PUSH1 0x0 DUP1 PUSH1 0x40 MLOAD PUSH1 0x20 ADD PUSH2 0x116B SWAP2 SWAP1 PUSH2 0x1E62 JUMP JUMPDEST PUSH1 0x40 MLOAD PUSH1 0x20 DUP2 DUP4 SUB SUB DUP2 MSTORE SWAP1 PUSH1 0x40 MSTORE PUSH1 0x3 PUSH2 0x1678 JUMP JUMPDEST POP JUMP JUMPDEST PUSH1 0x5 PUSH1 0x0 CALLER PUSH20 0xFFFFFFFFFFFFFFFFFFFFFFFFFFFFFFFFFFFFFFFF AND PUSH20 0xFFFFFFFFFFFFFFFFFFFFFFFFFFFFFFFFFFFFFFFF AND DUP2 MSTORE PUSH1 0x20 ADD SWAP1 DUP2 MSTORE PUSH1 0x20 ADD PUSH1 0x0 KECCAK256 PUSH1 0x0 SWAP1 SLOAD SWAP1 PUSH2 0x100 EXP SWAP1 DIV PUSH1 0xFF AND PUSH2 0x1210 JUMPI PUSH1 0x40 MLOAD PUSH32 0x8C379A000000000000000000000000000000000000000000000000000000000 DUP2 MSTORE PUSH1 0x4 ADD PUSH2 0x1207 SWAP1 PUSH2 0x1DB5 JUMP JUMPDEST PUSH1 0x40 MLOAD DUP1 SWAP2 SUB SWAP1 REVERT JUMPDEST DUP1 PUSH1 0x1 DUP1 SLOAD SWAP1 POP DUP2 LT PUSH2 0x1258 JUMPI PUSH1 0x40 MLOAD PUSH32 0x8C379A000000000000000000000000000000000000000000000000000000000 DUP2 MSTORE PUSH1 0x4 ADD PUSH2 0x124F SWAP1 PUSH2 0x1EC9 JUMP JUMPDEST PUSH1 0x40 MLOAD DUP1 SWAP2 SUB SWAP1 REVERT JUMPDEST DUP2 PUSH1 0x1 DUP2 DUP2 SLOAD DUP2 LT PUSH2 0x126D JUMPI PUSH2 0x126C PUSH2 0x1EE9 JUMP JUMPDEST JUMPDEST SWAP1 PUSH1 0x0 MSTORE PUSH1 0x20 PUSH1 0x0 KECCAK256 SWAP1 PUSH1 0x7 MUL ADD PUSH1 0x4 ADD PUSH1 0x0 SWAP1 SLOAD SWAP1 PUSH2 0x100 EXP SWAP1 DIV PUSH1 0xFF AND ISZERO PUSH2 0x12CC JUMPI PUSH1 0x40 MLOAD PUSH32 0x8C379A000000000000000000000000000000000000000000000000000000000 DUP2 MSTORE PUSH1 0x4 ADD PUSH2 0x12C3 SWAP1 PUSH2 0x1F64 JUMP JUMPDEST PUSH1 0x40 MLOAD DUP1 SWAP2 SUB SWAP1 REVERT JUMPDEST PUSH1 0x0 PUSH1 0x1 DUP5 DUP2 SLOAD DUP2 LT PUSH2 0x12E2 JUMPI PUSH2 0x12E1 PUSH2 0x1EE9 JUMP JUMPDEST JUMPDEST SWAP1 PUSH1 0x0 MSTORE PUSH1 0x20 PUSH1 0x0 KECCAK256 SWAP1 PUSH1 0x7 MUL ADD SWAP1 POP PUSH1 0x4 SLOAD DUP2 PUSH1 0x5 ADD SLOAD LT ISZERO PUSH2 0x133B JUMPI PUSH1 0x40 MLOAD PUSH32 0x8C379A000000000000000000000000000000000000000000000000000000000 DUP2 MSTORE PUSH1 0x4 ADD PUSH2 0x1332 SWAP1 PUSH2 0x23E1 JUMP JUMPDEST PUSH1 0x40 MLOAD DUP1 SWAP2 SUB SWAP1 REVERT JUMPDEST PUSH1 0x1 DUP2 PUSH1 0x4 ADD PUSH1 0x0 PUSH2 0x100 EXP DUP2 SLOAD DUP2 PUSH1 0xFF MUL NOT AND SWAP1 DUP4 ISZERO ISZERO MUL OR SWAP1 SSTORE POP DUP4 CALLER PUSH20 0xFFFFFFFFFFFFFFFFFFFFFFFFFFFFFFFFFFFFFFFF AND PUSH32 0x5445F318F4F5FCFB66592E68E0CC5822AA15664039BD5F0FFDE24C5A8142B1AC PUSH1 0x40 MLOAD PUSH1 0x40 MLOAD DUP1 SWAP2 SUB SWAP1 LOG3 PUSH1 0x2 PUSH1 0x4 DUP2 GT ISZERO PUSH2 0x13B0 JUMPI PUSH2 0x13AF PUSH2 0x2401 JUMP JUMPDEST JUMPDEST DUP2 PUSH1 0x6 ADD PUSH1 0x0 SWAP1 SLOAD SWAP1 PUSH2 0x100 EXP SWAP1 DIV PUSH1 0xFF AND PUSH1 0x4 DUP2 GT ISZERO PUSH2 0x13D4 JUMPI PUSH2 0x13D3 PUSH2 0x2401 JUMP JUMPDEST JUMPDEST SUB PUSH2 0x1473 JUMPI PUSH1 0x1 PUSH1 0x5 PUSH1 0x0 DUP4 PUSH1 0x1 ADD PUSH1 0x0 SWAP1 SLOAD SWAP1 PUSH2 0x100 EXP SWAP1 DIV PUSH20 0xFFFFFFFFFFFFFFFFFFFFFFFFFFFFFFFFFFFFFFFF AND PUSH20 0xFFFFFFFFFFFFFFFFFFFFFFFFFFFFFFFFFFFFFFFF AND PUSH20 0xFFFFFFFFFFFFFFFFFFFFFFFFFFFFFFFFFFFFFFFF AND DUP2 MSTORE PUSH1 0x20 ADD SWAP1 DUP2 MSTORE PUSH1 0x20 ADD PUSH1 0x0 KECCAK256 PUSH1 0x0 PUSH2 0x100 EXP DUP2 SLOAD DUP2 PUSH1 0xFF MUL NOT AND SWAP1 DUP4 ISZERO ISZERO MUL OR SWAP1 SSTORE POP PUSH1 0x2 PUSH1 0x0 DUP2 SLOAD DUP1 SWAP3 SWAP2 SWAP1 PUSH2 0x1468 SWAP1 PUSH2 0x2430 JUMP JUMPDEST SWAP2 SWAP1 POP SSTORE POP POP PUSH2 0x1673 JUMP JUMPDEST PUSH1 0x3 PUSH1 0x4 DUP2 GT ISZERO PUSH2 0x1487 JUMPI PUSH2 0x1486 PUSH2 0x2401 JUMP JUMPDEST JUMPDEST DUP2 PUSH1 0x6 ADD PUSH1 0x0 SWAP1 SLOAD SWAP1 PUSH2 0x100 EXP SWAP1 DIV PUSH1 0xFF AND PUSH1 0x4 DUP2 GT ISZERO PUSH2 0x14AB JUMPI PUSH2 0x14AA PUSH2 0x2401 JUMP JUMPDEST JUMPDEST SUB PUSH2 0x154A JUMPI PUSH1 0x0 PUSH1 0x5 PUSH1 0x0 DUP4 PUSH1 0x1 ADD PUSH1 0x0 SWAP1 SLOAD SWAP1 PUSH2 0x100 EXP SWAP1 DIV PUSH20 0xFFFFFFFFFFFFFFFFFFFFFFFFFFFFFFFFFFFFFFFF AND PUSH20 0xFFFFFFFFFFFFFFFFFFFFFFFFFFFFFFFFFFFFFFFF AND PUSH20 0xFFFFFFFFFFFFFFFFFFFFFFFFFFFFFFFFFFFFFFFF AND DUP2 MSTORE PUSH1 0x20 ADD SWAP1 DUP2 MSTORE PUSH1 0x20 ADD PUSH1 0x0 KECCAK256 PUSH1 0x0 PUSH2 0x100 EXP DUP2 SLOAD DUP2 PUSH1 0xFF MUL NOT AND SWAP1 DUP4 ISZERO ISZERO MUL OR SWAP1 SSTORE POP PUSH1 0x2 PUSH1 0x0 DUP2 SLOAD DUP1 SWAP3 SWAP2 SWAP1 PUSH2 0x153F SWAP1 PUSH2 0x2478 JUMP JUMPDEST SWAP2 SWAP1 POP SSTORE POP POP PUSH2 0x1673 JUMP JUMPDEST PUSH1 0x4 DUP1 DUP2 GT ISZERO PUSH2 0x155D JUMPI PUSH2 0x155C PUSH2 0x2401 JUMP JUMPDEST JUMPDEST DUP2 PUSH1 0x6 ADD PUSH1 0x0 SWAP1 SLOAD SWAP1 PUSH2 0x100 EXP SWAP1 DIV PUSH1 0xFF AND PUSH1 0x4 DUP2 GT ISZERO PUSH2 0x1581 JUMPI PUSH2 0x1580 PUSH2 0x2401 JUMP JUMPDEST JUMPDEST SUB PUSH2 0x1597 JUMPI DUP1 PUSH1 0x2 ADD SLOAD PUSH1 0x4 DUP2 SWAP1 SSTORE POP POP PUSH2 0x1673 JUMP JUMPDEST PUSH1 0x0 DUP2 PUSH1 0x1 ADD PUSH1 0x0 SWAP1 SLOAD SWAP1 PUSH2 0x100 EXP SWAP1 DIV PUSH20 0xFFFFFFFFFFFFFFFFFFFFFFFFFFFFFFFFFFFFFFFF AND PUSH20 0xFFFFFFFFFFFFFFFFFFFFFFFFFFFFFFFFFFFFFFFF AND DUP3 PUSH1 0x2 ADD SLOAD DUP4 PUSH1 0x3 ADD PUSH1 0x40 MLOAD PUSH2 0x15EA SWAP2 SWAP1 PUSH2 0x2544 JUMP JUMPDEST PUSH1 0x0 PUSH1 0x40 MLOAD DUP1 DUP4 SUB DUP2 DUP6 DUP8 GAS CALL SWAP3 POP POP POP RETURNDATASIZE DUP1 PUSH1 0x0 DUP2 EQ PUSH2 0x1627 JUMPI PUSH1 0x40 MLOAD SWAP2 POP PUSH1 0x1F NOT PUSH1 0x3F RETURNDATASIZE ADD AND DUP3 ADD PUSH1 0x40 MSTORE RETURNDATASIZE DUP3 MSTORE RETURNDATASIZE PUSH1 0x0 PUSH1 0x20 DUP5 ADD RETURNDATACOPY PUSH2 0x162C JUMP JUMPDEST PUSH1 0x60 SWAP2 POP JUMPDEST POP POP SWAP1 POP DUP1 PUSH2 0x1670 JUMPI PUSH1 0x40 MLOAD PUSH32 0x8C379A000000000000000000000000000000000000000000000000000000000 DUP2 MSTORE PUSH1 0x4 ADD PUSH2 0x1667 SWAP1 PUSH2 0x25A7 JUMP JUMPDEST PUSH1 0x40 MLOAD DUP1 SWAP2 SUB SWAP1 REVERT JUMPDEST POP POP JUMPDEST POP POP POP JUMP JUMPDEST PUSH1 0x0 PUSH1 0x1 DUP1 SLOAD SWAP1 POP SWAP1 POP PUSH1 0x1 PUSH1 0x40 MLOAD DUP1 PUSH1 0xE0 ADD PUSH1 0x40 MSTORE DUP1 DUP4 DUP2 MSTORE PUSH1 0x20 ADD DUP8 PUSH20 0xFFFFFFFFFFFFFFFFFFFFFFFFFFFFFFFFFFFFFFFF AND DUP2 MSTORE PUSH1 0x20 ADD DUP7 DUP2 MSTORE PUSH1 0x20 ADD DUP6 DUP2 MSTORE PUSH1 0x20 ADD PUSH1 0x0 ISZERO ISZERO DUP2 MSTORE PUSH1 0x20 ADD PUSH1 0x1 DUP2 MSTORE PUSH1 0x20 ADD DUP5 PUSH1 0x4 DUP2 GT ISZERO PUSH2 0x16E0 JUMPI PUSH2 0x16DF PUSH2 0x2401 JUMP JUMPDEST JUMPDEST DUP2 MSTORE POP SWAP1 DUP1 PUSH1 0x1 DUP2 SLOAD ADD DUP1 DUP3 SSTORE DUP1 SWAP2 POP POP PUSH1 0x1 SWAP1 SUB SWAP1 PUSH1 0x0 MSTORE PUSH1 0x20 PUSH1 0x0 KECCAK256 SWAP1 PUSH1 0x7 MUL ADD PUSH1 0x0 SWAP1 SWAP2 SWAP1 SWAP2 SWAP1 SWAP2 POP PUSH1 0x0 DUP3 ADD MLOAD DUP2 PUSH1 0x0 ADD SSTORE PUSH1 0x20 DUP3 ADD MLOAD DUP2 PUSH1 0x1 ADD PUSH1 0x0 PUSH2 0x100 EXP DUP2 SLOAD DUP2 PUSH20 0xFFFFFFFFFFFFFFFFFFFFFFFFFFFFFFFFFFFFFFFF MUL NOT AND SWAP1 DUP4 PUSH20 0xFFFFFFFFFFFFFFFFFFFFFFFFFFFFFFFFFFFFFFFF AND MUL OR SWAP1 SSTORE POP PUSH1 0x40 DUP3 ADD MLOAD DUP2 PUSH1 0x2 ADD SSTORE PUSH1 0x60 DUP3 ADD MLOAD DUP2 PUSH1 0x3 ADD SWAP1 DUP2 PUSH2 0x177C SWAP2 SWAP1 PUSH2 0x275E JUMP JUMPDEST POP PUSH1 0x80 DUP3 ADD MLOAD DUP2 PUSH1 0x4 ADD PUSH1 0x0 PUSH2 0x100 EXP DUP2 SLOAD DUP2 PUSH1 0xFF MUL NOT AND SWAP1 DUP4 ISZERO ISZERO MUL OR SWAP1 SSTORE POP PUSH1 0xA0 DUP3 ADD MLOAD DUP2 PUSH1 0x5 ADD SSTORE PUSH1 0xC0 DUP3 ADD MLOAD DUP2 PUSH1 0x6 ADD PUSH1 0x0 PUSH2 0x100 EXP DUP2 SLOAD DUP2 PUSH1 0xFF MUL NOT AND SWAP1 DUP4 PUSH1 0x4 DUP2 GT ISZERO PUSH2 0x17D2 JUMPI PUSH2 0x17D1 PUSH2 0x2401 JUMP JUMPDEST JUMPDEST MUL OR SWAP1 SSTORE POP POP POP PUSH1 0x1 PUSH1 0x0 DUP1 DUP4 DUP2 MSTORE PUSH1 0x20 ADD SWAP1 DUP2 MSTORE PUSH1 0x20 ADD PUSH1 0x0 KECCAK256 PUSH1 0x0 CALLER PUSH20 0xFFFFFFFFFFFFFFFFFFFFFFFFFFFFFFFFFFFFFFFF AND PUSH20 0xFFFFFFFFFFFFFFFFFFFFFFFFFFFFFFFFFFFFFFFF AND DUP2 MSTORE PUSH1 0x20 ADD SWAP1 DUP2 MSTORE PUSH1 0x20 ADD PUSH1 0x0 KECCAK256 PUSH1 0x0 PUSH2 0x100 EXP DUP2 SLOAD DUP2 PUSH1 0xFF MUL NOT AND SWAP1 DUP4 ISZERO ISZERO MUL OR SWAP1 SSTORE POP DUP5 PUSH20 0xFFFFFFFFFFFFFFFFFFFFFFFFFFFFFFFFFFFFFFFF AND DUP2 CALLER PUSH20 0xFFFFFFFFFFFFFFFFFFFFFFFFFFFFFFFFFFFFFFFF AND PUSH32 0xF184E47ED04FEEE43669E05EC04EA91A7248BBFECAEB6BA6573A6446E9A05CE2 DUP8 DUP7 PUSH1 0x40 MLOAD PUSH2 0x18A1 SWAP3 SWAP2 SWAP1 PUSH2 0x2878 JUMP JUMPDEST PUSH1 0x40 MLOAD DUP1 SWAP2 SUB SWAP1 LOG4 POP POP POP POP POP JUMP JUMPDEST PUSH1 0x0 DUP2 SWAP1 POP SWAP2 SWAP1 POP JUMP JUMPDEST PUSH2 0x18C3 DUP2 PUSH2 0x18B0 JUMP JUMPDEST DUP3 MSTORE POP POP JUMP JUMPDEST PUSH1 0x0 PUSH1 0x40 DUP3 ADD SWAP1 POP PUSH2 0x18DE PUSH1 0x0 DUP4 ADD DUP6 PUSH2 0x18BA JUMP JUMPDEST PUSH2 0x18EB PUSH1 0x20 DUP4 ADD DUP5 PUSH2 0x18BA JUMP JUMPDEST SWAP4 SWAP3 POP POP POP JUMP JUMPDEST PUSH1 0x0 PUSH1 0x40 MLOAD SWAP1 POP SWAP1 JUMP JUMPDEST PUSH1 0x0 DUP1 REVERT JUMPDEST PUSH1 0x0 DUP1 REVERT JUMPDEST PUSH2 0x190F DUP2 PUSH2 0x18B0 JUMP JUMPDEST DUP2 EQ PUSH2 0x191A JUMPI PUSH1 0x0 DUP1 REVERT JUMPDEST POP JUMP JUMPDEST PUSH1 0x0 DUP2 CALLDATALOAD SWAP1 POP PUSH2 0x192C DUP2 PUSH2 0x1906 JUMP JUMPDEST SWAP3 SWAP2 POP POP JUMP JUMPDEST PUSH1 0x0 PUSH1 0x20 DUP3 DUP5 SUB SLT ISZERO PUSH2 0x1948 JUMPI PUSH2 0x1947 PUSH2 0x18FC JUMP JUMPDEST JUMPDEST PUSH1 0x0 PUSH2 0x1956 DUP5 DUP3 DUP6 ADD PUSH2 0x191D JUMP JUMPDEST SWAP2 POP POP SWAP3 SWAP2 POP POP JUMP JUMPDEST PUSH1 0x0 PUSH1 0x20 DUP3 ADD SWAP1 POP PUSH2 0x1974 PUSH1 0x0 DUP4 ADD DUP5 PUSH2 0x18BA JUMP JUMPDEST SWAP3 SWAP2 POP POP JUMP JUMPDEST PUSH1 0x0 PUSH20 0xFFFFFFFFFFFFFFFFFFFFFFFFFFFFFFFFFFFFFFFF DUP3 AND SWAP1 POP SWAP2 SWAP1 POP JUMP JUMPDEST PUSH1 0x0 PUSH2 0x19A5 DUP3 PUSH2 0x197A JUMP JUMPDEST SWAP1 POP SWAP2 SWAP1 POP JUMP JUMPDEST PUSH2 0x19B5 DUP2 PUSH2 0x199A JUMP JUMPDEST DUP3 MSTORE POP POP JUMP JUMPDEST PUSH1 0x0 DUP2 MLOAD SWAP1 POP SWAP2 SWAP1 POP JUMP JUMPDEST PUSH1 0x0 DUP3 DUP3 MSTORE PUSH1 0x20 DUP3 ADD SWAP1 POP SWAP3 SWAP2 POP POP JUMP JUMPDEST PUSH1 0x0 JUMPDEST DUP4 DUP2 LT ISZERO PUSH2 0x19F5 JUMPI DUP1 DUP3 ADD MLOAD DUP2 DUP5 ADD MSTORE PUSH1 0x20 DUP2 ADD SWAP1 POP PUSH2 0x19DA JUMP JUMPDEST PUSH1 0x0 DUP5 DUP5 ADD MSTORE POP POP POP POP JUMP JUMPDEST PUSH1 0x0 PUSH1 0x1F NOT PUSH1 0x1F DUP4 ADD AND SWAP1 POP SWAP2 SWAP1 POP JUMP JUMPDEST PUSH1 0x0 PUSH2 0x1A1D DUP3 PUSH2 0x19BB JUMP JUMPDEST PUSH2 0x1A27 DUP2 DUP6 PUSH2 0x19C6 JUMP JUMPDEST SWAP4 POP PUSH2 0x1A37 DUP2 DUP6 PUSH1 0x20 DUP7 ADD PUSH2 0x19D7 JUMP JUMPDEST PUSH2 0x1A40 DUP2 PUSH2 0x1A01 JUMP JUMPDEST DUP5 ADD SWAP2 POP POP SWAP3 SWAP2 POP POP JUMP JUMPDEST PUSH1 0x0 DUP2 ISZERO ISZERO SWAP1 POP SWAP2 SWAP1 POP JUMP JUMPDEST PUSH2 0x1A60 DUP2 PUSH2 0x1A4B JUMP JUMPDEST DUP3 MSTORE POP POP JUMP JUMPDEST PUSH1 0x0 PUSH1 0xA0 DUP3 ADD SWAP1 POP PUSH2 0x1A7B PUSH1 0x0 DUP4 ADD DUP9 PUSH2 0x19AC JUMP JUMPDEST PUSH2 0x1A88 PUSH1 0x20 DUP4 ADD DUP8 PUSH2 0x18BA JUMP JUMPDEST DUP2 DUP2 SUB PUSH1 0x40 DUP4 ADD MSTORE PUSH2 0x1A9A DUP2 DUP7 PUSH2 0x1A12 JUMP JUMPDEST SWAP1 POP PUSH2 0x1AA9 PUSH1 0x60 DUP4 ADD DUP6 PUSH2 0x1A57 JUMP JUMPDEST PUSH2 0x1AB6 PUSH1 0x80 DUP4 ADD DUP5 PUSH2 0x18BA JUMP JUMPDEST SWAP7 SWAP6 POP POP POP POP POP POP JUMP JUMPDEST PUSH2 0x1AC9 DUP2 PUSH2 0x199A JUMP JUMPDEST DUP2 EQ PUSH2 0x1AD4 JUMPI PUSH1 0x0 DUP1 REVERT JUMPDEST POP JUMP JUMPDEST PUSH1 0x0 DUP2 CALLDATALOAD SWAP1 POP PUSH2 0x1AE6 DUP2 PUSH2 0x1AC0 JUMP JUMPDEST SWAP3 SWAP2 POP POP JUMP JUMPDEST PUSH1 0x0 DUP1 PUSH1 0x40 DUP4 DUP6 SUB SLT ISZERO PUSH2 0x1B03 JUMPI PUSH2 0x1B02 PUSH2 0x18FC JUMP JUMPDEST JUMPDEST PUSH1 0x0 PUSH2 0x1B11 DUP6 DUP3 DUP7 ADD PUSH2 0x1AD7 JUMP JUMPDEST SWAP3 POP POP PUSH1 0x20 PUSH2 0x1B22 DUP6 DUP3 DUP7 ADD PUSH2 0x191D JUMP JUMPDEST SWAP2 POP POP SWAP3 POP SWAP3 SWAP1 POP JUMP JUMPDEST PUSH1 0x0 PUSH1 0x20 DUP3 DUP5 SUB SLT ISZERO PUSH2 0x1B42 JUMPI PUSH2 0x1B41 PUSH2 0x18FC JUMP JUMPDEST JUMPDEST PUSH1 0x0 PUSH2 0x1B50 DUP5 DUP3 DUP6 ADD PUSH2 0x1AD7 JUMP JUMPDEST SWAP2 POP POP SWAP3 SWAP2 POP POP JUMP JUMPDEST PUSH1 0x0 PUSH1 0x20 DUP3 ADD SWAP1 POP PUSH2 0x1B6E PUSH1 0x0 DUP4 ADD DUP5 PUSH2 0x1A57 JUMP JUMPDEST SWAP3 SWAP2 POP POP JUMP JUMPDEST PUSH1 0x0 DUP1 PUSH1 0x40 DUP4 DUP6 SUB SLT ISZERO PUSH2 0x1B8B JUMPI PUSH2 0x1B8A PUSH2 0x18FC JUMP JUMPDEST JUMPDEST PUSH1 0x0 PUSH2 0x1B99 DUP6 DUP3 DUP7 ADD PUSH2 0x191D JUMP JUMPDEST SWAP3 POP POP PUSH1 0x20 PUSH2 0x1BAA DUP6 DUP3 DUP7 ADD PUSH2 0x1AD7 JUMP JUMPDEST SWAP2 POP POP SWAP3 POP SWAP3 SWAP1 POP JUMP JUMPDEST PUSH1 0x0 DUP1 REVERT JUMPDEST PUSH1 0x0 DUP1 REVERT JUMPDEST PUSH32 0x4E487B7100000000000000000000000000000000000000000000000000000000 PUSH1 0x0 MSTORE PUSH1 0x41 PUSH1 0x4 MSTORE PUSH1 0x24 PUSH1 0x0 REVERT JUMPDEST PUSH2 0x1BF6 DUP3 PUSH2 0x1A01 JUMP JUMPDEST DUP2 ADD DUP2 DUP2 LT PUSH8 0xFFFFFFFFFFFFFFFF DUP3 GT OR ISZERO PUSH2 0x1C15 JUMPI PUSH2 0x1C14 PUSH2 0x1BBE JUMP JUMPDEST JUMPDEST DUP1 PUSH1 0x40 MSTORE POP POP POP JUMP JUMPDEST PUSH1 0x0 PUSH2 0x1C28 PUSH2 0x18F2 JUMP JUMPDEST SWAP1 POP PUSH2 0x1C34 DUP3 DUP3 PUSH2 0x1BED JUMP JUMPDEST SWAP2 SWAP1 POP JUMP JUMPDEST PUSH1 0x0 PUSH8 0xFFFFFFFFFFFFFFFF DUP3 GT ISZERO PUSH2 0x1C54 JUMPI PUSH2 0x1C53 PUSH2 0x1BBE JUMP JUMPDEST JUMPDEST PUSH2 0x1C5D DUP3 PUSH2 0x1A01 JUMP JUMPDEST SWAP1 POP PUSH1 0x20 DUP2 ADD SWAP1 POP SWAP2 SWAP1 POP JUMP JUMPDEST DUP3 DUP2 DUP4 CALLDATACOPY PUSH1 0x0 DUP4 DUP4 ADD MSTORE POP POP POP JUMP JUMPDEST PUSH1 0x0 PUSH2 0x1C8C PUSH2 0x1C87 DUP5 PUSH2 0x1C39 JUMP JUMPDEST PUSH2 0x1C1E JUMP JUMPDEST SWAP1 POP DUP3 DUP2 MSTORE PUSH1 0x20 DUP2 ADD DUP5 DUP5 DUP5 ADD GT ISZERO PUSH2 0x1CA8 JUMPI PUSH2 0x1CA7 PUSH2 0x1BB9 JUMP JUMPDEST JUMPDEST PUSH2 0x1CB3 DUP5 DUP3 DUP6 PUSH2 0x1C6A JUMP JUMPDEST POP SWAP4 SWAP3 POP POP POP JUMP JUMPDEST PUSH1 0x0 DUP3 PUSH1 0x1F DUP4 ADD SLT PUSH2 0x1CD0 JUMPI PUSH2 0x1CCF PUSH2 0x1BB4 JUMP JUMPDEST JUMPDEST DUP2 CALLDATALOAD PUSH2 0x1CE0 DUP5 DUP3 PUSH1 0x20 DUP7 ADD PUSH2 0x1C79 JUMP JUMPDEST SWAP2 POP POP SWAP3 SWAP2 POP POP JUMP JUMPDEST PUSH1 0x0 DUP1 PUSH1 0x0 PUSH1 0x60 DUP5 DUP7 SUB SLT ISZERO PUSH2 0x1D02 JUMPI PUSH2 0x1D01 PUSH2 0x18FC JUMP JUMPDEST JUMPDEST PUSH1 0x0 PUSH2 0x1D10 DUP7 DUP3 DUP8 ADD PUSH2 0x1AD7 JUMP JUMPDEST SWAP4 POP POP PUSH1 0x20 PUSH2 0x1D21 DUP7 DUP3 DUP8 ADD PUSH2 0x191D JUMP JUMPDEST SWAP3 POP POP PUSH1 0x40 DUP5 ADD CALLDATALOAD PUSH8 0xFFFFFFFFFFFFFFFF DUP2 GT ISZERO PUSH2 0x1D42 JUMPI PUSH2 0x1D41 PUSH2 0x1901 JUMP JUMPDEST JUMPDEST PUSH2 0x1D4E DUP7 DUP3 DUP8 ADD PUSH2 0x1CBB JUMP JUMPDEST SWAP2 POP POP SWAP3 POP SWAP3 POP SWAP3 JUMP JUMPDEST PUSH1 0x0 DUP3 DUP3 MSTORE PUSH1 0x20 DUP3 ADD SWAP1 POP SWAP3 SWAP2 POP POP JUMP JUMPDEST PUSH32 0x6F6E6C79207369676E65722063616E2065786563757465000000000000000000 PUSH1 0x0 DUP3 ADD MSTORE POP JUMP JUMPDEST PUSH1 0x0 PUSH2 0x1D9F PUSH1 0x17 DUP4 PUSH2 0x1D58 JUMP JUMPDEST SWAP2 POP PUSH2 0x1DAA DUP3 PUSH2 0x1D69 JUMP JUMPDEST PUSH1 0x20 DUP3 ADD SWAP1 POP SWAP2 SWAP1 POP JUMP JUMPDEST PUSH1 0x0 PUSH1 0x20 DUP3 ADD SWAP1 POP DUP2 DUP2 SUB PUSH1 0x0 DUP4 ADD MSTORE PUSH2 0x1DCE DUP2 PUSH2 0x1D92 JUMP JUMPDEST SWAP1 POP SWAP2 SWAP1 POP JUMP JUMPDEST PUSH32 0x51756F72756D2063616E6E6F7420626520300000000000000000000000000000 PUSH1 0x0 DUP3 ADD MSTORE POP JUMP JUMPDEST PUSH1 0x0 PUSH2 0x1E0B PUSH1 0x12 DUP4 PUSH2 0x1D58 JUMP JUMPDEST SWAP2 POP PUSH2 0x1E16 DUP3 PUSH2 0x1DD5 JUMP JUMPDEST PUSH1 0x20 DUP3 ADD SWAP1 POP SWAP2 SWAP1 POP JUMP JUMPDEST PUSH1 0x0 PUSH1 0x20 DUP3 ADD SWAP1 POP DUP2 DUP2 SUB PUSH1 0x0 DUP4 ADD MSTORE PUSH2 0x1E3A DUP2 PUSH2 0x1DFE JUMP JUMPDEST SWAP1 POP SWAP2 SWAP1 POP JUMP JUMPDEST PUSH1 0x0 DUP2 SWAP1 POP SWAP2 SWAP1 POP JUMP JUMPDEST PUSH2 0x1E5C PUSH2 0x1E57 DUP3 PUSH2 0x18B0 JUMP JUMPDEST PUSH2 0x1E41 JUMP JUMPDEST DUP3 MSTORE POP POP JUMP JUMPDEST PUSH1 0x0 PUSH2 0x1E6E DUP3 DUP5 PUSH2 0x1E4B JUMP JUMPDEST PUSH1 0x20 DUP3 ADD SWAP2 POP DUP2 SWAP1 POP SWAP3 SWAP2 POP POP JUMP JUMPDEST PUSH32 0x747820646F6573206E6F74206578697374000000000000000000000000000000 PUSH1 0x0 DUP3 ADD MSTORE POP JUMP JUMPDEST PUSH1 0x0 PUSH2 0x1EB3 PUSH1 0x11 DUP4 PUSH2 0x1D58 JUMP JUMPDEST SWAP2 POP PUSH2 0x1EBE DUP3 PUSH2 0x1E7D JUMP JUMPDEST PUSH1 0x20 DUP3 ADD SWAP1 POP SWAP2 SWAP1 POP JUMP JUMPDEST PUSH1 0x0 PUSH1 0x20 DUP3 ADD SWAP1 POP DUP2 DUP2 SUB PUSH1 0x0 DUP4 ADD MSTORE PUSH2 0x1EE2 DUP2 PUSH2 0x1EA6 JUMP JUMPDEST SWAP1 POP SWAP2 SWAP1 POP JUMP JUMPDEST PUSH32 0x4E487B7100000000000000000000000000000000000000000000000000000000 PUSH1 0x0 MSTORE PUSH1 0x32 PUSH1 0x4 MSTORE PUSH1 0x24 PUSH1 0x0 REVERT JUMPDEST PUSH32 0x747820616C726561647920657865637574656400000000000000000000000000 PUSH1 0x0 DUP3 ADD MSTORE POP JUMP JUMPDEST PUSH1 0x0 PUSH2 0x1F4E PUSH1 0x13 DUP4 PUSH2 0x1D58 JUMP JUMPDEST SWAP2 POP PUSH2 0x1F59 DUP3 PUSH2 0x1F18 JUMP JUMPDEST PUSH1 0x20 DUP3 ADD SWAP1 POP SWAP2 SWAP1 POP JUMP JUMPDEST PUSH1 0x0 PUSH1 0x20 DUP3 ADD SWAP1 POP DUP2 DUP2 SUB PUSH1 0x0 DUP4 ADD MSTORE PUSH2 0x1F7D DUP2 PUSH2 0x1F41 JUMP JUMPDEST SWAP1 POP SWAP2 SWAP1 POP JUMP JUMPDEST PUSH32 0x7478206E6F7420636F6E6669726D656400000000000000000000000000000000 PUSH1 0x0 DUP3 ADD MSTORE POP JUMP JUMPDEST PUSH1 0x0 PUSH2 0x1FBA PUSH1 0x10 DUP4 PUSH2 0x1D58 JUMP JUMPDEST SWAP2 POP PUSH2 0x1FC5 DUP3 PUSH2 0x1F84 JUMP JUMPDEST PUSH1 0x20 DUP3 ADD SWAP1 POP SWAP2 SWAP1 POP JUMP JUMPDEST PUSH1 0x0 PUSH1 0x20 DUP3 ADD SWAP1 POP DUP2 DUP2 SUB PUSH1 0x0 DUP4 ADD MSTORE PUSH2 0x1FE9 DUP2 PUSH2 0x1FAD JUMP JUMPDEST SWAP1 POP SWAP2 SWAP1 POP JUMP JUMPDEST PUSH32 0x4E487B7100000000000000000000000000000000000000000000000000000000 PUSH1 0x0 MSTORE PUSH1 0x11 PUSH1 0x4 MSTORE PUSH1 0x24 PUSH1 0x0 REVERT JUMPDEST PUSH1 0x0 PUSH2 0x202A DUP3 PUSH2 0x18B0 JUMP JUMPDEST SWAP2 POP PUSH2 0x2035 DUP4 PUSH2 0x18B0 JUMP JUMPDEST SWAP3 POP DUP3 DUP3 SUB SWAP1 POP DUP2 DUP2 GT ISZERO PUSH2 0x204D JUMPI PUSH2 0x204C PUSH2 0x1FF0 JUMP JUMPDEST JUMPDEST SWAP3 SWAP2 POP POP JUMP JUMPDEST PUSH32 0x4E487B7100000000000000000000000000000000000000000000000000000000 PUSH1 0x0 MSTORE PUSH1 0x22 PUSH1 0x4 MSTORE PUSH1 0x24 PUSH1 0x0 REVERT JUMPDEST PUSH1 0x0 PUSH1 0x2 DUP3 DIV SWAP1 POP PUSH1 0x1 DUP3 AND DUP1 PUSH2 0x209A JUMPI PUSH1 0x7F DUP3 AND SWAP2 POP JUMPDEST PUSH1 0x20 DUP3 LT DUP2 SUB PUSH2 0x20AD JUMPI PUSH2 0x20AC PUSH2 0x2053 JUMP JUMPDEST JUMPDEST POP SWAP2 SWAP1 POP JUMP JUMPDEST PUSH32 0x63616E6E6F742073656E6420746F206E6F776865726500000000000000000000 PUSH1 0x0 DUP3 ADD MSTORE POP JUMP JUMPDEST PUSH1 0x0 PUSH2 0x20E9 PUSH1 0x16 DUP4 PUSH2 0x1D58 JUMP JUMPDEST SWAP2 POP PUSH2 0x20F4 DUP3 PUSH2 0x20B3 JUMP JUMPDEST PUSH1 0x20 DUP3 ADD SWAP1 POP SWAP2 SWAP1 POP JUMP JUMPDEST PUSH1 0x0 PUSH1 0x20 DUP3 ADD SWAP1 POP DUP2 DUP2 SUB PUSH1 0x0 DUP4 ADD MSTORE PUSH2 0x2118 DUP2 PUSH2 0x20DC JUMP JUMPDEST SWAP1 POP SWAP2 SWAP1 POP JUMP JUMPDEST PUSH32 0x63616E6E6F742073656E6420656D707479207478000000000000000000000000 PUSH1 0x0 DUP3 ADD MSTORE POP JUMP JUMPDEST PUSH1 0x0 PUSH2 0x2155 PUSH1 0x14 DUP4 PUSH2 0x1D58 JUMP JUMPDEST SWAP2 POP PUSH2 0x2160 DUP3 PUSH2 0x211F JUMP JUMPDEST PUSH1 0x20 DUP3 ADD SWAP1 POP SWAP2 SWAP1 POP JUMP JUMPDEST PUSH1 0x0 PUSH1 0x20 DUP3 ADD SWAP1 POP DUP2 DUP2 SUB PUSH1 0x0 DUP4 ADD MSTORE PUSH2 0x2184 DUP2 PUSH2 0x2148 JUMP JUMPDEST SWAP1 POP SWAP2 SWAP1 POP JUMP JUMPDEST PUSH32 0x63616E6E6F742070726F706F73652073656E64696E67206D6F7265207468616E PUSH1 0x0 DUP3 ADD MSTORE PUSH32 0x2073616665206861730000000000000000000000000000000000000000000000 PUSH1 0x20 DUP3 ADD MSTORE POP JUMP JUMPDEST PUSH1 0x0 PUSH2 0x21E7 PUSH1 0x29 DUP4 PUSH2 0x1D58 JUMP JUMPDEST SWAP2 POP PUSH2 0x21F2 DUP3 PUSH2 0x218B JUMP JUMPDEST PUSH1 0x40 DUP3 ADD SWAP1 POP SWAP2 SWAP1 POP JUMP JUMPDEST PUSH1 0x0 PUSH1 0x20 DUP3 ADD SWAP1 POP DUP2 DUP2 SUB PUSH1 0x0 DUP4 ADD MSTORE PUSH2 0x2216 DUP2 PUSH2 0x21DA JUMP JUMPDEST SWAP1 POP SWAP2 SWAP1 POP JUMP JUMPDEST PUSH32 0x5369676E65722063616E6E6F7420626520616464726573732830290000000000 PUSH1 0x0 DUP3 ADD MSTORE POP JUMP JUMPDEST PUSH1 0x0 PUSH2 0x2253 PUSH1 0x1B DUP4 PUSH2 0x1D58 JUMP JUMPDEST SWAP2 POP PUSH2 0x225E DUP3 PUSH2 0x221D JUMP JUMPDEST PUSH1 0x20 DUP3 ADD SWAP1 POP SWAP2 SWAP1 POP JUMP JUMPDEST PUSH1 0x0 PUSH1 0x20 DUP3 ADD SWAP1 POP DUP2 DUP2 SUB PUSH1 0x0 DUP4 ADD MSTORE PUSH2 0x2282 DUP2 PUSH2 0x2246 JUMP JUMPDEST SWAP1 POP SWAP2 SWAP1 POP JUMP JUMPDEST PUSH32 0x63616E6E6F742073656E64206E756C6C20747800000000000000000000000000 PUSH1 0x0 DUP3 ADD MSTORE POP JUMP JUMPDEST PUSH1 0x0 PUSH2 0x22BF PUSH1 0x13 DUP4 PUSH2 0x1D58 JUMP JUMPDEST SWAP2 POP PUSH2 0x22CA DUP3 PUSH2 0x2289 JUMP JUMPDEST PUSH1 0x20 DUP3 ADD SWAP1 POP SWAP2 SWAP1 POP JUMP JUMPDEST PUSH1 0x0 PUSH1 0x20 DUP3 ADD SWAP1 POP DUP2 DUP2 SUB PUSH1 0x0 DUP4 ADD MSTORE PUSH2 0x22EE DUP2 PUSH2 0x22B2 JUMP JUMPDEST SWAP1 POP SWAP2 SWAP1 POP JUMP JUMPDEST PUSH32 0x747820616C726561647920636F6E6669726D6564000000000000000000000000 PUSH1 0x0 DUP3 ADD MSTORE POP JUMP JUMPDEST PUSH1 0x0 PUSH2 0x232B PUSH1 0x14 DUP4 PUSH2 0x1D58 JUMP JUMPDEST SWAP2 POP PUSH2 0x2336 DUP3 PUSH2 0x22F5 JUMP JUMPDEST PUSH1 0x20 DUP3 ADD SWAP1 POP SWAP2 SWAP1 POP JUMP JUMPDEST PUSH1 0x0 PUSH1 0x20 DUP3 ADD SWAP1 POP DUP2 DUP2 SUB PUSH1 0x0 DUP4 ADD MSTORE PUSH2 0x235A DUP2 PUSH2 0x231E JUMP JUMPDEST SWAP1 POP SWAP2 SWAP1 POP JUMP JUMPDEST PUSH1 0x0 PUSH2 0x236C DUP3 PUSH2 0x18B0 JUMP JUMPDEST SWAP2 POP PUSH2 0x2377 DUP4 PUSH2 0x18B0 JUMP JUMPDEST SWAP3 POP DUP3 DUP3 ADD SWAP1 POP DUP1 DUP3 GT ISZERO PUSH2 0x238F JUMPI PUSH2 0x238E PUSH2 0x1FF0 JUMP JUMPDEST JUMPDEST SWAP3 SWAP2 POP POP JUMP JUMPDEST PUSH32 0x63616E6E6F742065786563757465207478000000000000000000000000000000 PUSH1 0x0 DUP3 ADD MSTORE POP JUMP JUMPDEST PUSH1 0x0 PUSH2 0x23CB PUSH1 0x11 DUP4 PUSH2 0x1D58 JUMP JUMPDEST SWAP2 POP PUSH2 0x23D6 DUP3 PUSH2 0x2395 JUMP JUMPDEST PUSH1 0x20 DUP3 ADD SWAP1 POP SWAP2 SWAP1 POP JUMP JUMPDEST PUSH1 0x0 PUSH1 0x20 DUP3 ADD SWAP1 POP DUP2 DUP2 SUB PUSH1 0x0 DUP4 ADD MSTORE PUSH2 0x23FA DUP2 PUSH2 0x23BE JUMP JUMPDEST SWAP1 POP SWAP2 SWAP1 POP JUMP JUMPDEST PUSH32 0x4E487B7100000000000000000000000000000000000000000000000000000000 PUSH1 0x0 MSTORE PUSH1 0x21 PUSH1 0x4 MSTORE PUSH1 0x24 PUSH1 0x0 REVERT JUMPDEST PUSH1 0x0 PUSH2 0x243B DUP3 PUSH2 0x18B0 JUMP JUMPDEST SWAP2 POP PUSH32 0xFFFFFFFFFFFFFFFFFFFFFFFFFFFFFFFFFFFFFFFFFFFFFFFFFFFFFFFFFFFFFFFF DUP3 SUB PUSH2 0x246D JUMPI PUSH2 0x246C PUSH2 0x1FF0 JUMP JUMPDEST JUMPDEST PUSH1 0x1 DUP3 ADD SWAP1 POP SWAP2 SWAP1 POP JUMP JUMPDEST PUSH1 0x0 PUSH2 0x2483 DUP3 PUSH2 0x18B0 JUMP JUMPDEST SWAP2 POP PUSH1 0x0 DUP3 SUB PUSH2 0x2496 JUMPI PUSH2 0x2495 PUSH2 0x1FF0 JUMP JUMPDEST JUMPDEST PUSH1 0x1 DUP3 SUB SWAP1 POP SWAP2 SWAP1 POP JUMP JUMPDEST PUSH1 0x0 DUP2 SWAP1 POP SWAP3 SWAP2 POP POP JUMP JUMPDEST PUSH1 0x0 DUP2 SWAP1 POP DUP2 PUSH1 0x0 MSTORE PUSH1 0x20 PUSH1 0x0 KECCAK256 SWAP1 POP SWAP2 SWAP1 POP JUMP JUMPDEST PUSH1 0x0 DUP2 SLOAD PUSH2 0x24CE DUP2 PUSH2 0x2082 JUMP JUMPDEST PUSH2 0x24D8 DUP2 DUP7 PUSH2 0x24A1 JUMP JUMPDEST SWAP5 POP PUSH1 0x1 DUP3 AND PUSH1 0x0 DUP2 EQ PUSH2 0x24F3 JUMPI PUSH1 0x1 DUP2 EQ PUSH2 0x2508 JUMPI PUSH2 0x253B JUMP JUMPDEST PUSH1 0xFF NOT DUP4 AND DUP7 MSTORE DUP2 ISZERO ISZERO DUP3 MUL DUP7 ADD SWAP4 POP PUSH2 0x253B JUMP JUMPDEST PUSH2 0x2511 DUP6 PUSH2 0x24AC JUMP JUMPDEST PUSH1 0x0 JUMPDEST DUP4 DUP2 LT ISZERO PUSH2 0x2533 JUMPI DUP2 SLOAD DUP2 DUP10 ADD MSTORE PUSH1 0x1 DUP3 ADD SWAP2 POP PUSH1 0x20 DUP2 ADD SWAP1 POP PUSH2 0x2514 JUMP JUMPDEST DUP4 DUP9 ADD SWAP6 POP POP POP JUMPDEST POP POP POP SWAP3 SWAP2 POP POP JUMP JUMPDEST PUSH1 0x0 PUSH2 0x2550 DUP3 DUP5 PUSH2 0x24C1 JUMP JUMPDEST SWAP2 POP DUP2 SWAP1 POP SWAP3 SWAP2 POP POP JUMP JUMPDEST PUSH32 0x7478206661696C65640000000000000000000000000000000000000000000000 PUSH1 0x0 DUP3 ADD MSTORE POP JUMP JUMPDEST PUSH1 0x0 PUSH2 0x2591 PUSH1 0x9 DUP4 PUSH2 0x1D58 JUMP JUMPDEST SWAP2 POP PUSH2 0x259C DUP3 PUSH2 0x255B JUMP JUMPDEST PUSH1 0x20 DUP3 ADD SWAP1 POP SWAP2 SWAP1 POP JUMP JUMPDEST PUSH1 0x0 PUSH1 0x20 DUP3 ADD SWAP1 POP DUP2 DUP2 SUB PUSH1 0x0 DUP4 ADD MSTORE PUSH2 0x25C0 DUP2 PUSH2 0x2584 JUMP JUMPDEST SWAP1 POP SWAP2 SWAP1 POP JUMP JUMPDEST PUSH1 0x0 PUSH1 0x20 PUSH1 0x1F DUP4 ADD DIV SWAP1 POP SWAP2 SWAP1 POP JUMP JUMPDEST PUSH1 0x0 DUP3 DUP3 SHL SWAP1 POP SWAP3 SWAP2 POP POP JUMP JUMPDEST PUSH1 0x0 PUSH1 0x8 DUP4 MUL PUSH2 0x2614 PUSH32 0xFFFFFFFFFFFFFFFFFFFFFFFFFFFFFFFFFFFFFFFFFFFFFFFFFFFFFFFFFFFFFFFF DUP3 PUSH2 0x25D7 JUMP JUMPDEST PUSH2 0x261E DUP7 DUP4 PUSH2 0x25D7 JUMP JUMPDEST SWAP6 POP DUP1 NOT DUP5 AND SWAP4 POP DUP1 DUP7 AND DUP5 OR SWAP3 POP POP POP SWAP4 SWAP3 POP POP POP JUMP JUMPDEST PUSH1 0x0 DUP2 SWAP1 POP SWAP2 SWAP1 POP JUMP JUMPDEST PUSH1 0x0 PUSH2 0x265B PUSH2 0x2656 PUSH2 0x2651 DUP5 PUSH2 0x18B0 JUMP JUMPDEST PUSH2 0x2636 JUMP JUMPDEST PUSH2 0x18B0 JUMP JUMPDEST SWAP1 POP SWAP2 SWAP1 POP JUMP JUMPDEST PUSH1 0x0 DUP2 SWAP1 POP SWAP2 SWAP1 POP JUMP JUMPDEST PUSH2 0x2675 DUP4 PUSH2 0x2640 JUMP JUMPDEST PUSH2 0x2689 PUSH2 0x2681 DUP3 PUSH2 0x2662 JUMP JUMPDEST DUP5 DUP5 SLOAD PUSH2 0x25E4 JUMP JUMPDEST DUP3 SSTORE POP POP POP POP JUMP JUMPDEST PUSH1 0x0 SWAP1 JUMP JUMPDEST PUSH2 0x269E PUSH2 0x2691 JUMP JUMPDEST PUSH2 0x26A9 DUP2 DUP5 DUP5 PUSH2 0x266C JUMP JUMPDEST POP POP POP JUMP JUMPDEST JUMPDEST DUP2 DUP2 LT ISZERO PUSH2 0x26CD JUMPI PUSH2 0x26C2 PUSH1 0x0 DUP3 PUSH2 0x2696 JUMP JUMPDEST PUSH1 0x1 DUP2 ADD SWAP1 POP PUSH2 0x26AF JUMP JUMPDEST POP POP JUMP JUMPDEST PUSH1 0x1F DUP3 GT ISZERO PUSH2 0x2712 JUMPI PUSH2 0x26E3 DUP2 PUSH2 0x24AC JUMP JUMPDEST PUSH2 0x26EC DUP5 PUSH2 0x25C7 JUMP JUMPDEST DUP2 ADD PUSH1 0x20 DUP6 LT ISZERO PUSH2 0x26FB JUMPI DUP2 SWAP1 POP JUMPDEST PUSH2 0x270F PUSH2 0x2707 DUP6 PUSH2 0x25C7 JUMP JUMPDEST DUP4 ADD DUP3 PUSH2 0x26AE JUMP JUMPDEST POP POP JUMPDEST POP POP POP JUMP JUMPDEST PUSH1 0x0 DUP3 DUP3 SHR SWAP1 POP SWAP3 SWAP2 POP POP JUMP JUMPDEST PUSH1 0x0 PUSH2 0x2735 PUSH1 0x0 NOT DUP5 PUSH1 0x8 MUL PUSH2 0x2717 JUMP JUMPDEST NOT DUP1 DUP4 AND SWAP2 POP POP SWAP3 SWAP2 POP POP JUMP JUMPDEST PUSH1 0x0 PUSH2 0x274E DUP4 DUP4 PUSH2 0x2724 JUMP JUMPDEST SWAP2 POP DUP3 PUSH1 0x2 MUL DUP3 OR SWAP1 POP SWAP3 SWAP2 POP POP JUMP JUMPDEST PUSH2 0x2767 DUP3 PUSH2 0x19BB JUMP JUMPDEST PUSH8 0xFFFFFFFFFFFFFFFF DUP2 GT ISZERO PUSH2 0x2780 JUMPI PUSH2 0x277F PUSH2 0x1BBE JUMP JUMPDEST JUMPDEST PUSH2 0x278A DUP3 SLOAD PUSH2 0x2082 JUMP JUMPDEST PUSH2 0x2795 DUP3 DUP3 DUP6 PUSH2 0x26D1 JUMP JUMPDEST PUSH1 0x0 PUSH1 0x20 SWAP1 POP PUSH1 0x1F DUP4 GT PUSH1 0x1 DUP2 EQ PUSH2 0x27C8 JUMPI PUSH1 0x0 DUP5 ISZERO PUSH2 0x27B6 JUMPI DUP3 DUP8 ADD MLOAD SWAP1 POP JUMPDEST PUSH2 0x27C0 DUP6 DUP3 PUSH2 0x2742 JUMP JUMPDEST DUP7 SSTORE POP PUSH2 0x2828 JUMP JUMPDEST PUSH1 0x1F NOT DUP5 AND PUSH2 0x27D6 DUP7 PUSH2 0x24AC JUMP JUMPDEST PUSH1 0x0 JUMPDEST DUP3 DUP2 LT ISZERO PUSH2 0x27FE JUMPI DUP5 DUP10 ADD MLOAD DUP3 SSTORE PUSH1 0x1 DUP3 ADD SWAP2 POP PUSH1 0x20 DUP6 ADD SWAP5 POP PUSH1 0x20 DUP2 ADD SWAP1 POP PUSH2 0x27D9 JUMP JUMPDEST DUP7 DUP4 LT ISZERO PUSH2 0x281B JUMPI DUP5 DUP10 ADD MLOAD PUSH2 0x2817 PUSH1 0x1F DUP10 AND DUP3 PUSH2 0x2724 JUMP JUMPDEST DUP4 SSTORE POP JUMPDEST PUSH1 0x1 PUSH1 0x2 DUP9 MUL ADD DUP9 SSTORE POP POP POP JUMPDEST POP POP POP POP POP POP JUMP JUMPDEST PUSH1 0x5 DUP2 LT PUSH2 0x2841 JUMPI PUSH2 0x2840 PUSH2 0x2401 JUMP JUMPDEST JUMPDEST POP JUMP JUMPDEST PUSH1 0x0 DUP2 SWAP1 POP PUSH2 0x2852 DUP3 PUSH2 0x2830 JUMP JUMPDEST SWAP2 SWAP1 POP JUMP JUMPDEST PUSH1 0x0 PUSH2 0x2862 DUP3 PUSH2 0x2844 JUMP JUMPDEST SWAP1 POP SWAP2 SWAP1 POP JUMP JUMPDEST PUSH2 0x2872 DUP2 PUSH2 0x2857 JUMP JUMPDEST DUP3 MSTORE POP POP JUMP JUMPDEST PUSH1 0x0 PUSH1 0x40 DUP3 ADD SWAP1 POP PUSH2 0x288D PUSH1 0x0 DUP4 ADD DUP6 PUSH2 0x18BA JUMP JUMPDEST PUSH2 0x289A PUSH1 0x20 DUP4 ADD DUP5 PUSH2 0x2869 JUMP JUMPDEST SWAP4 SWAP3 POP POP POP JUMP INVALID LOG2 PUSH5 0x6970667358 0x22 SLT KECCAK256 0xC1 0xD 0xE5 CALLDATACOPY 0xE6 GAS SSTORE SLOAD CREATE 0xB2 0x24 0xD0 0xFB 0xE1 0xF7 0xB5 0x27 0x1F SELFDESTRUCT 0x49 SAR 0x2C MLOAD RETURNDATASIZE PUSH32 0x2FCBD621195BB964736F6C634300081200330000000000000000000000000000 "
				},
				"gasEstimates": {
					"creation": {
						"codeDepositCost": "2091000",
						"executionCost": "infinite",
						"totalCost": "infinite"
					},
					"external": {
						"confirmTransaction(uint256)": "infinite",
						"executeTransaction(uint256)": "infinite",
						"getTransaction(uint256)": "infinite",
						"getTransactionCount()": "2468",
						"isConfirmed(uint256,address)": "3154",
						"isSigner(address)": "2890",
						"nonce()": "2451",
						"quorum()": "2475",
						"revokeConfirmation(uint256)": "infinite",
						"signerCount()": "2452",
						"submitChangeQuorum(uint256)": "infinite",
						"submitNewSigner(address)": "infinite",
						"submitRemoveSigner(address)": "infinite",
						"submitSendBytecode(address,uint256,bytes)": "infinite",
						"submitValueTransfer(address,uint256)": "infinite"
					},
					"internal": {
						"submitTx(address,uint256,bytes memory,enum GnosisUntitled.TxType)": "infinite"
					}
				},
				"methodIdentifiers": {
					"confirmTransaction(uint256)": "c01a8c84",
					"executeTransaction(uint256)": "ee22610b",
					"getTransaction(uint256)": "33ea3dc8",
					"getTransactionCount()": "2e7700f0",
					"isConfirmed(uint256,address)": "80f59a65",
					"isSigner(address)": "7df73e27",
					"nonce()": "affed0e0",
					"quorum()": "1703a018",
					"revokeConfirmation(uint256)": "20ea8d86",
					"signerCount()": "7ca548c6",
					"submitChangeQuorum(uint256)": "0bb52c1d",
					"submitNewSigner(address)": "6f7853a5",
					"submitRemoveSigner(address)": "db5e04d4",
					"submitSendBytecode(address,uint256,bytes)": "ac36862a",
					"submitValueTransfer(address,uint256)": "36881d91"
				}
			},
			"storageLayout": {
				"storage": [
					{
						"astId": 127,
						"contract": "contracts/GnosisUntitled.sol:GnosisUntitled",
						"label": "isConfirmed",
						"offset": 0,
						"slot": "0",
						"type": "t_mapping(t_uint256,t_mapping(t_address,t_bool))"
					},
					{
						"astId": 131,
						"contract": "contracts/GnosisUntitled.sol:GnosisUntitled",
						"label": "transactions",
						"offset": 0,
						"slot": "1",
						"type": "t_array(t_struct(Transaction)63_storage)dyn_storage"
					},
					{
						"astId": 133,
						"contract": "contracts/GnosisUntitled.sol:GnosisUntitled",
						"label": "signerCount",
						"offset": 0,
						"slot": "2",
						"type": "t_uint256"
					},
					{
						"astId": 137,
						"contract": "contracts/GnosisUntitled.sol:GnosisUntitled",
						"label": "nonce",
						"offset": 0,
						"slot": "3",
						"type": "t_uint256"
					},
					{
						"astId": 140,
						"contract": "contracts/GnosisUntitled.sol:GnosisUntitled",
						"label": "quorum",
						"offset": 0,
						"slot": "4",
						"type": "t_uint256"
					},
					{
						"astId": 145,
						"contract": "contracts/GnosisUntitled.sol:GnosisUntitled",
						"label": "isSigner",
						"offset": 0,
						"slot": "5",
						"type": "t_mapping(t_address,t_bool)"
					}
				],
				"types": {
					"t_address": {
						"encoding": "inplace",
						"label": "address",
						"numberOfBytes": "20"
					},
					"t_array(t_struct(Transaction)63_storage)dyn_storage": {
						"base": "t_struct(Transaction)63_storage",
						"encoding": "dynamic_array",
						"label": "struct GnosisUntitled.Transaction[]",
						"numberOfBytes": "32"
					},
					"t_bool": {
						"encoding": "inplace",
						"label": "bool",
						"numberOfBytes": "1"
					},
					"t_bytes_storage": {
						"encoding": "bytes",
						"label": "bytes",
						"numberOfBytes": "32"
					},
					"t_enum(TxType)8": {
						"encoding": "inplace",
						"label": "enum GnosisUntitled.TxType",
						"numberOfBytes": "1"
					},
					"t_mapping(t_address,t_bool)": {
						"encoding": "mapping",
						"key": "t_address",
						"label": "mapping(address => bool)",
						"numberOfBytes": "32",
						"value": "t_bool"
					},
					"t_mapping(t_uint256,t_mapping(t_address,t_bool))": {
						"encoding": "mapping",
						"key": "t_uint256",
						"label": "mapping(uint256 => mapping(address => bool))",
						"numberOfBytes": "32",
						"value": "t_mapping(t_address,t_bool)"
					},
					"t_struct(Transaction)63_storage": {
						"encoding": "inplace",
						"label": "struct GnosisUntitled.Transaction",
						"members": [
							{
								"astId": 49,
								"contract": "contracts/GnosisUntitled.sol:GnosisUntitled",
								"label": "index",
								"offset": 0,
								"slot": "0",
								"type": "t_uint256"
							},
							{
								"astId": 51,
								"contract": "contracts/GnosisUntitled.sol:GnosisUntitled",
								"label": "to",
								"offset": 0,
								"slot": "1",
								"type": "t_address"
							},
							{
								"astId": 53,
								"contract": "contracts/GnosisUntitled.sol:GnosisUntitled",
								"label": "value",
								"offset": 0,
								"slot": "2",
								"type": "t_uint256"
							},
							{
								"astId": 55,
								"contract": "contracts/GnosisUntitled.sol:GnosisUntitled",
								"label": "data",
								"offset": 0,
								"slot": "3",
								"type": "t_bytes_storage"
							},
							{
								"astId": 57,
								"contract": "contracts/GnosisUntitled.sol:GnosisUntitled",
								"label": "executed",
								"offset": 0,
								"slot": "4",
								"type": "t_bool"
							},
							{
								"astId": 59,
								"contract": "contracts/GnosisUntitled.sol:GnosisUntitled",
								"label": "numConfirmations",
								"offset": 0,
								"slot": "5",
								"type": "t_uint256"
							},
							{
								"astId": 62,
								"contract": "contracts/GnosisUntitled.sol:GnosisUntitled",
								"label": "txType",
								"offset": 0,
								"slot": "6",
								"type": "t_enum(TxType)8"
							}
						],
						"numberOfBytes": "224"
					},
					"t_uint256": {
						"encoding": "inplace",
						"label": "uint256",
						"numberOfBytes": "32"
					}
				}
			},
			"userdoc": {
				"kind": "user",
				"methods": {
					"isSigner(address)": {
						"notice": "A list of signers, and wether they're trusted by this contract"
					},
					"nonce()": {
						"notice": "Signature nonce, incremented with each successful execution or state change"
					},
					"quorum()": {
						"notice": "The amount of required signatures to execute a transaction or change the state"
					}
				},
				"version": 1
			}
		}
	}
}